:020000040800F2
:100000005C04002035010008E5010008F10100084A
:10001000F9010008010200080902000800000000C0
:1000200000000000000000000000000011020008B5
:100030001D02000800000000290200083502000827
:100040008901000889010008890100088901000868
:100050008901000889010008890100088901000858
:100060008901000889010008890100088901000848
:100070008901000889010008890100088901000838
:100080008901000889010008890100088901000828
:100090008901000889010008890100088901000818
:1000A0008901000889010008890100088901000808
:1000B00089010008890100088901000889010008F8
:1000C00089010008890100088901000889010008E8
:1000D000890100081D09000889010008890100083C
:1000E00089010008890100088901000889010008C8
:1000F00089010008890100088901000889010008B8
:1001000089010008890100088901000889010008A7
:100110008901000889010008890100088901000897
:100120008901000889010008890100088901000887
:040130005FF808F17B
:1001340080B582B000AF104B7B60104B3B6007E092
:100144003B681A1D3A607A68111D796012681A605A
:100154003B680B4A9342F3D30C480D494FF000021D
:100164008842B8BF40F8042BFADB00F067F800F0CF
:1001740011F80837BD4680BD942500080000002012
:100184005C00002080B400AFFEE700007004002093
:10019400D004002080B582B000AF7860396000F0F0
:1001A400A9F90A2000F042FA0A4B9B6909484FF466
:1001B4007A719847084B9B6907484FF4FA7198473E
:1001C400064B5B69C8204FF4FA619847034B9B695F
:1001D4009847E6E790040020B0040020740400204F
:1001E40080B400AFBD465DF8047B704780B400AFB7
:1001F400FEE700BF80B400AFFEE700BF80B400AFED
:10020400FEE700BF80B400AFFEE700BF80B400AFDC
:10021400BD465DF8047B704780B400AFBD465DF811
:10022400047B704780B400AFBD465DF8047B704723
:1002340080B400AFBD465DF8047B704780B500AF65
:10024400114A114B1B6843F0010313600E4B00224B
:100254009A600D4A0C4B1B6823F0847323F480339B
:100264001360094B094A5A60074A074B1B6823F479
:1002740080231360044B0022DA6000F087F8044BFB
:100284004FF000629A6080BD0038024010300024B4
:1002940000ED00E080B487B000AF00233B61002391
:1002A4007B610223FB600023BB6002237B60324B33
:1002B4009B6803F00C033B613B69042B07D0082BBC
:1002C40009D0002B3FD12D4B2D4A1A603FE02B4B18
:1002D4002C4A1A603BE0284B5B6803F480039B0DB7
:1002E400BB60254B5B6803F03F037B60BB68002B5E
:1002F4000DD0244A7B68B2FBF3F21F4B596847F6D2
:10030400C0730B409B0903FB02F37B610CE01C4AA6
:100314007B68B2FBF3F2184B596847F6C0730B4085
:100324009B0903FB02F37B61134B5B6803F44033CB
:100334001B0C01335B00FB607A69FB68B2FBF3F3CF
:100344000E4A136003E00D4B0D4A1A6000BF0A4BBE
:100354009B6803F0F0031B090B4AD35CDBB23B61DF
:10036400064B1A683B6922FA03F3044A13601C37EC
:10037400BD465DF8047B7047003802400000002051
:100384000024F40000127A000400002080B483B03A
:1003940000AF00237B6000233B60354A344B1B686D
:1003A40043F480331360324B1B6803F400333B6027
:1003B4007B6801337B603B68002B03D17B68B3F51A
:1003C400A04FF0D12A4B1B6803F40033002B02D05A
:1003D40001233B6001E000233B603B68012B42D1D9
:1003E400234A234B1B6C43F080531364214A214B53
:1003F4001B6843F4404313601D4A1D4B9B68936084
:100404001B4A1B4B9B6843F400439360184A184BE8
:100414009B6843F4A0539360154B174A5A60144ADF
:10042400134B1B6843F08073136000BF104B1B68B1
:1004340003F00073002BF9D0104B40F205721A60E0
:100444000B4A0B4B9B6823F003039360084A084B49
:100454009B6843F00203936000BF054B9B6803F065
:100464000C03082BF9D10C37BD465DF8047B7047AB
:10047400003802400070004008544007003C02402D
:1004840080B500AF084B4FF400721A80064B5B68CE
:1004940005489847054B4FF480621A80024B5B680D
:1004A4000248984780BD00BF90040020B00400209B
:1004B40080B500AF094B0A4A9A60084B094ADA60D2
:1004C400064B094A1A61054B084A5A61034B084A0C
:1004D4009A61024B9B68984780BD00BF740400205A
:1004E4008D060008D1060008E5060008F906000894
:1004F4006507000880B500AF4FF4A06000F030FA43
:10050400A82000F009F84FF4E13000F0A9F9FFF752
:10051400B7FFFFF7CDFF80BD80B582B000AF0346C3
:10052400FB716FF0040000F0C3FAFB79DB08DAB268
:10053400084B1A70074B1B789BB21A465201D21A09
:1005440092001344DB009AB2034B1A800837BD466D
:1005540080BD00BF700400207204002080B485B008
:1005640000AF7860154A164B1B7819467B6803FB6D
:1005740001F35360114B00229A60104A0F4B1B6821
:1005840043F0010313600D4B1B68FB60FB6803F031
:100594000103002B04D0FB6803F48033002BF2D05A
:1005A400064A064B1B6823F001031360034B002229
:1005B4009A601437BD465DF8047B704710E000E094
:1005C4007004002080B485B000AF0346FB80154A58
:1005D400FB881549098801FB03F35360114B002282
:1005E4009A60104A0F4B1B6843F0010313600D4BD4
:1005F4001B68FB60FB6803F00103002B04D0FB685D
:1006040003F48033002BF2D0064A064B1B6823F018
:1006140001031360034B00229A601437BD465DF852
:10062400047B704710E000E07204002080B584B0C1
:1006340000AF0346FB80FB88124AA2FB03235B0A3C
:100644009BB2FB73FB880F4AA2FB0312520A4FF4BE
:10065400077101FB02F29B1ABB8106E04FF407709D
:10066400FFF7B0FFFB7B013BFB73FB7B002BF5D15A
:10067400BB89002B03D0BB891846FFF7A3FF1037B3
:10068400BD4680BD49D6B9F280B582B000AF202006
:10069400012101F053F84FF480733B6001233B7157
:1006A4000023BB7103237B710123FB713B46064886
:1006B400194600F0CBFA04484FF4807100F0EEFBC9
:1006C4000837BD4680BD00BF0014024080B500AFAE
:1006D40002484FF4807100F0D3FB80BD0014024047
:1006E40080B500AF02484FF4807100F0D7FB80BDA5
:1006F4000014024080B584B000AF03463960FB802B
:10070400FB883A6802FB03F3144AA2FB03239B0908
:10071400FB601BE0FFF7DAFFFB884CF2503292FBE0
:10072400F3F213469B0013445B001846FFF716FFD1
:10073400FFF7D6FFFB884CF2503292FBF3F21346DC
:100744009B0013445B001846FFF708FFFB685A1E22
:10075400FA60002BDED11037BD4680BDD34D621048
:1007640090B583B000AF134C7C440023FB8011E0B0
:10077400FB88114AA258D35C99B2FB880F4AA2584D
:10078400D35C1A4613469B0013449B000846194643
:10079400FFF7B0FFFB88084AA258D35C002BE7D1CF
:1007A400FB88064AA258D35C002BE1D10C37BD4626
:1007B40090BD00BFECFCFF17040000000000000027
:1007C40080B586B000AFF860B9607A6000237B61C1
:1007D40013E000BF0D4B1B889BB203F08003002B7A
:1007E400F8D07B69BA6813441B789BB20748194652
:1007F40001F03CFC7B6901337B617A697B689A4236
:10080400E7DB7B6818461837BD4680BD0010014001
:1008140090B587B000AFF860B9607A6000237B615F
:1008240013E000BF0D4B1B889BB203F02003002B89
:10083400F8D07B69BA68D418084801F029FC03464B
:10084400DBB223707B6901337B617A697B689A42EE
:10085400E7DB7B6818461C37BD4690BD001001409D
:1008640080B58AB000AF78600120012100F066FFF6
:100874001020012100F0DAFF25480921072200F0A9
:1008840053FB23480A21072200F04EFB4FF4C063B8
:100894003B62022387F82430022387F825300023A3
:1008A40087F82630012387F8273007F120031848FA
:1008B400194600F0CBF97B683B610023BB8200231F
:1008C400FB8200233B830023BB830C237B8307F140
:1008D40010031048194601F033FA0E48012101F0C3
:1008E40047FB0C4840F22551012201F065FD252308
:1008F4003B7303237B730323BB730123FB7307F154
:100904000C03184600F03EF82837BD4680BD00BFF2
:10091400000002400010014080B582B000AF0F48D3
:1009240040F2255101F0BCFD0346002B12D00B48C8
:1009340001F0AEFB0346FB71FB799BB207481946F5
:1009440001F094FB00BF0548402101F07DFD034602
:10095400012BF8D10837BD4680BD00BF001001400F
:1009640080B483B000AF7860054A7B6843F0BF630E
:1009740043F40033D3600C37BD465DF8047B704705
:1009840000ED00E080B485B000AF78600023FB7315
:100994000023BB730F237B737B68DB78002B38D079
:1009A400264BDB68DB4303F4E0631B0AFB73FB7B2E
:1009B400C3F10403BB737A7BFB7B42FA03F37B73BF
:1009C4007B685B781A46BB7B02FA03F3FB737B6894
:1009D4009A787B7B1340DAB2FB7B1343FB73FB7B7C
:1009E4001B01FB73164A7B681B781344FA7B83F85C
:1009F4000023134A7B681B785B09DBB218467B68CB
:100A04001B7803F01F03012101FA03F342F820309D
:100A14000FE00B497B681B785B09DBB218467B68E7
:100A24001B7803F01F0301229A4000F1200341F8D0
:100A340023201437BD465DF8047B704700ED00E0C9
:100A440000E100E080B483B000AF7860396007490A
:100A54003B6823F0604323F07F037A6813438B6081
:100A64000C37BD465DF8047B704700BF00ED00E025
:100A740080B483B000AF03460A46FB711346BB71D2
:100A8400BB79002B06D00949084B1A69FB7913433B
:100A94000B6106E00549054B1A69FB79DB431340FA
:100AA4000B610C37BD465DF8047B704700ED00E038
:100AB40080B483B000AF78607B68042B06D1094A08
:100AC400084B1B6843F00403136005E0054A054B1B
:100AD4001B6823F0040313600C37BD465DF8047BE8
:100AE400704700BF10E000E080B582B000AF7860CE
:100AF4007B684B4A934208D10120012100F0B4FEE7
:100B04000120002100F0B0FE86E07B68454A934254
:100B140008D10220012100F0A7FE0220002100F0EC
:100B2400A3FE79E07B68404A934208D10420012166
:100B340000F09AFE0420002100F096FE6CE07B6831
:100B44003A4A934208D10820012100F08DFE082082
:100B5400002100F089FE5FE07B68354A934208D1AA
:100B64001020012100F080FE1020002100F07CFE06
:100B740052E07B682F4A934208D12020012100F0E3
:100B840073FE2020002100F06FFE45E07B682A4AB6
:100B9400934208D14020012100F066FE402000214C
:100BA40000F062FE38E07B68244A934208D180203A
:100BB400012100F059FE8020002100F055FE2BE0B9
:100BC4007B681F4A93420AD14FF48070012100F0E0
:100BD4004BFE4FF48070002100F046FE1CE07B6861
:100BE400184A93420AD14FF40070012100F03CFEF0
:100BF4004FF40070002100F037FE0DE07B68124ACC
:100C0400934209D14FF48060012100F02DFE4FF48E
:100C14008060002100F028FE0837BD4680BD00BF7B
:100C2400000002400004024000080240000C0240A0
:100C3400001002400014024000180240001C024050
:100C440000200240002402400028024080B487B003
:100C540000AF7860396000237B6100233B6100238F
:100C6400FB6000237B6176E07B69012202FA03F3D7
:100C74003B613B681A683B691340FB60FA683B6957
:100C84009A4265D17B681A687B695B001946032325
:100C94008B40DB431A407B681A607B681A683B68A8
:100CA4001B7919467B695B0001FA03F31A437B68DD
:100CB4001A603B681B79012B03D03B681B79022B1C
:100CC4002ED17B689A687B695B00194603238B40AD
:100CD400DB431A407B689A607B689A683B685B795F
:100CE40019467B695B0001FA03F31A437B689A6037
:100CF4007B685A687B699BB2194601238B40DB43AE
:100D04001A407B685A607B685B683A68927911463E
:100D14007A6992B201FA02F292B21A437B685A607B
:100D24007B68DA687B699BB25B00032101FA03F3F9
:100D3400DB431A407B68DA607B68DA683B68DB79FE
:100D440019467B695B0001FA03F31A437B68DA6096
:100D54007B6901337B617B690F2B85D91C37BD46C9
:100D64005DF8047B704700BF80B483B000AF786047
:100D74007B684FF6FF721A607B6800221A717B68E9
:100D840000225A717B6800229A717B680022DA7112
:100D94000C37BD465DF8047B704700BF80B485B056
:100DA40000AF78600B467B804FF48033FB607A8819
:100DB400FB681343FB60FA687B68DA617A887B68B6
:100DC400DA61FA687B68DA617B68DB69FB607B68FF
:100DD400DB69FB601437BD465DF8047B704700BFD8
:100DE40080B485B000AF78600B467B800023FB7332
:100DF4007B681A697B881340002B02D00123FB73A4
:100E040001E00023FB73FB7B18461437BD465DF8F5
:100E1400047B704780B483B000AF78607B681B6943
:100E24009BB218460C37BD465DF8047B704700BF83
:100E340080B485B000AF78600B467B800023FB73E1
:100E44007B685A697B881340002B02D00123FB7313
:100E540001E00023FB73FB7B18461437BD465DF8A5
:100E6400047B704780B483B000AF78607B685B69B3
:100E74009BB218460C37BD465DF8047B704700BF33
:100E840080B483B000AF78600B467B807B687A883F
:100E94001A830C37BD465DF8047B704780B483B079
:100EA40000AF78600B467B807B687A885A830C3766
:100EB400BD465DF8047B704780B483B000AF7860B2
:100EC4000B467B8013467B707B78002B03D07B68BA
:100ED4007A881A8302E07B687A885A830C37BD4685
:100EE4005DF8047B704700BF80B483B000AF7860C6
:100EF4000B467B807A887B685A610C37BD465DF867
:100F0400047B704780B483B000AF78600B467B806D
:100F14007B685A697B885A407B685A610C37BD46A6
:100F24005DF8047B704700BF80B485B000AF786083
:100F34000B467B8013467B700023FB600023BB6061
:100F44007B787A8802F0070292009340FB607B88EA
:100F5400DB089BB218467B88DB089BB21A467B6889
:100F6400083253F822207B8803F007039B001946BC
:100F74000F238B40DB4302EA03017B6800F1080284
:100F840043F822107B88DB089BB21A467B68083240
:100F940053F82220FB681343BB607B88DB089BB2B9
:100FA4001A467B680832B96843F822101437BD46E4
:100FB4005DF8047B704700BF80B400AF164A164B3F
:100FC4001B6843F001031360134B00229A60124A1A
:100FD400114B1B6823F0A85323F4102313600E4B0A
:100FE4000E4A5A600C4B0E4AC3F884200A4B0D4A31
:100FF400C3F88820084A084B1B6823F48023136035
:10100400054B0022DA60044B0022C3F88C20BD4655
:101014005DF8047B704700BF0038024010300024A4
:10102400003000200030002480B483B000AF0346B9
:10103400FB71054B00221A70034AFB7913700C37BD
:10104400BD465DF8047B70470238024080B582B02B
:1010540000AF00233B600023FB710023BB713120F0
:1010640000F070FD0346BB713B6801333B603B6895
:10107400B3F5A04F02D0BB79002BF0D0312000F0A3
:1010840061FD0346002B02D00123FB7101E0002324
:10109400FB71FB7918460837BD4680BD80B485B026
:1010A40000AF0346FB710023FB600A4B1B68FB6027
:1010B400FB6823F0F803FB60FB79DB00FA68134359
:1010C400FB60044AFB6813601437BD465DF8047B7B
:1010D400704700BF0038024080B483B000AF0346BD
:1010E400FB71044AFB7913600C37BD465DF8047B41
:1010F400704700BF0000474280B483B000AF03468E
:10110400FB710C4B00221A700A4B00221A70FB79F7
:10111400012B02D0042B04D007E0064B01221A70E5
:1011240003E0044B05221A7000BF0C37BD465DF87E
:10113400047B70477038024080B483B000AF03462C
:10114400FB71044AFB7913600C37BD465DF8047BE0
:10115400704700BF800E474280B485B000AFF8608E
:10116400B9607A603B600A497B689A01BB681A439C
:101174003B685B08013B1B041A43FB681A43BB69C9
:101184001B0613434B601437BD465DF8047B704760
:101194000038024080B483B000AF0346FB71044AB8
:1011A400FB7913600C37BD465DF8047B704700BFC4
:1011B4006000474280B483B000AF7860396006496C
:1011C4007B689A013B681B071343C1F884300C37D2
:1011D400BD465DF8047B70470038024080B483B09C
:1011E40000AF0346FB71044AFB7913600C37BD461C
:1011F4005DF8047B704700BF6800474280B485B047
:1012040000AFF860B9607A600749FB689A01BB686F
:101214001B061A437B681B071343C1F88830143735
:10122400BD465DF8047B70470038024080B483B04B
:1012340000AF0346FB71044AFB7913600C37BD46CB
:101244005DF8047B704700BF7000474280B483B0F0
:1012540000AF0346FB71044AFB7913600C37BD46AB
:101264005DF8047B704700BF4C00474280B485B0F2
:1012740000AF786039600023FB600A4B9B68FB6019
:10128400FB6823F0EC63FB607A683B681343FA68FD
:101294001343FB60034AFB6893601437BD465DF853
:1012A400047B70470038024080B485B000AF78609A
:1012B40039600023FB600A4B9B68FB60FB6823F0EA
:1012C4007843FB607A683B681343FA681343FB6016
:1012D400034AFB6893601437BD465DF8047B70478E
:1012E4000038024080B485B000AF78600023FB6012
:1012F400094B9B68FB60FB6823F00303FB60FA68FF
:101304007B681343FB60044AFB6893601437BD4653
:101314005DF8047B704700BF0038024080B400AF22
:10132400054B9B68DBB203F00C03DBB21846BD46E9
:101334005DF8047B704700BF0038024080B485B07C
:1013440000AF78600023FB60094B9B68FB60FB687F
:1013540023F0F003FB60FA687B681343FB60044AE4
:10136400FB6893601437BD465DF8047B704700BF8B
:101374000038024080B485B000AF78600023FB6081
:10138400094B9B68FB60FB6823F4E053FB60FA683D
:101394007B681343FB60044AFB6893601437BD46C3
:1013A4005DF8047B704700BF0038024080B485B00C
:1013B40000AF78600023FB60094B9B68FB60FB680F
:1013C40023F46043FB607B68DB00FA681343FB6033
:1013D400034AFB6893601437BD465DF8047B70478D
:1013E4000038024080B489B000AF78600023BB614C
:1013F40000237B610023FB6102233B610023FB602C
:101404000223BB60484B9B6803F00C03BB61BB69C0
:10141400042B07D0082B09D0002B3FD17B68434A0B
:101424001A603FE07B68424A1A603BE03E4B5B68CF
:1014340003F480039B0DFB603B4B5B6803F03F03AD
:10144400BB60FB68002B0DD0394ABB68B2FBF3F2DA
:10145400354B596847F6C0730B409B0903FB02F3F5
:10146400FB610CE0314ABB68B2FBF3F22E4B5968C6
:1014740047F6C0730B409B0903FB02F3FB612A4B45
:101484005B6803F440331B0C01335B003B61FA6976
:101494003B69B2FBF3F27B681A6003E07B68234A82
:1014A4001A6000BF204B9B6803F0F003BB61BB696B
:1014B4001B09BB611F4ABB6913441B78DBB27B6108
:1014C4007B681A687B69DA407B685A60164B9B68B4
:1014D40003F4E053BB61BB699B0ABB61154ABB695A
:1014E40013441B78DBB27B617B685A687B69DA4002
:1014F4007B689A600C4B9B6803F46043BB61BB69D7
:101504005B0BBB610B4ABB6913441B78DBB27B6189
:101514007B685A687B69DA407B68DA602437BD46A9
:101524005DF8047B704700BF003802400024F400DB
:1015340000127A004C00002080B485B000AF7860BF
:101544000023FB607B6803F44073B3F5407F11D143
:101554000F4B9B68FB60FB6823F4F813FB607B680C
:1015640023F0704323F44073FA681343FB60084A82
:10157400FB6893600649064B1A6F7B68C3F30B0341
:1015840013430B671437BD465DF8047B704700BFF7
:101594000038024080B483B000AF0346FB71044AB4
:1015A400FB7913600C37BD465DF8047B704700BFC0
:1015B4003C0E474280B483B000AF0346FB71044A3B
:1015C400FB7913600C37BD465DF8047B704700BFA0
:1015D400400E474280B483B000AF7860034A7B6812
:1015E40013600C37BD465DF8047B70475C014742CD
:1015F40080B485B000AF78600023FB600A4BD3F859
:101604008C30FB60FB6823F44013FB60FA687B6852
:101614001343FB60044AFB68C2F88C301437BD46A0
:101624005DF8047B704700BF0038024080B485B089
:1016340000AF78600023FB600A4BD3F88C30FB606A
:10164400FB6823F44003FB60FA687B681343FB6088
:10165400044AFB68C2F88C301437BD465DF8047B3D
:10166400704700BF0038024080B485B000AF786096
:101674000023FB600A4BD3F88C30FB60FB6823F03B
:101684001F03FB607B68013BFA681343FB60044A59
:10169400FB68C2F88C301437BD465DF8047B704794
:1016A4000038024080B485B000AF78600023FB604E
:1016B4000B4BD3F88C30FB60FB6823F4F853FB60CE
:1016C4007B68013B1B02FA681343FB60044AFB6816
:1016D400C2F88C301437BD465DF8047B704700BFF8
:1016E4000038024080B485B000AF78600023FB600E
:1016F4000A4BD3F88C30FB60FB6823F44033FB6067
:10170400FA687B681343FB60044AFB68C2F88C30B8
:101714001437BD465DF8047B704700BF00380240B3
:1017240080B483B000AF7860034A7B6813600C37E1
:10173400BD465DF8047B7047E011474280B483B036
:1017440000AF78600B46FB70FB78002B06D009498C
:10175400084B1A6B7B6813430B6306E00549054B82
:101764001A6B7B68DB4313400B630C37BD465DF893
:10177400047B70470038024080B483B000AF7860C7
:101784000B46FB70FB78002B06D00949084B5A6BBB
:101794007B6813434B6306E00549054B5A6B7B6832
:1017A400DB4313404B630C37BD465DF8047B704745
:1017B4000038024080B483B000AF78600B46FB7001
:1017C400FB78002B06D00949084B9A6B7B681343BE
:1017D4008B6306E00549054B9A6B7B68DB4313403A
:1017E4008B630C37BD465DF8047B704700380240BC
:1017F40080B483B000AF78600B46FB70FB78002B9D
:1018040006D00949084B1A6C7B6813430B6406E045
:101814000549054B1A6C7B68DB4313400B640C379A
:10182400BD465DF8047B70470038024080B483B045
:1018340000AF78600B46FB70FB78002B06D009499B
:10184400084B5A6C7B6813434B6406E00549054B0F
:101854005A6C7B68DB4313404B640C37BD465DF820
:10186400047B70470038024080B483B000AF7860D6
:101874000B46FB70FB78002B06D00949084B1A690C
:101884007B6813430B6106E00549054B1A697B68C5
:10189400DB4313400B610C37BD465DF8047B704796
:1018A4000038024080B483B000AF78600B46FB7010
:1018B400FB78002B06D00949084B5A697B6813430F
:1018C4004B6106E00549054B5A697B68DB431340CD
:1018D4004B610C37BD465DF8047B7047003802400D
:1018E40080B483B000AF78600B46FB70FB78002BAC
:1018F40006D00949084B9A697B6813438B6106E05B
:101904000549054B9A697B68DB4313408B610C37AF
:10191400BD465DF8047B70470038024080B483B054
:1019240000AF78600B46FB70FB78002B06D00949AA
:10193400084B1A6A7B6813430B6206E00549054BA2
:101944001A6A7B68DB4313400B620C37BD465DF8B3
:10195400047B70470038024080B483B000AF7860E5
:101964000B46FB70FB78002B06D00949084B5A6ADA
:101974007B6813434B6206E00549054B5A6A7B6852
:10198400DB4313404B620C37BD465DF8047B704764
:101994000038024080B483B000AF78600B46FB701F
:1019A400FB78002B06D00949084B1A6D7B6813435A
:1019B4000B6506E00549054B1A6D7B68DB43134054
:1019C4000B650C37BD465DF8047B70470038024058
:1019D40080B483B000AF78600B46FB70FB78002BBB
:1019E40006D00949084B5A6D7B6813434B6506E0E2
:1019F4000549054B5A6D7B68DB4313404B650C3737
:101A0400BD465DF8047B70470038024080B483B063
:101A140000AF78600B46FB70FB78002B06D00949B9
:101A2400084B9A6D7B6813438B6506E00549054BAB
:101A34009A6D7B68DB4313408B650C37BD465DF8BC
:101A4400047B70470038024080B483B000AF7860F4
:101A54000B46FB70FB78002B06D00949084B1A6E25
:101A64007B6813430B6606E00549054B1A6E7B68D9
:101A7400DB4313400B660C37BD465DF8047B7047AF
:101A84000038024080B483B000AF78600B46FB702E
:101A9400FB78002B06D00949084B5A6E7B68134328
:101AA4004B6606E00549054B5A6E7B68DB431340E1
:101AB4004B660C37BD465DF8047B70470038024026
:101AC40080B483B000AF0346FB71FB79012B06D1D0
:101AD400084A084B1B6F43F00803136705E0054AE7
:101AE400044B1B6F23F0080313670C37BD465DF8E6
:101AF400047B70470038024080B483B000AF0346D3
:101B04000A46FB711346BB71BB79002B08D00C4904
:101B14000B4B1B78DAB2FB791343DBB20B7009E091
:101B24000749074B1B78DAB2FB79DB43DBB213407E
:101B3400DBB20B700C37BD465DF8047B704700BF09
:101B44000D38024080B487B000AF0346FB71002318
:101B5400FB6000237B610023FB74FB795B09DBB230
:101B6400FB60FB68012B03D1124B1B687B6109E00E
:101B7400FB68022B03D10F4B1B6F7B6102E00D4B03
:101B84005B6F7B61FB7903F01F03FB60FB687A6981
:101B940022FA03F303F00103002B02D00123FB74A8
:101BA40001E00023FB74FB7C18461C37BD465DF83E
:101BB400047B70470038024080B400AF044A044BF1
:101BC4005B6F43F080735367BD465DF8047B7047D9
:101BD4000038024080B485B000AF0346FB71002397
:101BE400FB73094BDA68FB791340002B02D0012305
:101BF400FB7301E00023FB73FB7B18461437BD46DF
:101C04005DF8047B704700BF0038024080B483B0A5
:101C140000AF0346FB71044AFB7913700C37BD46D1
:101C24005DF8047B704700BF0E38024080B582B077
:101C340000AF78607B683A4A934208D110200121B2
:101C4400FFF78AFE10200021FFF786FE65E07B681F
:101C5400344A93420AD14FF400300121FFF75EFE6B
:101C64004FF400300021FFF759FE56E07B682E4AFE
:101C740093420AD14FF480200121FFF74FFE4FF425
:101C840080200021FFF74AFE47E07B68274A934201
:101C94000AD14FF400200121FFF740FE4FF4002049
:101CA4000021FFF73BFE38E07B68214A93420AD1CA
:101CB4004FF480100121FFF731FE4FF48010002112
:101CC400FFF72CFE29E07B681A4A934208D12020B2
:101CD4000121FFF741FE20200021FFF73DFE1CE01B
:101CE4007B68154A93420AD14FF080400121FFF7E7
:101CF40015FE4FF080400021FFF710FE0DE07B68D9
:101D04000E4A934209D14FF000400121FFF706FE2D
:101D14004FF000400021FFF701FE0837BD4680BDAB
:101D2400001001400044004000480040004C0040C6
:101D3400005000400014014000780040007C004046
:101D440080B58AB000AF7860396000237B620023DD
:101D54003B620023FB610023BB617B681B8A9BB24F
:101D64007B627B6A23F440537B623B68DB881A46C0
:101D74007B6A13437B627B6A9AB27B681A827B68B4
:101D84009B899BB27B627B6A23F4B05323F00C03E0
:101D94007B623B689A883B681B8913439AB23B6811
:101DA4005B8913439BB21A467B6A13437B627B6A4B
:101DB4009AB27B689A817B689B8A9BB27B627B6ABE
:101DC40023F440737B623B689B891A467B6A134306
:101DD4007B627B6A9AB27B689A8207F10803184691
:101DE400FFF700FB7B68314A934203D07B68304A9B
:101DF400934202D17B693B6201E03B693B627B68B1
:101E04009B899BB29BB21BB2002B0CDA3A6A134635
:101E14009B0013449A001A443B681B685B00B2FBA6
:101E2400F3F3FB610BE03A6A13469B0013449A00F8
:101E34001A443B681B689B00B2FBF3F3FB61FB692C
:101E44001C4AA2FB03235B091B017B627B6A1B09FF
:101E5400642202FB03F3FA69D31ABB617B689B8992
:101E64009BB29BB21BB2002B0CDABB69DB00323392
:101E7400104AA2FB03235B0903F007037A6A1343A6
:101E84007B620BE0BB691B0132330A4AA2FB0323CA
:101E94005B0903F00F037A6A13437B627B6A9AB28D
:101EA4007B681A812837BD4680BD00BF0010014001
:101EB400001401401F85EB5180B483B000AF7860FB
:101EC4007B684FF416521A607B6800229A807B6804
:101ED4000022DA807B6800221A817B680C225A81F6
:101EE4007B6800229A810C37BD465DF8047B7047FD
:101EF40080B485B000AF786039600023FB607B68F4
:101F04001B8A9BB2FB60FB6823F47063FB603B6835
:101F14001A883B685B8813439AB23B689B881343D7
:101F24009AB23B68DB8813439BB21A46FB6813439F
:101F3400FB60FB689AB27B681A821437BD465DF871
:101F4400047B704780B483B000AF78607B68002264
:101F54001A807B6800225A807B6800229A807B6802
:101F64000022DA800C37BD465DF8047B704700BF61
:101F740080B483B000AF78600B46FB70FB78002B15
:101F840008D07B689B899BB243F400539AB27B6868
:101F94009A8107E07B689B899BB223F400539AB231
:101FA4007B689A810C37BD465DF8047B704700BF9F
:101FB40080B483B000AF78600B46FB707B681B8BEA
:101FC4009BB223F0FF039AB27B681A837B681B8B56
:101FD4009AB2FB789BB213439AB27B681A830C378C
:101FE400BD465DF8047B704780B483B000AF786071
:101FF4000B46FB70FB78002B0AD07B689B899BB255
:102004006FEA43436FEA53439AB27B689A8107E0CD
:102014007B689B899BB2C3F30E039AB27B689A8157
:102024000C37BD465DF8047B704700BF80B483B0B5
:1020340000AF78600B46FB70FB78002B08D07B6800
:102044009B8A9BB243F400639AB27B689A8207E04E
:102054007B689B8A9BB223F400639AB27B689A8262
:102064000C37BD465DF8047B704700BF80B483B075
:1020740000AF78600B467B807B88C3F308039AB279
:102084007B689A800C37BD465DF8047B704700BFBF
:1020940080B483B000AF78607B689B889BB2C3F345
:1020A40008039BB218460C37BD465DF8047B7047A5
:1020B40080B483B000AF78600B46FB707B681B8AEA
:1020C4009BB223F00F039AB27B681A827B681B8A47
:1020D4009AB2FB789BB213439AB27B681A820C378C
:1020E400BD465DF8047B704780B483B000AF786070
:1020F4000B46FB70FB78002B08D07B689B899BB256
:1021040043F002039AB27B689A8107E07B689B895B
:102114009BB223F002039AB27B689A810C37BD46C6
:102124005DF8047B704700BF80B483B000AF786073
:102134000B467B807B689B899BB223F400639AB235
:102144007B689A817B689B899AB27B8813439AB295
:102154007B689A810C37BD465DF8047B704700BFED
:1021640080B483B000AF78600B467B807B681B8AA9
:102174009BB223F020039AB27B681A827B681B8A85
:102184009AB27B8813439AB27B681A820C37BD4695
:102194005DF8047B704700BF80B483B000AF786003
:1021A4000B46FB70FB78002B08D07B681B8A9BB224
:1021B40043F480439AB27B681A8207E07B681B8AE7
:1021C4009BB223F480439AB27B681A820C37BD46D3
:1021D4005DF8047B704700BF80B483B000AF7860C3
:1021E4007B689B899BB243F001039AB27B689A8116
:1021F4000C37BD465DF8047B704700BF80B483B0E4
:1022040000AF78600B46FB70FB78002B08D07B682E
:102214009B8A9BB243F008039AB27B689A8207E0D8
:102224007B689B8A9BB223F008039AB27B689A82EC
:102234000C37BD465DF8047B704700BF80B483B0A3
:1022440000AF78600B46FB707B681B8B9BB2DBB2E4
:102254009AB27B681A837B681B8B9AB2FB789BB219
:102264001B029BB213439AB27B681A830C37BD4698
:102274005DF8047B704700BF80B483B000AF786022
:102284000B46FB70FB78002B08D07B689B8A9BB2C3
:1022940043F020039AB27B689A8207E07B689B8AAA
:1022A4009BB223F020039AB27B689A820C37BD4616
:1022B4005DF8047B704700BF80B483B000AF7860E2
:1022C4000B46FB70FB78002B08D07B689B8A9BB283
:1022D40043F010039AB27B689A8207E07B689B8A7A
:1022E4009BB223F010039AB27B689A820C37BD46E6
:1022F4005DF8047B704700BF80B483B000AF7860A2
:102304000B467B807B689B8A9BB223F004039AB2C2
:102314007B689A827B689B8A9AB27B8813439AB2C1
:102324007B689A820C37BD465DF8047B704700BF1A
:1023340080B483B000AF78600B46FB70FB78002B51
:1023440008D07B689B8A9BB243F002039AB27B68F5
:102354009A8207E07B689B8A9BB223F002039AB2BD
:102364007B689A820C37BD465DF8047B704700BFDA
:1023740080B483B000AF78600B467B8013467B70DB
:102384007B78002B08D07B689B8A9AB27B881343A6
:102394009AB27B689A8209E07B689B8A9AB27B88AE
:1023A400DB439BB213409AB27B689A820C37BD46DA
:1023B4005DF8047B704700BF80B487B000AF7860DD
:1023C4000B467B8013467B7000233B610023FB603C
:1023D4000023BB6000237B617B687B617B88DBB26D
:1023E4005B09DBB23B617B8803F01F03FB60FB6886
:1023F400012202FA03F3BB603B69012B03D17B6921
:102404000C337B6109E03B69022B03D17B691033F8
:102414007B6102E07B6914337B617B78002B06D0FF
:102424007B697A691168BA680A431A6006E07B69B5
:102434007A691168BA68D2430A401A601C37BD46EB
:102444005DF8047B704700BF80B485B000AF78604E
:102454000B467B800023FB737B681B889AB27B88C6
:1024640013409BB2002B02D00123FB7301E0002335
:10247400FB73FB7B18461437BD465DF8047B70473D
:1024840080B483B000AF78600B467B807B88DB43ED
:102494009AB27B681A800C37BD465DF8047B70479E
:1024A40080B487B000AF78600B467B800023FB606C
:1024B40000237B610023BB600023FB747B88DBB2B9
:1024C4005B09DBB2BB607B8803F01F037B617B6924
:1024D400012202FA03F37B61BB68012B07D17B68FD
:1024E4009B899BB21A467B6913407B6111E0BB68F0
:1024F400022B07D17B681B8A9BB21A467B69134067
:102504007B6106E07B689B8A9BB21A467B69134019
:102514007B617B881B0A9BB2FB60FB68012202FA89
:1025240003F3FB607B681B889BB21A46FB6813406D
:10253400FB607B69002B05D0FB68002B02D00123D4
:10254400FB7401E00023FB74FB7C18461C37BD467A
:102554005DF8047B704700BF80B485B000AF78603D
:102564000B467B800023FB810023BB817B881B0AF5
:10257400FB81FB89012202FA03F3BB81BB89DB43A4
:102584009AB27B681A801437BD465DF8047B7047A5
:10259400007A030A000000000000000001020304A6
:1025A40006070809D4D4BED49FA9D4D4BED48E9F20
:1025B400D4D46A7E9FA9BE77777E9F8E9F00000049
:1025C40009030C0C0C1809030C0C0C1809030C0C53
:1025D4000C0C0C09030C0C0C18000000000000008B
:0C25E400010203040102030406070809B9
:1025F00000000000000000000000000000000000DB
:1026000000000000000000000000000000000000CA
:1026100000000000000000000000000000000000BA
:1026200000000000000000000000000000000000AA
:0829F00030000020140000205B
:0C29F800000000000000000000000000D3
:0400000508000135B9
:00000001FF
