:020000040800F2
:10000000040D0020390100088D0100088D01000851
:100010008D0100088D0100088D010008000000001E
:100020000000000000000000000000008D0100083A
:100030008D010008000000008D0100088D010008FE
:100040008D0100088D0100088D0100088D01000858
:100050008D0100088D010008450300088D0100088E
:1000600089030008CD030008110400088D01000871
:100070008D0100088D0100088D0100088D01000828
:100080008D0100088D0100088D0100088D01000818
:100090008D0100088D0100088D0100088D01000808
:1000A0008D0100088D0100088D0100088D010008F8
:1000B0008D010008190300088D0100088D0100085A
:1000C0008D0100088D0100088D0100088D010008D8
:1000D0008D010008E51600088D0100088D0100085B
:1000E0008D0100088D0100088D0100088D010008B8
:1000F0008D0100088D0100088D0100088D010008A8
:100100008D0100088D010008550400088D010008CC
:100110008D0100088D0100088D0100088D01000887
:100120008D0100088D0100088D0100088D01000877
:040130005FF808F17B
:1001380080B582B000AF104B7B60104B3B6007E08E
:100148003B681A1D3A607A68111D796012681A6056
:100158003B680B4A9342F3D30C480D494FF0000219
:100168008842B8BF40F8042BFADB00F0EBF900F046
:1001780011F80837BD4680BD28C8000800000020D7
:100188000409002080B400AFFEE70000040D002041
:10019800C80D002080B588B002AF786039600023B0
:1001A800FB7500F063FB4FF47A7000F0FFFB354BF2
:1001B800DB6934489847FB7D0B2B50D801A252F8D5
:1001C80023F000BFFD010008070200080F02000825
:1001D80017020008210200082B0200083502000857
:1001E8003F0200084902000853020008670200089D
:1001F8005D0200084FF6FF7001F040F82FE0002084
:1002080001F03CF82BE01F2001F038F827E04FF40C
:10021800784001F033F822E04FF61F0001F02EF885
:100228001DE04FF4FC6001F029F818E047F6FF7074
:1002380001F024F813E04FF6E07001F01FF80EE02B
:100248004FF6074001F01AF809E048F2304001F093
:1002580015F804E04BF6404001F010F800BF4FF4E9
:1002680078430093002000213222322300F0BEFFA1
:10027800FB7D0133FB75FB7D0C2B01D10023FB7546
:1002880091E700BF840D002080B582B000AF03461F
:10029800FB71FB79032B2FD801A252F823F000BF82
:1002A800B9020008D1020008E9020008F9020008B2
:1002B800134BDB6912489847124B1B880A339BB2D1
:1002C800184601F035F917E00D4BDB690C489847E3
:1002D8000C4B1B880A3B9BB2184601F029F90BE02E
:1002E800094B1B8832339BB2184601F00BF903E027
:1002F800064B9B69984700BF0837BD4680BD00BFC5
:10030800A40D00200000002002000020680D00203D
:1003180080B500AF0748012105F0CAFE0346012B4E
:1003280003D1054BDB69044898470248012105F0D1
:10033800E9FE80BD00040040840D002080B500AFB8
:100348000A2000F033FB032000F0C4FC0346012B15
:100358000ED1094BDB6908489847084B1B880A33BC
:100368009AB2064B1A80054B1B88184601F0E0F834
:10037800012002F0B3FD80BDA40D00200000002084
:1003880080B500AF0A2000F011FB022000F0A2FCAB
:100398000346002B0ED1094BDB6908489847084BE8
:1003A8001B880A3B9AB2064B1A80054B1B881846D5
:1003B80001F0BEF8042002F091FD80BDA40D0020DC
:1003C8000000002080B500AF0A2000F0EFFA0120FD
:1003D80000F080FC0346002B0ED1094BDB6908486E
:1003E8009847084B1B8832339AB2064B1A80054B44
:1003F8001B88184601F086F8082002F06FFD80BDC2
:10040800A40D00200200002080B500AF0A2000F0F3
:10041800CDFA002000F05EFC0346002B0ED1094BFC
:10042800DB6908489847084B1B88323B9AB2064B51
:100438001A80054B1B88184601F064F8102002F05A
:100448004DFD80BDA40D00200200002080B582B0C3
:1004580000AF384B1B78032B63D801A252F823F066
:100468002B05000879040008AB0400082B050008D8
:100478003148022105F01CFE0346012B10D12E48FD
:10048800002104F01FFD2C48022105F079FA2B4BBE
:1004980000221A60274B02221A7000F0BFFB41E0CD
:1004A80040E02548022105F003FE0346012B12D146
:1004B80000F0CCFB7860786800F0D6FB0246204B51
:1004C8001A601D48002105F05BFA1A4B00221A70C9
:1004D8001A4B00221A601848012105F0E9FD03466D
:1004E800012B1DD1154B1B68142B13D900F0AEFB43
:1004F8000346184600F0B8FB0246114B1A600E4836
:10050800002105F03DFA0B4B03221A700B4B002219
:100518001A6005E0094B1B680133084A136001E0C3
:1005280000E000BF0448032105F0ECFD0837BD4694
:1005380080BD00BF040D0020000C00400C0D002001
:10054800080D002080B500AF114A114B1B6843F01D
:10055800010313600E4B00229A600D4A0C4B1B6876
:1005680023F0847323F480331360094B094A5A60DB
:10057800074A074B1B6823F480231360044B0022AF
:10058800DA6000F087F8044B4FF000629A6080BD93
:10059800003802401030002400ED00E080B487B03D
:1005A80000AF00233B6100237B610223FB60002333
:1005B800BB6002237B60324B9B6803F00C033B61FA
:1005C8003B69042B07D0082B09D0002B3FD12D4BBA
:1005D8002D4A1A603FE02B4B2C4A1A603BE0284B0F
:1005E8005B6803F480039B0DBB60254B5B6803F0DD
:1005F8003F037B60BB68002B0DD0244A7B68B2FBAD
:10060800F3F21F4B596847F6C0730B409B0903FB75
:1006180002F37B610CE01C4A7B68B2FBF3F2184BD7
:10062800596847F6C0730B409B0903FB02F37B61D3
:10063800134B5B6803F440331B0C01335B00FB6016
:100648007A69FB68B2FBF3F30E4A136003E00D4BC3
:100658000D4A1A6000BF0A4B9B6803F0F0031B09A0
:100668000B4AD35CDBB23B61064B1A683B6922FA42
:1006780003F3044A13601C37BD465DF8047B7047DA
:1006880000380240040000200024F40000127A0020
:100698000800002080B483B000AF00237B600023F3
:1006A8003B60354A344B1B6843F480331360324B4C
:1006B8001B6803F400333B607B6801337B603B6855
:1006C800002B03D17B68B3F5A04FF0D12A4B1B68F0
:1006D80003F40033002B02D001233B6001E0002328
:1006E8003B603B68012B42D1234A234B1B6C43F0F0
:1006F80080531364214A214B1B6843F44043136021
:100708001D4A1D4B9B6893601B4A1B4B9B6843F417
:1007180000439360184A184B9B6843F4A0539360B6
:10072800154B174A5A60144A134B1B6843F08073E1
:10073800136000BF104B1B6803F00073002BF9D047
:10074800104B40F205721A600B4A0B4B9B6823F062
:1007580003039360084A084B9B6843F002039360C5
:1007680000BF054B9B6803F00C03082BF9D10C372D
:10077800BD465DF8047B70470038024000700040B9
:1007880008544007003C024080B500AF1D4B4FF4B1
:1007980000721A801B4B1C4A5A601A4B1B4A9A60FB
:1007A800184B1B4ADA60174B1A4A1A61154B1A4A3A
:1007B8005A61144B194A9A61124B194ADA61114B62
:1007C8005B6810489847174B4FF480621A80154BA6
:1007D8000D4A5A60134B0D4A9A60124B0C4ADA6064
:1007E800104B0C4A1A610F4B0B4A5A610D4B0B4ABE
:1007F8009A610C4B0A4ADA610A4B5B6809489847C8
:1008080080BD00BF840D00200D130008B51300083B
:10081800CD1300085513000891130008E5130008CC
:1008280019140008A40D002080B500AF094B0A4A2E
:100838009A60084B094ADA60064B094A1A61054B67
:10084800084A5A61034B084A9A61024B9B689847C9
:1008580080BD00BF680D0020110A0008550A000875
:10086800690A00087D0A0008E90A000880B500AF97
:100878004FF4A06002F078F9A82000F00DF84FF4CA
:10088800E13000F0CFFEFFF77FFFFFF7CDFF00F06C
:10089800F9F900F077FC80BD80B582B000AF03465F
:1008A800FB716FF0040002F007FAFB79DB08DAB29B
:1008B800084B1A70074B1B789BB21A465201D21A82
:1008C80092001344DB009AB2034B1A800837BD46E6
:1008D80080BD00BF1C0D00201E0D002080B485B017
:1008E80000AF7860154A164B1B7819467B6803FBE6
:1008F80001F35360114B00229A60104A0F4B1B689A
:1009080043F0010313600D4B1B68FB60FB6803F0A9
:100918000103002B04D0FB6803F48033002BF2D0D2
:10092800064A064B1B6823F001031360034B0022A1
:100938009A601437BD465DF8047B704710E000E00C
:100948001C0D002080B485B000AF0346FB80154A1B
:10095800FB881549098801FB03F35360114B0022FA
:100968009A60104A0F4B1B6843F0010313600D4B4C
:100978001B68FB60FB6803F00103002B04D0FB68D5
:1009880003F48033002BF2D0064A064B1B6823F091
:1009980001031360034B00229A601437BD465DF8CB
:1009A800047B704710E000E01E0D002080B584B085
:1009B80000AF0346FB80FB88124AA2FB03235B0AB5
:1009C8009BB2FB73FB880F4AA2FB0312520A4FF437
:1009D800077101FB02F29B1ABB8106E04FF4077016
:1009E800FFF7B0FFFB7B013BFB73FB7B002BF5D1D3
:1009F800BB89002B03D0BB891846FFF7A3FF10372C
:100A0800BD4680BD49D6B9F280B582B000AF20207E
:100A1800012103F0A5FD4FF480733B6001233B7176
:100A28000023BB7103237B710123FB713B460648FE
:100A3800194603F01DF804484FF4807103F040F99B
:100A48000837BD4680BD00BF0014024080B500AF26
:100A580002484FF4807103F025F980BD001402406C
:100A680080B500AF02484FF4807103F029F980BDCA
:100A78000014024080B584B000AF03463960FB80A3
:100A8800FB883A6802FB03F3144AA2FB03239B0981
:100A9800FB601BE0FFF7DAFFFB884CF2503292FB59
:100AA800F3F213469B0013445B001846FFF716FF4A
:100AB800FFF7D6FFFB884CF2503292FBF3F2134655
:100AC8009B0013445B001846FFF708FFFB685A1E9B
:100AD800FA60002BDED11037BD4680BDD34D6210C1
:100AE80080B582B000AF0023FB800FE0FB880E4A80
:100AF800D35C99B2FB880D4AD35C1A4613469B0017
:100B080013449B0008461946FFF7B4FFFB88064AC2
:100B1800D35C002BEAD1FB88044AD35C002BE5D1D7
:100B28000837BD4680BD00BF1800002034000020F3
:100B380080B582B000AF0120012103F011FD01232F
:100B48003B6002233B7103237B710023BB710223AB
:100B5800FB713B460548194602F08AFF034800210D
:100B6800022203F0F3F80837BD4680BD00000240BA
:100B780080B586B000AF78600820012103F04AFDF7
:100B88005323BB810023FB817B68013B3B6100232E
:100B9800BB8207F10C030348194604F0DFF8183745
:100BA800BD4680BD000C004080B582B000AF0A4849
:100BB8000321012205F01EFA32233B7102237B71C7
:100BC8000023BB710123FB713B1D184601F0DEFFBA
:100BD8000837BD4680BD00BF000C004080B584B01A
:100BE80000AFFFF7A5FF4FF0FF30FFF7C1FF00236D
:100BF800BB800023FB8001233B8100237B810023F2
:100C0800BB813B1D0448194604F0DCFFFFF7CCFF0D
:100C18001037BD4680BD00BF000C004080B500AF56
:100C28000248012104F01CFA80BD00BF000C0040FE
:100C380080B500AF0348002104F012FA024B0022ED
:100C48001A7080BD000C0040040D002080B582B0F1
:100C580000AF044805F07EF878607B6818460837CE
:100C6800BD4680BD000C004080B485B000AF786000
:100C78007B68FB60FB6818461437BD465DF8047B4B
:100C8800704700BF80B582B000AF1120012103F08A
:100C980067FC1C233B6000233B7103237B7101230A
:100CA800FB713B460948194602F0E2FE01233B600E
:100CB80000233B7103237B710223FB713B460448ED
:100CC800194602F0D5FE0837BD4680BD0010024027
:100CD8000000024080B582B000AF0346FB71FB798B
:100CE800032B27D801A252F823F000BF050D0008F6
:100CF800130D0008210D00082F0D000810481021C1
:100D080002F080FF0346DBB215E00D48082102F02F
:100D180079FF0346DBB20EE00948042102F072FFB6
:100D28000346DBB207E00748012102F06BFF0346E8
:100D3800DBB200E0FF235BB218460837BD4680BD32
:100D4800001002400000024080B500AF0020FFF70D
:100D5800C1FF0346002B0AD16420FFF727FE0020BD
:100D6800FFF7B8FF0346002B01D1002333E0012031
:100D7800FFF7B0FF0346002B0AD16420FFF716FEE9
:100D88000120FFF7A7FF0346002B01D1012322E032
:100D98000220FFF79FFF0346002B0AD16420FFF7CC
:100DA80005FE0220FFF796FF0346002B01D1022320
:100DB80011E00320FFF78EFF0346012B0AD16420C0
:100DC800FFF7F4FD0320FFF785FF0346012B01D150
:100DD800032300E0BAE7184680BD00BF80B584B0A1
:100DE80000AF78607B68FB60FFF7AEFF03461A46EA
:100DF800FB68104698471037BD4680BD80B584B063
:100E080000AFFFF73FFF4FF48040012103F020FCC3
:100E18000420022103F04AFE0420032103F046FEC9
:100E28000420042103F042FE0020002103F03EFECE
:100E380001237B6000233B7208237B720123BB7272
:100E48003B1D184601F06EFF1C237B6000233B729C
:100E58000C237B720123BB723B1D184601F062FF15
:100E680006233B7300237B730223BB730123FB73AD
:100E780007F10C03184601F089FE08233B7303238E
:100E88007B730223BB730123FB7307F10C03184622
:100E980001F07CFE09233B7302237B730223BB739F
:100EA8000123FB7307F10C03184601F06FFE0A23B8
:100EB8003B7301237B730223BB730123FB7307F18D
:100EC8000C03184601F062FE1037BD4680BD00BF16
:100ED80080B582B000AF7A20012103F041FB4FF4C6
:100EE80000433B6001233B710023BB7102237B71EC
:100EF8000123FB713B465548194602F0B9FD4CF2F7
:100F080033733B6002233B710023BB7103237B7166
:100F18000123FB713B464E48194602F0A9FD4FF6E6
:100F280080733B6002233B710023BB7103237B71F9
:100F38000123FB713B464748194602F099FD4FF4DF
:100F480080533B6002233B710023BB7103237B71F9
:100F58000123FB713B464048194602F089FD4FF4D6
:100F680080533B6002233B710023BB7103237B71D9
:100F78000123FB713B463948194602F079FD344894
:100F880000210C2202F0E2FE314801210C2202F07D
:100F9800DDFE2F4804210C2202F0D8FE2C48052142
:100FA8000C2202F0D3FE2A4808210C2202F0CEFEC1
:100FB800274809210C2202F0C9FE25480A210C22E3
:100FC80002F0C4FE22480E210C2202F0BFFE204887
:100FD8000F210C2202F0BAFE1E4807210C2202F053
:100FE800B5FE1C4808210C2202F0B0FE1948092160
:100FF8000C2202F0ABFE17480A210C2202F0A6FED2
:1010080014480B210C2202F0A1FE12480C210C22DC
:1010180002F09CFE0F480D210C2202F097FE0D48AD
:101028000E210C2202F092FE0A480F210C2202F037
:101038008DFE09480C210C2202F088FE07480C217D
:101048000C2202F083FE0837BD4680BD0004024032
:10105800000C024000100240001402400018024038
:1010680080B59EB000AF0120012103F0B5FA0F232F
:101078003B6200237B623C23BB620023FB620023AC
:101088003B6300237B630023BB6309237B6000234E
:10109800BB600823FB6000233B6100237B610023C6
:1010A800BB610023FB610623FB6300233B64002331
:1010B8007B641023BB640023FB6400237B6500234F
:1010C8003B650023BB650023FB654FF480533B66FB
:1010D80000237B664FF48043BB660023FB6607F161
:1010E80020033B673B1D7B6707F13C03184601F073
:1010F8002FFF0620012102F031F87837BD4680BD68
:1011080080B500AF02484FF4004102F0CBFD80BD2E
:101118000004024080B500AF02484FF4004102F0DD
:10112800CFFD80BD0004024080B582B000AF00232F
:10113800FB7118E0FB79104A52F823301B68984776
:1011480038603B68002B0BD0FB790B4A52F82330F0
:101158000A4A13600A48396806F0AEFF002306E021
:10116800FB790133FB71FB79002BE3D0FF235BB2E2
:1011780018460837BD4680BD50000020200D0020CD
:1011880010C6000880B500AFFFF7A2FEFFF768FFA2
:10119800FFF7CAFF0346002B0BD1064B1B685B68A1
:1011A8009847FFF7ADFF034B1B685B694FF6FF706D
:1011B800984780BD200D002080B582B000AF03465F
:1011C800FB800B46BB8013467B80074B1B68002BBC
:1011D80006D0054B1B689B68F888B9887A889847B9
:1011E8000837BD4680BD00BF200D0020B0B584B0D3
:1011F80002AF0446084611461A462346FB800346BA
:10120800BB800B467B8013463B80094B1B68002B39
:101218000AD0074B1B68DC68F888B9887A883D884B
:101228003B8B00932B46A0470837BD46B0BD00BF97
:10123800200D0020B0B584B002AF04460846114620
:101248001A462346FB800346BB800B467B80134629
:101258003B80094B1B68002B0AD0074B1B681C6995
:10126800F888B9887A883D88BB6900932B46A047DF
:101278000837BD46B0BD00BF200D002080B582B044
:1012880000AF0346FB80064B1B68002B05D0044BC0
:101298001B685B69FA88104698470837BD4680BDC9
:1012A800200D002080B582B000AF78603960074B10
:1012B8001B68002B05D0054B1B689B69786839684B
:1012C800984718460837BD4680BD00BF200D00204E
:1012D80080B582B000AF03460A46FB801346BB8048
:1012E800074B1B68002B07D0054B1B68DB69F98887
:1012F800BA8808461146984718460837BD4680BD43
:10130800200D002080B584B000AF78602020012136
:1013180003F026F97B681B88BB6001233B7300231D
:10132800BB7303237B730123FB7307F10803064890
:10133800194602F09DFB7B681B880348194602F09A
:10134800B1FC1037BD4680BD0014024080B582B0A4
:1013580000AF78600B46FB70FB78002B06D17B68EA
:101368001B880848194602F0ABFC08E0FB78012B03
:1013780005D17B681B880348194602F093FC08379F
:10138800BD4680BD0014024080B582B000AF7860D1
:101398007B681B880448194602F05CFC0346184623
:1013A8000837BD4680BD00BF0014024080B582B03A
:1013B80000AF78607B681B69786800219847083718
:1013C800BD4680BD80B582B000AF78607B681B6980
:1013D8007868012198470837BD4680BD80B582B03E
:1013E80000AF78600B467B807B689B68786898477D
:1013F8007B881846FFF7DAFA7B68DB6878689847D5
:101408007B881846FFF7D2FA0837BD4680BD00BF73
:1014180080B582B000AF78607B685B697868984770
:101428000346002B04D17B68DB687868984703E0A3
:101438007B689B68786898470837BD4680BD00BFC1
:1014480080B582B000AF2020012103F089F84FF465
:1014580000733B6002233B7103237B710023BB7144
:101468000123FB713B460648194602F001FB04487C
:101478000921092202F06AFC0837BD4680BD00BF79
:101488000014024080B586B000AF0346FB804FF4DD
:101498008070012103F0BEF85323BB810023FB8138
:1014A800FB88013B3B610023BB8207F10C03034827
:1014B800194603F053FC1837BD4680BD0020004094
:1014C80080B586B000AFFFF7BBFF4FF4FA70FFF7A7
:1014D800D9FF6023BB800123FB8002233B823B1D95
:1014E8000748194603F0DCFD0548082104F0ECF82C
:1014F8000348012103F05CFD1837BD4680BD00BFDD
:101508000020004080B582B000AF0346FB80FB8816
:101518004FF6FF72934206D0FB881846FFF7B2FFDA
:10152800024AFB8813800837BD4680BD540000205E
:1015380080B582B000AF0346FB80064B1B88FA8853
:101548009A4204D2FB880448194604F011F8083777
:10155800BD4680BD540000200020004080B500AF8B
:101568000248012103F07CFD80BD00BF002000403F
:1015780080B500AF0248002103F072FD80BD00BFB6
:101588000020004080B586B000AFF860B9607A608E
:1015980000237B6113E000BF0D4B1B889BB203F057
:1015A8008003002BF8D07B69BA6813441B789BB280
:1015B8000748194605F00CFB7B6901337B617A69A2
:1015C8007B689A42E7DB7B6818461837BD4680BDC2
:1015D8000010014090B587B000AFF860B9607A603C
:1015E80000237B6113E000BF0D4B1B889BB203F007
:1015F8002003002BF8D07B69BA68D418084805F096
:10160800F9FA0346DBB223707B6901337B617A699F
:101618007B689A42E7DB7B6818461C37BD4690BD5D
:101628000010014080B58AB000AF78600120012128
:1016380002F096FF1020012103F00AF8254809213D
:10164800072202F083FB23480A21072202F07EFBCF
:101658004FF4C0633B62022387F82430022387F8E3
:101668002530002387F82630012387F8273007F133
:1016780020031848194602F0FBF97B683B610023F8
:10168800BB820023FB8200233B830023BB830C2304
:101698007B8307F110031048194605F003F90E483B
:1016A800012105F017FA0C4840F22551012205F0F6
:1016B80035FC25233B7303237B730323BB7301236F
:1016C800FB7307F10C03184601F060FA2837BD4692
:1016D80080BD00BF000002400010014080B582B00C
:1016E80000AF0F4840F2255105F08CFC0346002B53
:1016F80012D00B4805F07EFA0346FB71FB799BB2CA
:101708000748194605F064FA00BF0548402105F06E
:101718004DFC0346012BF8D10837BD4680BD00BFFC
:101728000010014080B483B000AF03460A46FB8036
:101738001346BB80054AFB881380054ABB88138083
:101748000C37BD465DF8047B704700BF7E00006C17
:101758008000006C80B582B000AF0346FB80064A6B
:10176800FB8813800520FFF7B9F8044B1B889BB250
:1017780018460837BD4680BD7E00006C8000006CAE
:1017880080B400AF034B044AD2881A80BD465DF886
:10179800047B70477E00006C240D002080B582B069
:1017A80000AF03460A46FB801346BB80154B1A89D7
:1017B800FB881B0A9BB210461946FFF7B3FF114B73
:1017C8001B8901339AB2FB88DBB29BB210461946DB
:1017D800FFF7A8FF0B4B5A89BB881B0A9BB2104620
:1017E8001946FFF79FFF074B5B8901339AB2BB8805
:1017F800DBB29BB210461946FFF794FF0837BD4687
:1018080080BD00BF240D002090B583B000AF044612
:10181800084611461A462346FB800346BB800B4602
:101828007B8013463B802B4B1A89FB881B0A9BB293
:1018380010461946FFF776FF264B1B8901339AB2EB
:10184800FB88DBB29BB210461946FFF76BFF214BB2
:101858001B8902339AB27B881B0A9BB21046194631
:10186800FFF760FF1B4B1B8903339AB27B88DBB2FF
:101878009BB210461946FFF755FF164B5A89BB888D
:101888001B0A9BB210461946FFF74CFF114B5B89A8
:1018980001339AB2BB88DBB29BB210461946FFF7F8
:1018A80041FF0C4B5B8902339AB23B881B0A9BB2FF
:1018B80010461946FFF736FF064B5B8903339AB289
:1018C8003B88DBB29BB210461946FFF72BFF0C375B
:1018D800BD4690BD240D002080B582B000AF034600
:1018E800FB800B46BB8013467B80FA88BB8810467A
:1018F8001946FFF753FFFFF743FF034A7B8813801E
:101908000837BD4680BD00BF8000006C80B584B03C
:1019180000AF0346FB80124B1B88013B9AB2104B69
:101928005B88013B9BB200200021FFF76DFFFFF7AA
:1019380027FF0023FB6005E00A4AFB881380FB6849
:101948000133FB60064B1B881A46054B5B8803FB7B
:1019580002F31A46FB689A42EED81037BD4680BD9E
:10196800240D00208000006C80B582B000AF4FF4D9
:101978005A40FFF7EFFE0346FB714FF45B40FFF759
:10198800E9FE0346BB714FF45C40FFF7E3FE0346F4
:101998007B71F979BA797B79094806F08DFBFB7977
:1019A800002B07D1BB79802B04D17B79002B01D187
:1019B800044B00E0002318460837BD4680BD00BF31
:1019C80044C600081055030080B400AF0B4B4FF419
:1019D800F0721A80094B4FF448725A80074B4FF443
:1019E8003052DA80054B4FF428521A81034B4FF4DA
:1019F8002C525A81BD465DF8047B7047240D0020A7
:101A080080B500AF3220FEF7D1FF00200121FFF79B
:101A180089FE3220FEF7CAFF4FF470405521FFF7C8
:101A280081FE4FF20100AA21FFF77CFE4FF202006F
:101A38005221FFF777FE4FF203000821FFF772FEED
:101A48004FF204000121FFF76DFE4FF430400D21E5
:101A5800FFF768FE4BF201000D21FFF763FE4BF222
:101A680002000D21FFF75EFE4FF436403421FFF7E8
:101A780059FE4BF201603421FFF754FE4BF202602D
:101A88003421FFF74FFE4FF431400D21FFF74AFE96
:101A98004BF201100D21FFF745FE4BF202100D210C
:101AA800FFF740FE4FF437403421FFF73BFE4BF27F
:101AB80001703421FFF736FE4BF202703421FFF734
:101AC80031FE4FF432400021FFF72CFE4BF201208B
:101AD8000021FFF727FE4BF202200021FFF722FE2C
:101AE8004FF438402421FFF71DFE4BF60100242156
:101AF800FFF718FE4BF602002421FFF713FE4FF400
:101B08003F400121FFF70EFE4FF433400F21FFF74E
:101B180009FE4BF201300F21FFF704FE4BF20230B1
:101B28000F21FFF7FFFD4FF439403421FFF7FAFD8D
:101B38004BF601103421FFF7F5FD4BF60210342166
:101B4800FFF7F0FD4FF435400821FFF7EBFD4BF2AE
:101B580001500821FFF7E6FD4BF202500821FFF77C
:101B6800E1FD4FF442400321FFF7DCFD4FF43A401A
:101B78002421FFF7D7FD4BF601202421FFF7D2FDE2
:101B88004BF602202421FFF7CDFD4FF43C40002105
:101B9800FFF7C8FD4BF601407821FFF7C3FD4BF670
:101BA80002400021FFF7BEFD4FF43D400021FFF742
:101BB800B9FD4BF601507821FFF7B4FD4BF6025002
:101BC8000021FFF7AFFD4FF43E400021FFF7AAFDCB
:101BD8004BF601606421FFF7A5FD4FF45140002149
:101BE800FFF7A0FD4DF201103321FFF79BFD4DF2E9
:101BF80002100021FFF796FD4DF203103421FFF784
:101C080091FD4DF204100021FFF78CFD4DF20510F7
:101C18003A21FFF787FD4DF206100021FFF782FDFC
:101C28004DF207104A21FFF77DFD4DF20810002103
:101C3800FFF778FD4DF209105C21FFF773FD4DF2B7
:101C48000A100021FFF76EFD4DF20B108121FFF7FE
:101C580069FD4DF20C100021FFF764FD4DF20D10E7
:101C6800A621FFF75FFD4DF20E100021FFF75AFD88
:101C78004DF20F10E521FFF755FD4DF2101001212F
:101C8800FFF750FD4DF211101321FFF74BFD4DF2F8
:101C980012100121FFF746FD4DF213105421FFF7F2
:101CA80041FD4DF214100121FFF73CFD4DF21510D6
:101CB8008221FFF737FD4DF216100121FFF732FDA3
:101CC8004DF21710CA21FFF72DFD4DF21810022111
:101CD800FFF728FD4DF219100021FFF723FD4DF203
:101CE8001A100221FFF71EFD4DF21B100121FFF70C
:101CF80019FD4DF21C100221FFF714FD4DF21D10C5
:101D08003421FFF70FFD4DF21E100221FFF70AFDE7
:101D18004DF21F106721FFF705FD4DF2201002213B
:101D2800FFF700FD4DF221108421FFF7FBFC4DF277
:101D380022100221FFF7F6FC4DF22310A421FFF731
:101D4800F1FC4DF224100221FFF7ECFC4DF22510B6
:101D5800B721FFF7E7FC4DF226100221FFF7E2FC5E
:101D68004DF22710CF21FFF7DDFC4DF2281002219C
:101D7800FFF7D8FC4DF22910DE21FFF7D3FC4DF216
:101D88002A100221FFF7CEFC4DF22B10F221FFF7AB
:101D9800C9FC4DF22C100221FFF7C4FC4DF22D10A6
:101DA800FE21FFF7BFFC4DF22E100321FFF7BAFC0E
:101DB8004DF22F101021FFF7B5FC4DF23010032122
:101DC800FFF7B0FC4DF231103321FFF7ABFC4DF2B9
:101DD80032100321FFF7A6FC4DF233106D21FFF7F7
:101DE800A1FC4FF452400021FFF79CFC4DF201206A
:101DF8003321FFF797FC4DF202200021FFF792FCF8
:101E08004DF203203421FFF78DFC4DF20420002110
:101E1800FFF788FC4DF205203A21FFF783FC4DF2CD
:101E280006200021FFF77EFC4DF207204A21FFF72C
:101E380079FC4DF208200021FFF774FC4DF20920CF
:101E48005C21FFF76FFC4DF20A200021FFF76AFCC6
:101E58004DF20B208121FFF765FC4DF20C2000218B
:101E6800FFF760FC4DF20D20A621FFF75BFC4DF259
:101E78000E200021FFF756FC4DF20F20E521FFF759
:101E880051FC4DF210200121FFF74CFC4DF21120BE
:101E98001321FFF747FC4DF212200121FFF742FC06
:101EA8004DF213205421FFF73DFC4DF2142001217F
:101EB800FFF738FC4DF215208221FFF733FC4DF275
:101EC80016200121FFF72EFC4DF21720CA21FFF73B
:101ED80029FC4DF218200221FFF724FC4DF21920AD
:101EE8000021FFF71FFC4DF21A200221FFF71AFC10
:101EF8004DF21B200121FFF715FC4DF21C20022199
:101F0800FFF710FC4DF21D203421FFF70BFC4DF2BA
:101F18001E200221FFF706FC4DF21F206721FFF764
:101F280001FC4DF220200221FFF7FCFB4DF221209D
:101F38008421FFF7F7FB4DF222200221FFF7F2FB85
:101F48004DF22320A421FFF7EDFB4DF224200221BE
:101F5800FFF7E8FB4DF22520B721FFF7E3FB4DF231
:101F680026200221FFF7DEFB4DF22720CF21FFF7C5
:101F7800D9FB4DF228200221FFF7D4FB4DF229208E
:101F8800DE21FFF7CFFB4DF22A200221FFF7CAFB23
:101F98004DF22B20F221FFF7C5FB4DF22C20022138
:101FA800FFF7C0FB4DF22D20FE21FFF7BBFB4DF2E2
:101FB8002E200321FFF7B6FB4DF22F201021FFF74B
:101FC800B1FB4DF230200321FFF7ACFB4DF231207D
:101FD8003321FFF7A7FB4DF232200321FFF7A2FBC5
:101FE8004DF233206D21FFF79DFB4FF45340002144
:101FF800FFF798FB4DF201303321FFF793FB4DF2C9
:1020080002300021FFF78EFB4DF203303421FFF739
:1020180089FB4DF204300021FFF784FB4DF20530B7
:102028003A21FFF77FFB4DF206300021FFF77AFBDC
:102038004DF207304A21FFF775FB4DF208300021B9
:10204800FFF770FB4DF209305C21FFF76BFB4DF297
:102058000A300021FFF766FB4DF20B308121FFF7B4
:1020680061FB4DF20C300021FFF75CFB4DF20D30A7
:10207800A621FFF757FB4DF20E300021FFF752FB68
:102088004DF20F30E521FFF74DFB4DF210300121E5
:10209800FFF748FB4DF211301321FFF743FB4DF2D8
:1020A80012300121FFF73EFB4DF213305421FFF7A8
:1020B80039FB4DF214300121FFF734FB4DF2153096
:1020C8008221FFF72FFB4DF216300121FFF72AFB83
:1020D8004DF21730CA21FFF725FB4DF218300221C7
:1020E800FFF720FB4DF219300021FFF71BFB4DF2E3
:1020F8001A300221FFF716FB4DF21B300121FFF7C2
:1021080011FB4DF21C300221FFF70CFB4DF21D3084
:102118003421FFF707FB4DF21E300221FFF702FBC7
:102128004DF21F306721FFF7FDFA4DF220300221F2
:10213800FFF7F8FA4DF221308421FFF7F3FA4DF258
:1021480022300221FFF7EEFA4DF22330A421FFF7E7
:10215800E9FA4DF224300221FFF7E4FA4DF2253076
:10216800B721FFF7DFFA4DF226300221FFF7DAFA3E
:102178004DF22730CF21FFF7D5FA4DF22830022152
:10218800FFF7D0FA4DF22930DE21FFF7CBFA4DF2F6
:102198002A300221FFF7C6FA4DF22B30F221FFF761
:1021A800C1FA4DF22C300221FFF7BCFA4DF22D3066
:1021B800FE21FFF7B7FA4DF22E300321FFF7B2FAEE
:1021C8004DF22F301021FFF7ADFA4DF230300321D8
:1021D800FFF7A8FA4DF231303321FFF7A3FA4DF299
:1021E80032300321FFF79EFA4DF233306D21FFF7AD
:1021F80099FA4FF454400021FFF794FA4DF2014048
:102208003321FFF78FFA4DF202400021FFF78AFAD7
:102218004DF203403421FFF785FA4DF204400021C6
:10222800FFF780FA4DF205403A21FFF77BFA4DF2AD
:1022380006400021FFF776FA4DF207404A21FFF7E2
:1022480071FA4DF208400021FFF76CFA4DF209408F
:102258005C21FFF767FA4DF20A400021FFF762FAA6
:102268004DF20B408121FFF75DFA4DF20C40002141
:10227800FFF758FA4DF20D40A621FFF753FA4DF239
:102288000E400021FFF74EFA4DF20F40E521FFF70F
:1022980049FA4DF210400121FFF744FA4DF211407E
:1022A8001321FFF73FFA4DF212400121FFF73AFAE6
:1022B8004DF213405421FFF735FA4DF21440012135
:1022C800FFF730FA4DF215408221FFF72BFA4DF255
:1022D80016400121FFF726FA4DF21740CA21FFF7F1
:1022E80021FA4DF218400221FFF71CFA4DF219406D
:1022F8000021FFF717FA4DF21A400221FFF712FAF0
:102308004DF21B400121FFF70DFA4DF21C4002214E
:10231800FFF708FA4DF21D403421FFF703FA4DF29A
:102328001E400221FFF7FEF94DF21F406721FFF71B
:10233800F9F94DF220400221FFF7F4F94DF221405E
:102348008421FFF7EFF94DF222400221FFF7EAF965
:102358004DF22340A421FFF7E5F94DF22440022174
:10236800FFF7E0F94DF22540B721FFF7DBF94DF211
:1023780026400221FFF7D6F94DF22740CF21FFF77B
:10238800D1F94DF228400221FFF7CCF94DF229404E
:10239800DE21FFF7C7F94DF22A400221FFF7C2F903
:1023A8004DF22B40F221FFF7BDF94DF22C400221EE
:1023B800FFF7B8F94DF22D40FE21FFF7B3F94DF2C2
:1023C8002E400321FFF7AEF94DF22F401021FFF701
:1023D800A9F94DF230400321FFF7A4F94DF231403D
:1023E8003321FFF79FF94DF232400321FFF79AF9A5
:1023F8004DF233406D21FFF795F94FF45540002118
:10240800FFF790F94DF201503321FFF78BF94DF2A8
:1024180002500021FFF786F94DF203503421FFF7EF
:1024280081F94DF204500021FFF77CF94DF2055077
:102438003A21FFF777F94DF206500021FFF772F9BC
:102448004DF207504A21FFF76DF94DF2085000216F
:10245800FFF768F94DF209505C21FFF763F94DF277
:102468000A500021FFF75EF94DF20B508121FFF76A
:1024780059F94DF20C500021FFF754F94DF20D5067
:10248800A621FFF74FF94DF20E500021FFF74AF948
:102498004DF20F50E521FFF745F94DF2105001219B
:1024A800FFF740F94DF211501321FFF73BF94DF2B8
:1024B80012500121FFF736F94DF213505421FFF75E
:1024C80031F94DF214500121FFF72CF94DF2155056
:1024D8008221FFF727F94DF216500121FFF722F963
:1024E8004DF21750CA21FFF71DF94DF2185002217D
:1024F800FFF718F94DF219500021FFF713F94DF2C3
:102508001A500221FFF70EF94DF21B500121FFF777
:1025180009F94DF21C500221FFF704F94DF21D5044
:102528003421FFF7FFF84DF21E500221FFF7FAF8A9
:102538004DF21F506721FFF7F5F84DF220500221A8
:10254800FFF7F0F84DF221508421FFF7EBF84DF238
:1025580022500221FFF7E6F84DF22350A421FFF79D
:10256800E1F84DF224500221FFF7DCF84DF2255036
:10257800B721FFF7D7F84DF226500221FFF7D2F81E
:102588004DF22750CF21FFF7CDF84DF22850022108
:10259800FFF7C8F84DF22950DE21FFF7C3F84DF2D6
:1025A8002A500221FFF7BEF84DF22B50F221FFF717
:1025B800B9F84DF22C500221FFF7B4F84DF22D5026
:1025C800FE21FFF7AFF84DF22E500321FFF7AAF8CE
:1025D8004DF22F501021FFF7A5F84DF2305003218E
:1025E800FFF7A0F84DF231503321FFF79BF84DF279
:1025F80032500321FFF796F84DF233506D21FFF763
:1026080091F84FF456400021FFF78CF84DF2016025
:102618003321FFF787F84DF202600021FFF782F8B7
:102628004DF203603421FFF77DF84DF2046000217C
:10263800FFF778F84DF205603A21FFF773F84DF28D
:1026480006600021FFF76EF84DF207604A21FFF798
:1026580069F84DF208600021FFF764F84DF209604F
:102668005C21FFF75FF84DF20A600021FFF75AF886
:102678004DF20B608121FFF755F84DF20C600021F7
:10268800FFF750F84DF20D60A621FFF74BF84DF219
:102698000E600021FFF746F84DF20F60E521FFF7C5
:1026A80041F84DF210600121FFF73CF84DF211603E
:1026B8001321FFF737F84DF212600121FFF732F8C6
:1026C8004DF213605421FFF72DF84DF214600121EB
:1026D800FFF728F84DF215608221FFF723F84DF235
:1026E80016600121FFF71EF84DF21760CA21FFF7A7
:1026F80019F84DF218600221FFF714F84DF219602D
:102708000021FFF70FF84DF21A600221FFF70AF8CF
:102718004DF21B600121FFF705F84DF21C60022104
:10272800FFF700F84DF21D603421FEF7FBFF4DF274
:102738001E600221FEF7F6FF4DF21F606721FEF7CB
:10274800F1FF4DF220600221FEF7ECFF4DF221600F
:102758008421FEF7E7FF4DF222600221FEF7E2FF37
:102768004DF22360A421FEF7DDFF4DF22460022123
:10277800FEF7D8FF4DF22560B721FEF7D3FF4DF2E3
:1027880026600221FEF7CEFF4DF22760CF21FEF72B
:10279800C9FF4DF228600221FEF7C4FF4DF22960FF
:1027A800DE21FEF7BFFF4DF22A600221FEF7BAFFD5
:1027B8004DF22B60F221FEF7B5FF4DF22C6002219D
:1027C800FEF7B0FF4DF22D60FE21FEF7ABFF4DF294
:1027D8002E600321FEF7A6FF4DF22F601021FEF7B1
:1027E800A1FF4DF230600321FEF79CFF4DF23160EE
:1027F8003321FEF797FF4DF232600321FEF792FF77
:102808004DF233606D21FEF78DFF4FF47040552176
:10281800FEF788FF4FF20100AA21FEF783FF4FF26F
:1028280002005221FEF77EFF4FF203000821FEF757
:1028380079FF4FF204000021FEF774FF4FF4314096
:10284800CC21FEF76FFF4BF201100021FEF76AFF63
:102858004FF436400521FEF765FF4FF437407021ED
:10286800FEF760FF4BF201707021FEF75BFF4FF43B
:1028780038400121FEF756FF4BF601000321FEF711
:1028880051FF4BF602000321FEF74CFF4BF6030005
:102898000321FEF747FF4FF43C400221FEF742FFB9
:1028A8004BF601400021FEF73DFF4BF602400021A8
:1028B800FEF738FF4FF44940D021FEF733FF4CF6BE
:1028C80001100221FEF72EFF4CF602105021FEF7F0
:1028D80029FF4CF603105021FEF724FF4CF6041094
:1028E8005021FEF71FFF4FF454500021FEF71AFF46
:1028F8004FF468505521FEF715FF00239BB24FF4A3
:1029080058501946FEF70EFF064B4FF488521A80AE
:102918007820FDF7E3FF034B4FF424521A80FFF7AA
:1029280053F880BD7E00006C90B585B000AF0446BA
:10293800084611461A462346FB800346BB800B46D1
:102948007B8013463B80194B1B887A889A4229D290
:10295800164B5B883A889A4224D27A88FB88D31A25
:102968009BB201337B813A88BB88D31A9BB201336F
:102978003B81F888B9887A883B88FEF745FFFEF7DF
:10298800FFFE0023FB6005E0094A3B8C1380FB68CF
:102998000133FB607B893A8902FB03F31A46FB6823
:1029A8009A42F1D81437BD4690BD00BF240D0020CF
:1029B8008000006C90B585B000AF0446084611460B
:1029C8001A462346FB800346BB800B467B80134692
:1029D8003B80FA887B8813449BB2013B7B81BA8891
:1029E8003B8813449BB2013B3B81154B1B887A897A
:1029F8009A4221D2124B5B883A899A421CD2F888B3
:102A0800B9887A893B89FEF7FFFEFEF7B9FE0023F5
:102A1800FB6009E00B49FB685B003A6A13441B88BA
:102A28000B80FB680133FB607B883A8802FB03F369
:102A38001A46FB689A42EDD81437BD4690BD00BFD0
:102A4800240D00208000006C80B582B000AF786053
:102A580039607B68012B0FD0012B0FD3022B00D0DC
:102A68000DE00A4A3B6852F823309BB24FF45850A5
:102A78001946FEF757FE02E000BF00E000BF002342
:102A88005BB218460837BD4680BD00BF24C60008A3
:102A980080B485B000AF03460A46FB801346BB806E
:102AA8000023FB810023BB8100237B81FB88DBB2F1
:102AB8009B10BB81FB88DB0AFB81BB88DB0A7B811F
:102AC800FB89DB029AB2BB895B019BB213439AB2C2
:102AD8007B8913439BB29BB218461437BD465DF8F9
:102AE800047B704780B584B000AF03460A46FB807C
:102AF8001346BB800023FB810023BB81174B1B8837
:102B0800FA889A4225D2154B5B88BA889A4220D215
:102B1800FA88BB8810461946FEF740FE104B4FF462
:102B280038521A800F4B1B88FB810220FDF7D6FE16
:102B38000C4B1B88FB810220FDF7D0FE094B1B883C
:102B4800BB81FA89BB8910461946FFF7A1FF0346E6
:102B580000E0002318461037BD4680BD240D002034
:102B68007E00006C8000006C80B483B000AF786099
:102B7800054A7B6843F0BF6343F40033D3600C37E6
:102B8800BD465DF8047B704700ED00E080B485B079
:102B980000AF78600023FB730023BB730F237B73A4
:102BA8007B68DB78002B38D0264BDB68DB4303F4EB
:102BB800E0631B0AFB73FB7BC3F10403BB737A7BE3
:102BC800FB7B42FA03F37B737B685B781A46BB7B1B
:102BD80002FA03F3FB737B689A787B7B1340DAB2C3
:102BE800FB7B1343FB73FB7B1B01FB73164A7B6860
:102BF8001B781344FA7B83F80023134A7B681B78FD
:102C08005B09DBB218467B681B7803F01F030121C0
:102C180001FA03F342F820300FE00B497B681B7878
:102C28005B09DBB218467B681B7803F01F0301229F
:102C38009A4000F1200341F823201437BD465DF87F
:102C4800047B704700ED00E000E100E080B483B051
:102C580000AF7860396007493B6823F0604323F090
:102C68007F037A6813438B600C37BD465DF8047B9D
:102C7800704700BF00ED00E080B483B000AF0346AA
:102C88000A46FB711346BB71BB79002B06D0094974
:102C9800084B1A69FB7913430B6106E00549054B9C
:102CA8001A69FB79DB4313400B610C37BD465DF8AD
:102CB800047B704700ED00E080B483B000AF78601B
:102CC8007B68042B06D1094A084B1B6843F00403B0
:102CD800136005E0054A054B1B6823F004031360E5
:102CE8000C37BD465DF8047B704700BF10E000E07C
:102CF80080B400AF094B00221A60084B00225A60CA
:102D0800064B00229A60054B0022DA60034B044A06
:102D18005A61BD465DF8047B704700BF003C014026
:102D2800FFFF7F0080B485B000AF78600023FB60B0
:102D3800344BFB607B689B79002B4FD03149314B7A
:102D48001A687B681B68DB4313400B602D492D4BC9
:102D58005A687B681B68DB4313404B607B681B79B0
:102D68001A46FB681344FB60FB68FA6811687A68C6
:102D780012680A431A602349224B9A687B681B68C9
:102D8800DB4313408B601F491E4BDA687B681B6866
:102D9800DB431340CB607B685B79102B0ED119495C
:102DA800184B9A687B681B6813438B601549154B51
:102DB800DA687B681B681343CB601DE0114BFB602E
:102DC8007B685B791A46FB681344FB60FB68FA680A
:102DD80011687A6812680A431A600DE07B681B79EB
:102DE8001A46FB681344FB60FB68FA6811687A6846
:102DF8001268D2430A401A601437BD465DF8047B56
:102E0800704700BF003C014080B483B000AF7860D9
:102E18007B6800221A607B6800221A717B680C228A
:102E28005A717B6800229A710C37BD465DF8047BA5
:102E3800704700BF80B483B000AF78600549054B88
:102E48001A697B6813430B610C37BD465DF8047B38
:102E5800704700BF003C014080B485B000AF786087
:102E68000023FB73084B5A697B681340002B02D080
:102E78000123FB7301E00023FB73FB7B1846143727
:102E8800BD465DF8047B7047003C014080B483B0C8
:102E980000AF7860034A7B6853610C37BD465DF824
:102EA800047B7047003C014080B485B000AF786077
:102EB8000023FB73084B5A697B681340002B02D030
:102EC8000123FB7301E00023FB73FB7B18461437D7
:102ED800BD465DF8047B7047003C014080B483B078
:102EE80000AF7860034A7B6853610C37BD465DF8D4
:102EF800047B7047003C014080B483B000AF786029
:102F08007B68002B07D14FF020427B6843F2DB013E
:102F180042F8231006E04FF020427B6843F2D201CA
:102F280042F823104FF020427B6801336FF0704164
:102F380042F82310054A7B686FF0704142F823106D
:102F48000C37BD465DF8047B704700BF040100A044
:102F580080B487B000AF786000237B6100233B61B9
:102F68000023FB604FF020427B681B6852F8233037
:102F78007B617A69594B13407B617B685A687B682F
:102F88009B681A437B68DB681A437B681B691A4392
:102F98007B685B691A437B689B691A437B68DB69BA
:102FA8001A437B681B6A1A437B685B6A1A437B680F
:102FB8009B6A1A437B68DB6A1A437B681B6B134363
:102FC8007A6913437B614FF020417B681B687A69FB
:102FD80041F823207B689B68082B0DD14FF02041D6
:102FE8007B681B684FF020407A68126850F82220EE
:102FF80042F0400241F823204FF020427B681B68D2
:10300800013352F823303B613B6903F040433B6195
:103018007B685B6B1A687B685B6B5B681B011A4398
:103028007B685B6B9B681B021A437B685B6BDB6886
:103038001B041A437B685B6B1B691B051A437B687F
:103048005B6B5B691B061A437B685B6B9B6913436D
:103058003A6913433B614FF020417B681B68013399
:103068003A6941F823207B68DB6AB3F5804F29D1A0
:103078001B4A7B681B6852F82330FB60FA68194BBF
:103088001340FB607B689B6B1A687B689B6B5B6873
:103098001B011A437B689B6B9B681B021A437B6866
:1030A8009B6BDB681B041A437B689B6B9B69134310
:1030B800FA681343FB600A497B681B68FA6841F8A1
:1030C800232006E0064A7B681B686FF0704142F8CF
:1030D80023101C37BD465DF8047B70478000F7FF5E
:1030E800040100A00000F0CF80B483B000AF786086
:1030F8007B6800221A607B6802225A607B68002283
:103108009A607B680022DA607B6800221A617B681B
:1031180000225A617B6800229A617B680022DA618A
:103128007B6800221A627B684FF480525A627B687F
:103138004FF400529A627B680022DA627B680022B0
:103148001A637B68044A5A637B68034A9A630C379C
:10315800BD465DF8047B70477CC6000880B483B028
:1031680000AF78600B46FB70FB78002B0CD04FF05B
:1031780020414FF020427B6852F8233043F001028F
:103188007B6841F823200BE04FF020414FF02042AC
:103198007B6852F82320054B13407A6841F82230A7
:1031A8000C37BD465DF8047B704700BFFEFF0F007B
:1031B80080B483B000AF78607B68102B0ED1114BC0
:1031C80018221A600F4B40225A600E4B4FF0FC3207
:1031D8009A600C4B4FF0FC32DA600DE00A4B182273
:1031E8001A60094B40225A60074B4FF0FC329A6034
:1031F800054B4FF0FC32DA600C37BD465DF8047BB6
:10320800704700BF600000A0800000A080B487B0B5
:1032180000AF786000237B6100233B610023FB60E3
:103228007B681B68102B03D1414B1B687B6102E054
:10323800404B1B687B617A693F4B13407B617B681D
:103248005A687B689B681A437B68DB681A437B680B
:103258001B691A437B685B695B021A437B689B693D
:103268005B031A437B69134343F008037B617B6864
:103278001B68102B03D12E4B9B683B6102E02D4B42
:103288009B683B6100233B617B68DB691A687B684C
:10329800DB695B681B021A437B68DB699B681B045C
:1032A8001A437B68DB69DB681B0613433A691343DF
:1032B8003B617B681B68102B03D11D4BDB68FB60EF
:1032C80002E01B4BDB68FB600023FB607B681B6A2A
:1032D8001A687B681B6A5B681B021A437B681B6A57
:1032E8009B681B041A437B681B6ADB681B06134335
:1032F800FA681343FB607B681B68102B09D10C4AE2
:103308007B6913600A4A3B699360094AFB68D3608A
:1033180008E0084A7B691360064A3B699360054ADE
:10332800FB68D3601C37BD465DF8047B704700BF5F
:10333800600000A0800000A08101F0FF80B483B08D
:1033480000AF78607B6810221A607B6800225A60A0
:103358007B6800229A607B680022DA607B68002222
:103368001A617B6800225A617B6800229A617B6837
:10337800DB69FC221A607B68DB69FC225A607B6887
:10338800DB69FC229A607B68DB69FC22DA607B6877
:103398001B6AFC221A607B681B6AFC225A607B68E5
:1033A8001B6AFC229A607B681B6AFC22DA600C3775
:1033B800BD465DF8047B704780B483B000AF786089
:1033C8000B46FB70FB78002B10D07B68102B06D1C6
:1033D800114A114B1B6843F00403136016E00F4AAF
:1033E8000E4B1B6843F0040313600FE07B68102B3F
:1033F80006D10949084B1A68094B13400B6005E0D0
:103408000649064B1A68064B13400B600C37BD463D
:103418005DF8047B704700BF600000A0800000A03A
:10342800FBFF0F0080B483B000AF78600B46FB70E1
:10343800FB78002B10D07B68102B06D1114A114B5A
:103448001B6843F04003136016E00F4A0E4B1B68DD
:1034580043F0400313600FE07B68102B06D1094945
:10346800084B1A68094B13400B6005E00649064BE8
:103478001A68064B13400B600C37BD465DF8047B99
:10348800704700BF600000A0800000A0BFFF0F00D1
:1034980080B485B000AF78600023FB607B68102B98
:1034A80003D1074B5B69FB6002E0064B5B69FB607D
:1034B800FB6818461437BD465DF8047B704700BFAB
:1034C800600000A0800000A080B400AF0A4B182262
:1034D8001A60094B00225A60074B4FF0FC329A6081
:1034E800054B4FF0FC32DA60034B4FF0FC321A61A7
:1034F800BD465DF8047B7047A00000A080B487B08B
:1035080000AF786000237B6100233B610023FB60F0
:103518000023BB603B4B1B687B617B6923F4FF3353
:1035280023F032037B617B681A687B685B685B0207
:103538001A437B689B685B031A437B69134343F018
:1035480010037B612F4A7B6913602E4B9B683B619C
:1035580000233B617B68DB681A687B68DB685B6813
:103568001B021A437B68DB689B681B041A437B6851
:10357800DB68DB681B0613433A6913433B61214A46
:103588003B6993601F4BDB68FB600023FB607B6833
:103598001B691A687B681B695B681B021A437B6896
:1035A8001B699B681B041A437B681B69DB681B0645
:1035B8001343FA681343FB60124AFB68D360114B4C
:1035C8001B69BB600023BB607B685B691A687B680A
:1035D8005B695B681B021A437B685B699B681B0419
:1035E8001A437B685B69DB681B061343BA6813439D
:1035F800BB60044ABB6813611C37BD465DF8047B99
:10360800704700BFA00000A080B483B000AF78600E
:103618007B6800221A607B6800225A607B6800225F
:103628009A607B68DB68FC221A607B68DB68FC2296
:103638005A607B68DB68FC229A607B68DB68FC2246
:10364800DA607B681B69FC221A607B681B69FC22B4
:103658005A607B681B69FC229A607B681B69FC22A4
:10366800DA607B685B69FC221A607B685B69FC2214
:103678005A607B685B69FC229A607B685B69FC2204
:10368800DA600C37BD465DF8047B704780B483B0C0
:1036980000AF0346FB71FB79002B06D0084A084BA4
:1036A8001B6843F00403136005E00549044B1A68DE
:1036B800044B13400B600C37BD465DF8047B704724
:1036C800A00000A0FBFF0F0080B485B000AFF86039
:1036D800B9601346FB71FB79002B1BD0FB68102BDC
:1036E80006D11E491D4B5A68BB6813434B602FE037
:1036F800FB68B3F5807F06D11949194B5A68BB6836
:1037080013434B6024E01749164B5A68BB681343B0
:103718004B601DE0FB68102B07D110490F4B5A680E
:10372800BB68DB4313404B6012E0FB68B3F5807F56
:1037380007D10B490A4B5A68BB68DB4313404B60FF
:1037480006E00849074B5A68BB68DB4313404B60E7
:103758001437BD465DF8047B704700BF600000A0C9
:10376800800000A0A00000A080B485B000AF786001
:1037780039600023FB730023BB607B68102B03D1E7
:103788000F4B5B68BB600AE07B68B3F5807F03D1B1
:103798000C4B5B68BB6002E00B4B5B68BB60BA68B4
:1037A8003B681340002B02D00123FB7301E0002388
:1037B800FB73FB7B18461437BD465DF8047B7047E6
:1037C800600000A0800000A0A00000A080B483B02A
:1037D80000AF786039607B68102B07D10F490F4B19
:1037E8005A683B68DB4313404B6012E07B68B3F5D3
:1037F800807F07D10A490A4B5A683B68DB4313406C
:103808004B6006E00749074B5A683B68DB431340A7
:103818004B600C37BD465DF8047B7047600000A024
:10382800800000A0A00000A080B487B000AF78603E
:1038380039600023FB7500233B610023FB600023F4
:10384800BB607B68102B03D1144B5B683B610AE0BB
:103858007B68B3F5807F03D1114B5B683B6102E065
:10386800104B5B683B613A693B681340FB603B68FF
:10387800DA083B691340BB60FB68002B05D0BB68C6
:10388800002B02D00123FB7501E00023FB75FB7DB3
:1038980018461C37BD465DF8047B7047600000A0E1
:1038A800800000A0A00000A080B483B000AF7860C2
:1038B80039607B68102B08D11149114B5A683B6855
:1038C800DB08DB4313404B6014E07B68B3F5807F73
:1038D80008D10C490B4B5A683B68DB08DB431340A3
:1038E8004B6007E00849084B5A683B68DB08DB4334
:1038F80013404B600C37BD465DF8047B704700BF32
:10390800600000A0800000A0A00000A080B582B0E8
:1039180000AF78607B684B4A934208D101200121AF
:1039280000F0B4FE0120002100F0B0FE86E07B68C4
:10393800454A934208D10220012100F0A7FE022047
:10394800002100F0A3FE79E07B68404A934208D149
:103958000420012100F09AFE0420002100F096FEC8
:103968006CE07B683A4A934208D10820012100F0B4
:103978008DFE0820002100F089FE5FE07B68354A53
:10398800934208D11020012100F080FE1020002170
:1039980000F07CFE52E07B682F4A934208D1202039
:1039A800012100F073FE2020002100F06FFE45E0A9
:1039B8007B682A4A934208D14020012100F066FE24
:1039C8004020002100F062FE38E07B68244A9342E0
:1039D80008D18020012100F059FE8020002100F04C
:1039E80055FE2BE07B681F4A93420AD14FF4807042
:1039F800012100F04BFE4FF48070002100F046FEDC
:103A08001CE07B68184A93420AD14FF400700121E8
:103A180000F03CFE4FF40070002100F037FE0DE08E
:103A28007B68124A934209D14FF48060012100F06B
:103A38002DFE4FF48060002100F028FE0837BD46B7
:103A480080BD00BF000002400004024000080240A0
:103A5800000C02400010024000140240001802400E
:103A6800001C0240002002400024024000280240BE
:103A780080B487B000AF7860396000237B61002391
:103A88003B610023FB6000237B6176E07B690122B8
:103A980002FA03F33B613B681A683B691340FB6019
:103AA800FA683B699A4265D17B681A687B695B0052
:103AB800194603238B40DB431A407B681A607B68F6
:103AC8001A683B681B7919467B695B0001FA03F3A6
:103AD8001A437B681A603B681B79012B03D03B684B
:103AE8001B79022B2ED17B689A687B695B0019468B
:103AF80003238B40DB431A407B689A607B689A6893
:103B08003B685B7919467B695B0001FA03F31A434A
:103B18007B689A607B685A687B699BB21946012367
:103B28008B40DB431A407B685A607B685B683A6865
:103B3800927911467A6992B201FA02F292B21A4364
:103B48007B685A607B68DA687B699BB25B000321FB
:103B580001FA03F3DB431A407B68DA607B68DA68B2
:103B68003B68DB7919467B695B0001FA03F31A436A
:103B78007B68DA607B6901337B617B690F2B85D9B0
:103B88001C37BD465DF8047B704700BF80B483B026
:103B980000AF78607B684FF6FF721A607B6800227E
:103BA8001A717B6800225A717B6800229A717B68BF
:103BB8000022DA710C37BD465DF8047B704700BF00
:103BC80080B485B000AF78600B467B804FF48033BB
:103BD800FB607A88FB681343FB60FA687B68DA61EC
:103BE8007A887B68DA61FA687B68DA617B68DB6906
:103BF800FB607B68DB69FB601437BD465DF8047BBE
:103C0800704700BF80B485B000AF78600B467B80FA
:103C18000023FB737B681A697B881340002B02D052
:103C28000123FB7301E00023FB73FB7B1846143769
:103C3800BD465DF8047B704780B483B000AF786000
:103C48007B681B699BB218460C37BD465DF8047B40
:103C5800704700BF80B485B000AF78600B467B80AA
:103C68000023FB737B685A697B881340002B02D0C2
:103C78000123FB7301E00023FB73FB7B1846143719
:103C8800BD465DF8047B704780B483B000AF7860B0
:103C98007B685B699BB218460C37BD465DF8047BB0
:103CA800704700BF80B483B000AF78600B467B805C
:103CB8007B687A881A830C37BD465DF8047B7047A9
:103CC80080B483B000AF78600B467B807B687A88CD
:103CD8005A830C37BD465DF8047B704780B483B0C7
:103CE80000AF78600B467B8013467B707B78002B97
:103CF80003D07B687A881A8302E07B687A885A83C3
:103D08000C37BD465DF8047B704700BF80B483B0B4
:103D180000AF78600B467B807A887B685A610C37E5
:103D2800BD465DF8047B704780B483B000AF78600F
:103D38000B467B807B685A697B885A407B685A614E
:103D48000C37BD465DF8047B704700BF80B485B072
:103D580000AF78600B467B8013467B700023FB60C6
:103D68000023BB607B787A8802F0070292009340B8
:103D7800FB607B88DB089BB218467B88DB089BB21C
:103D88001A467B68083253F822207B8803F0070321
:103D98009B0019460F238B40DB4302EA03017B6833
:103DA80000F1080243F822107B88DB089BB21A4610
:103DB8007B68083253F82220FB681343BB607B887A
:103DC800DB089BB21A467B680832B96843F82210B0
:103DD8001437BD465DF8047B704700BF80B400AF60
:103DE800164A164B1B6843F001031360134B00225D
:103DF8009A60124A114B1B6823F0A85323F410232E
:103E080013600E4B0E4A5A600C4B0E4AC3F88420BE
:103E18000A4B0D4AC3F88820084A084B1B6823F44C
:103E280080231360054B0022DA60044B0022C3F89C
:103E38008C20BD465DF8047B704700BF0038024007
:103E480010300024003000200030002480B483B0FB
:103E580000AF0346FB71054B00221A70034AFB7939
:103E680013700C37BD465DF8047B7047023802407A
:103E780080B582B000AF00233B600023FB710023B4
:103E8800BB71312000F070FD0346BB713B68013304
:103E98003B603B68B3F5A04F02D0BB79002BF0D054
:103EA800312000F061FD0346002B02D00123FB7195
:103EB80001E00023FB71FB7918460837BD4680BD39
:103EC80080B485B000AF0346FB710023FB600A4B4A
:103ED8001B68FB60FB6823F0F803FB60FB79DB00E1
:103EE800FA681343FB60044AFB6813601437BD4645
:103EF8005DF8047B704700BF0038024080B483B08F
:103F080000AF0346FB71044AFB7913600C37BD46CA
:103F18005DF8047B704700BF0000474280B483B05F
:103F280000AF0346FB710C4B00221A700A4B0022AB
:103F38001A70FB79012B02D0042B04D007E0064B42
:103F480001221A7003E0044B05221A7000BF0C37D7
:103F5800BD465DF8047B70477038024080B483B07A
:103F680000AF0346FB71044AFB7913600C37BD466A
:103F78005DF8047B704700BF800E474280B485B06F
:103F880000AFF860B9607A603B600A497B689A01C3
:103F9800BB681A433B685B08013B1B041A43FB6878
:103FA8001A43BB691B0613434B601437BD465DF8C3
:103FB800047B70470038024080B483B000AF0346EA
:103FC800FB71044AFB7913600C37BD465DF8047B2E
:103FD800704700BF6000474280B483B000AF78608C
:103FE800396006497B689A013B681B071343C1F88F
:103FF80084300C37BD465DF8047B704700380240BA
:1040080080B483B000AF0346FB71044AFB791360A8
:104018000C37BD465DF8047B704700BF6800474217
:1040280080B485B000AFF860B9607A600749FB6872
:104038009A01BB681B061A437B681B071343C1F828
:1040480088301437BD465DF8047B7047003802405D
:1040580080B483B000AF0346FB71044AFB79136058
:104068000C37BD465DF8047B704700BF70004742BF
:1040780080B483B000AF0346FB71044AFB79136038
:104088000C37BD465DF8047B704700BF4C004742C3
:1040980080B485B000AF786039600023FB600A4BBC
:1040A8009B68FB60FB6823F0EC63FB607A683B6805
:1040B8001343FA681343FB60034AFB6893601437A1
:1040C800BD465DF8047B70470038024080B485B077
:1040D80000AF786039600023FB600A4B9B68FB6087
:1040E800FB6823F07843FB607A683B681343FA68FF
:1040F8001343FB60034AFB6893601437BD465DF8C1
:10410800047B70470038024080B485B000AF786007
:104118000023FB60094B9B68FB60FB6823F00303EB
:10412800FB60FA687B681343FB60044AFB68936092
:104138001437BD465DF8047B704700BF0038024065
:1041480080B400AF054B9B68DBB203F00C03DBB215
:104158001846BD465DF8047B704700BF0038024032
:1041680080B485B000AF78600023FB60094B9B6882
:10417800FB60FB6823F0F003FB60FA687B6813437D
:10418800FB60044AFB6893601437BD465DF8047B06
:10419800704700BF0038024080B485B000AF786037
:1041A8000023FB60094B9B68FB60FB6823F4E0532A
:1041B800FB60FA687B681343FB60044AFB68936002
:1041C8001437BD465DF8047B704700BF00380240D5
:1041D80080B485B000AF78600023FB60094B9B6812
:1041E800FB60FB6823F46043FB607B68DB00FA68D4
:1041F8001343FB60034AFB6893601437BD465DF8C0
:10420800047B70470038024080B489B000AF786002
:104218000023BB6100237B610023FB6102233B6118
:104228000023FB600223BB60484B9B6803F00C0330
:10423800BB61BB69042B07D0082B09D0002B3FD1E9
:104248007B68434A1A603FE07B68424A1A603BE059
:104258003E4B5B6803F480039B0DFB603B4B5B6844
:1042680003F03F03BB60FB68002B0DD0394ABB68E5
:10427800B2FBF3F2354B596847F6C0730B409B0904
:1042880003FB02F3FB610CE0314ABB68B2FBF3F2BB
:104298002E4B596847F6C0730B409B0903FB02F38A
:1042A800FB612A4B5B6803F440331B0C01335B0052
:1042B8003B61FA693B69B2FBF3F27B681A6003E081
:1042C8007B68234A1A6000BF204B9B6803F0F00309
:1042D800BB61BB691B09BB611F4ABB6913441B78DF
:1042E800DBB27B617B681A687B69DA407B685A605D
:1042F800164B9B6803F4E053BB61BB699B0ABB6127
:10430800154ABB6913441B78DBB27B617B685A682A
:104318007B69DA407B689A600C4B9B6803F46043C6
:10432800BB61BB695B0BBB610B4ABB6913441B7860
:10433800DBB27B617B685A687B69DA407B68DA604C
:104348002437BD465DF8047B704700BF0038024043
:104358000024F40000127A005800002080B485B0D0
:1043680000AF78600023FB607B6803F44073B3F50B
:10437800407F11D10F4B9B68FB60FB6823F4F81357
:10438800FB607B6823F0704323F44073FA6813439F
:10439800FB60084AFB6893600649064B1A6F7B6806
:1043A800C3F30B0313430B671437BD465DF8047B57
:1043B800704700BF0038024080B483B000AF0346A6
:1043C800FB71044AFB7913600C37BD465DF8047B2A
:1043D800704700BF3C0E474280B483B000AF03462D
:1043E800FB71044AFB7913600C37BD465DF8047B0A
:1043F800704700BF400E474280B483B000AF78607A
:10440800034A7B6813600C37BD465DF8047B704730
:104418005C01474280B485B000AF78600023FB6040
:104428000A4BD3F88C30FB60FB6823F44013FB6025
:10443800FA687B681343FB60044AFB68C2F88C3057
:104448001437BD465DF8047B704700BF0038024052
:1044580080B485B000AF78600023FB600A4BD3F8C6
:104468008C30FB60FB6823F44003FB60FA687B68D0
:104478001343FB60044AFB68C2F88C301437BD460E
:104488005DF8047B704700BF0038024080B485B0F7
:1044980000AF78600023FB600A4BD3F88C30FB60D8
:1044A800FB6823F01F03FB607B68013BFA6813433A
:1044B800FB60044AFB68C2F88C301437BD465DF8CF
:1044C800047B70470038024080B485B000AF786044
:1044D8000023FB600B4BD3F88C30FB60FB6823F4A4
:1044E800F853FB607B68013B1B02FA681343FB60CF
:1044F800044AFB68C2F88C301437BD465DF8047B6B
:10450800704700BF0038024080B485B000AF7860C3
:104518000023FB600A4BD3F88C30FB60FB6823F464
:104528004033FB60FA687B681343FB60044AFB680E
:10453800C2F88C301437BD465DF8047B704700BF65
:104548000038024080B483B000AF7860034A7B68CB
:1045580013600C37BD465DF8047B7047E011474295
:1045680080B483B000AF78600B46FB70FB78002BFB
:1045780006D00949084B1A6B7B6813430B6306E0A6
:104588000549054B1A6B7B68DB4313400B630C37FB
:10459800BD465DF8047B70470038024080B483B0A4
:1045A80000AF78600B46FB70FB78002B06D00949FA
:1045B800084B5A6B7B6813434B6306E00549054B70
:1045C8005A6B7B68DB4313404B630C37BD465DF881
:1045D800047B70470038024080B483B000AF786035
:1045E8000B46FB70FB78002B06D00949084B9A6BE9
:1045F8007B6813438B6306E00549054B9A6B7B6820
:10460800DB4313408B630C37BD465DF8047B704772
:104618000038024080B483B000AF78600B46FB706E
:10462800FB78002B06D00949084B1A6C7B681343AA
:104638000B6406E00549054B1A6C7B68DB431340A5
:104648000B640C37BD465DF8047B704700380240A8
:1046580080B483B000AF78600B46FB70FB78002B0A
:1046680006D00949084B5A6C7B6813434B6406E033
:104678000549054B5A6C7B68DB4313404B640C3788
:10468800BD465DF8047B70470038024080B483B0B3
:1046980000AF78600B46FB70FB78002B06D0094909
:1046A800084B1A697B6813430B6106E00549054B03
:1046B8001A697B68DB4313400B610C37BD465DF814
:1046C800047B70470038024080B483B000AF786044
:1046D8000B46FB70FB78002B06D00949084B5A693A
:1046E8007B6813434B6106E00549054B5A697B68B3
:1046F800DB4313404B610C37BD465DF8047B7047C4
:104708000038024080B483B000AF78600B46FB707D
:10471800FB78002B06D00949084B9A697B6813433C
:104728008B6106E00549054B9A697B68DB431340BA
:104738008B610C37BD465DF8047B7047003802403A
:1047480080B483B000AF78600B46FB70FB78002B19
:1047580006D00949084B1A6A7B6813430B6206E0C6
:104768000549054B1A6A7B68DB4313400B620C371B
:10477800BD465DF8047B70470038024080B483B0C2
:1047880000AF78600B46FB70FB78002B06D0094918
:10479800084B5A6A7B6813434B6206E00549054B90
:1047A8005A6A7B68DB4313404B620C37BD465DF8A1
:1047B800047B70470038024080B483B000AF786053
:1047C8000B46FB70FB78002B06D00949084B1A6D85
:1047D8007B6813430B6506E00549054B1A6D7B683A
:1047E800DB4313400B650C37BD465DF8047B70470F
:1047F8000038024080B483B000AF78600B46FB708D
:10480800FB78002B06D00949084B5A6D7B68134387
:104818004B6506E00549054B5A6D7B68DB43134041
:104828004B650C37BD465DF8047B70470038024085
:1048380080B483B000AF78600B46FB70FB78002B28
:1048480006D00949084B9A6D7B6813438B6506E0CF
:104858000549054B9A6D7B68DB4313408B650C3724
:10486800BD465DF8047B70470038024080B483B0D1
:1048780000AF78600B46FB70FB78002B06D0094927
:10488800084B1A6E7B6813430B6606E00549054B17
:104898001A6E7B68DB4313400B660C37BD465DF828
:1048A800047B70470038024080B483B000AF786062
:1048B8000B46FB70FB78002B06D00949084B5A6E53
:1048C8007B6813434B6606E00549054B5A6E7B68C7
:1048D800DB4313404B660C37BD465DF8047B7047DD
:1048E8000038024080B483B000AF0346FB71FB7907
:1048F800012B06D1084A084B1B6F43F008031367C6
:1049080005E0054A044B1B6F23F0080313670C37B7
:10491800BD465DF8047B70470038024080B483B020
:1049280000AF03460A46FB711346BB71BB79002BE7
:1049380008D00C490B4B1B78DAB2FB791343DBB276
:104948000B7009E00749074B1B78DAB2FB79DB43A8
:10495800DBB21340DBB20B700C37BD465DF8047B4D
:10496800704700BF0D38024080B487B000AF0346DF
:10497800FB710023FB6000237B610023FB74FB7940
:104988005B09DBB2FB60FB68012B03D1124B1B6890
:104998007B6109E0FB68022B03D10F4B1B6F7B6126
:1049A80002E00D4B5B6F7B61FB7903F01F03FB603B
:1049B800FB687A6922FA03F303F00103002B02D0A3
:1049C8000123FB7401E00023FB74FB7C18461C37B1
:1049D800BD465DF8047B70470038024080B400AFE4
:1049E800044A044B5B6F43F080735367BD465DF820
:1049F800047B70470038024080B485B000AF03469E
:104A0800FB710023FB73094BDA68FB791340002B19
:104A180002D00123FB7301E00023FB73FB7B1846E4
:104A28001437BD465DF8047B704700BF003802406C
:104A380080B483B000AF0346FB71044AFB7913705E
:104A48000C37BD465DF8047B704700BF0E38024046
:104A580080B500AF4FF480400121FFF78FFE4FF47F
:104A680080400021FFF78AFE80BD00BF80B483B07C
:104A780000AF0346FB71044AFB7913600C37BD464F
:104A88005DF8047B704700BF0038014080B483B0F4
:104A980000AF0346FB71044AFB7913600C37BD462F
:104AA8005DF8047B704700BF2000274290B484B0B3
:104AB80000AF03460A46FB711346BB710023FB6037
:104AC800BB7903F003039B000F2202FA03F3FB6098
:104AD8001649BB799B08DBB21846144ABB799B0878
:104AE800DBB2023352F82320FB68DB431A40831CF5
:104AF80041F823200D48BB799B08DBB21C460B4AC2
:104B0800BB799B08DBB2023352F82320F979BB79D1
:104B180003F003039B0001FA03F31A43A31C40F8B4
:104B280023201037BD4690BC704700BF00380140B5
:104B380080B483B000AF7860034A7B6813600C3799
:104B4800BD465DF8047B7047DC00274280B483B023
:104B580000AF0346FB71044AFB7913600C37BD466E
:104B68005DF8047B704700BF0004274280B483B01F
:104B780000AF0023FB71094B1B6A03F48073002B01
:104B880002D00123FB7101E00023FB71FB79184679
:104B98000C37BD465DF8047B704700BF0038014004
:104BA80080B582B000AF78607B685F4A934208D1D5
:104BB80001200121FFF7E2FD01200021FFF7DEFDC2
:104BC800AFE07B68B3F1804F08D101200121FFF7E6
:104BD800B7FD01200021FFF7B3FDA2E07B68534A2F
:104BE800934208D102200121FFF7AAFD02200021EB
:104BF800FFF7A6FD95E07B684D4A934208D1042053
:104C08000121FFF79DFD04200021FFF799FD88E0B1
:104C18007B68484A934208D108200121FFF790FD9C
:104C280008200021FFF78CFD7BE07B68424A934215
:104C380008D110200121FFF783FD10200021FFF784
:104C48007FFD6EE07B683D4A934208D12020012118
:104C5800FFF776FD20200021FFF772FD61E07B68F9
:104C6800374A934208D102200121FFF787FD02202D
:104C78000021FFF783FD54E07B68324A93420AD152
:104C88004FF480300121FFF779FD4FF48030002187
:104C9800FFF774FD45E07B682B4A93420AD14FF435
:104CA80000300121FFF76AFD4FF400300021FFF7C3
:104CB80065FD36E07B68254A93420AD14FF480208F
:104CC8000121FFF75BFD4FF480200021FFF756FD1F
:104CD80027E07B681E4A934208D140200121FFF754
:104CE8002FFD40200021FFF72BFD1AE07B68194AB1
:104CF800934208D180200121FFF722FD8020002166
:104D0800FFF71EFD0DE07B68134A934209D14FF46B
:104D180080700121FFF714FD4FF480700021FFF728
:104D28000FFD0837BD4680BD00000140000400406B
:104D380000080040000C0040001000400014004033
:104D48000004014000400140004401400048014087
:104D580000180040001C00400020004080B485B0CE
:104D680000AF786039600023FB817B681B88FB817A
:104D78007B68284A934213D07B68274A93420FD016
:104D88007B68B3F1804F0BD07B68244A934207D0ED
:104D98007B68234A934203D07B68224A934208D116
:104DA800FB8923F07003FB813B685A88FB89134316
:104DB800FB817B681C4A93420CD07B681B4A934258
:104DC80008D0FB8923F44073FB813B681A89FB896F
:104DD8001343FB817B68FA891A803B685A687B68B1
:104DE800DA623B681A887B681A857B68094A9342AD
:104DF80003D07B68084A934204D13B689B7A9AB2F5
:104E08007B681A867B6801229A821437BD465DF852
:104E1800047B70470000014000040140000400408A
:104E280000080040000C0040001000400014004042
:104E380080B483B000AF78607B684FF0FF325A606F
:104E48007B6800221A807B6800221A817B68002216
:104E58005A807B6800229A720C37BD465DF8047B45
:104E6800704700BF80B483B000AF78600B467B808A
:104E780013463B807B687A881A857B683A889A82D1
:104E88000C37BD465DF8047B704700BF80B485B021
:104E980000AF78600B467B800023FB817B681B8812
:104EA800FB81FB8923F07003FB81FA897B8813431C
:104EB800FB817B68FA891A801437BD465DF8047B4C
:104EC800704700BF80B483B000AF786039607B68FA
:104ED8003A685A620C37BD465DF8047B704700BFDC
:104EE80080B483B000AF786039607B683A68DA6272
:104EF8000C37BD465DF8047B704700BF80B483B0B3
:104F080000AF78607B685B6A18460C37BD465DF871
:104F1800047B704780B483B000AF78607B681B8DDA
:104F28009BB218460C37BD465DF8047B704700BF3E
:104F380080B483B000AF78600B46FB70FB78002B21
:104F480008D07B681B889BB243F002039AB27B6847
:104F58001A8007E07B681B889BB223F002039AB291
:104F68007B681A800C37BD465DF8047B704700BF2C
:104F780080B483B000AF78600B467B807B88002BC1
:104F880008D07B681B889BB243F004039AB27B6805
:104F98001A8007E07B681B889BB223F004039AB24F
:104FA8007B681A800C37BD465DF8047B704700BFEC
:104FB80080B483B000AF78600B46FB70FB78002BA1
:104FC80008D07B681B889BB243F080039AB27B6849
:104FD8001A8007E07B681B889BB223F080039AB293
:104FE8007B681A800C37BD465DF8047B704700BFAC
:104FF80080B483B000AF78600B467B807B681B88E9
:105008009BB223F008039AB27B681A807B681B88DE
:105018009AB27B8813439AB27B681A800C37BD46D4
:105028005DF8047B704700BF80B483B000AF786040
:105038000B467B807B681B889BB223F440739AB233
:105048007B681A807B681B889AB27B8813439AB264
:105058007B681A800C37BD465DF8047B704700BF3B
:1050680080B483B000AF78600B46FB70FB78002BF0
:1050780008D07B681B889BB243F001039AB27B6817
:105088001A8007E07B681B889BB223F001039AB261
:105098007B681A800C37BD465DF8047B704700BFFB
:1050A80080B485B000AF7860396000237B8100232D
:1050B800FB810023BB817B681B8C9BB223F001031F
:1050C8009AB27B681A847B681B8CFB817B689B88FF
:1050D800BB817B681B8B7B817B8923F070037B8181
:1050E8007B8923F003037B813B681A887B89134300
:1050F8007B81FB8923F00203FB813B689A89FB894A
:105108001343FB813B685A88FB891343FB817B6807
:105118001E4A934203D07B681D4A934223D1FB89E0
:1051280023F00803FB813B68DA89FB891343FB8181
:10513800FB8923F00403FB813B689A88FB891343AE
:10514800FB81BB8923F48073BB81BB8923F4007383
:10515800BB813B681A8ABB891343BB813B685A8A67
:10516800BB891343BB817B68BA899A807B687A893B
:105178001A833B689A687B685A637B68FA891A8441
:105188001437BD465DF8047B704700BF000001403E
:105198000004014080B485B000AF78603960002316
:1051A8007B810023FB810023BB817B681B8C9BB226
:1051B80023F010039AB27B681A847B681B8CFB81EE
:1051C8007B689B88BB817B681B8B7B817B8923F4F5
:1051D800E0437B817B8923F440737B813B681B8898
:1051E8001B029AB27B8913437B81FB8923F020033E
:1051F800FB813B689B891B019AB2FB891343FB81A6
:105208003B685B881B019AB2FB891343FB817B686F
:10521800224A934203D07B68214A93422BD1FB89CF
:1052280023F08003FB813B68DB891B019AB2FB8971
:105238001343FB81FB8923F04003FB813B689B8878
:105248001B019AB2FB891343FB81BB8923F480635A
:10525800BB81BB8923F40063BB813B681B8A9B002D
:105268009AB2BB891343BB813B685B8A9B009AB2A5
:10527800BB891343BB817B68BA899A807B687A892A
:105288001A833B689A687B689A637B68FA891A84F0
:105298001437BD465DF8047B704700BF000001402D
:1052A8000004014080B485B000AF78603960002305
:1052B8007B810023FB810023BB817B681B8C9BB215
:1052C80023F480739AB27B681A847B681B8CFB81F9
:1052D8007B689B88BB817B689B8B7B817B8923F068
:1052E80070037B817B8923F003037B813B681A88E9
:1052F8007B8913437B81FB8923F40073FB813B6823
:105308009B891B029AB2FB891343FB813B685B882C
:105318001B029AB2FB891343FB817B68224A9342A2
:1053280003D07B68214A93422BD1FB8923F4006385
:10533800FB813B68DB891B029AB2FB891343FB8123
:10534800FB8923F48063FB813B689B881B029AB22C
:10535800FB891343FB81BB8923F48053BB81BB8941
:1053680023F40053BB813B681B8A1B019AB2BB899B
:105378001343BB813B685B8A1B019AB2BB89134309
:10538800BB817B68BA899A807B687A899A833B68F3
:105398009A687B68DA637B68FA891A841437BD4691
:1053A8005DF8047B704700BF000001400004014025
:1053B80080B485B000AF786039600023BB810023DA
:1053C8007B810023FB817B681B8C9BB223F4805379
:1053D8009AB27B681A847B681B8C7B817B689B886C
:1053E800FB817B689B8BBB81BB8923F4E043BB813A
:1053F800BB8923F44073BB813B681B881B029AB2AC
:10540800BB891343BB817B8923F400537B813B68B1
:105418009B891B039AB27B8913437B813B685B881A
:105428001B039AB27B8913437B817B68114A9342A1
:1054380003D07B68104A93420AD1FB8923F4804346
:10544800FB813B681B8A9B019AB2FB891343FB8152
:105458007B68FA899A807B68BA899A833B689A68DC
:105468007B681A647B687A891A841437BD465DF8AC
:10547800047B7047000001400004014080B483B001
:1054880000AF78607B6800221A807B6800225A800F
:105498007B6800229A807B6800229A607B680022E1
:1054A8009A817B680022DA817B6800221A827B68F5
:1054B80000225A820C37BD465DF8047B704700BF56
:1054C80080B485B000AF78600B467B8013463B8084
:1054D8000023FB6000237B817B68FB60FB6818333B
:1054E800FB607B88012202FA03F37B817B681B8CBB
:1054F8009AB27B89DB439BB213409AB27B681A84C9
:105508007B88002B02D07B88082B14D17B885B0812
:105518009BB21A46FB681344FB60FA68FB6819687B
:105528004FF68F730B401360FB68FA6811683A886E
:105538000A431A6017E07B88043B9BB25B089BB266
:105548001A46FB681344FB60FA68FB68196848F65A
:10555800FF730B401360FB68FA6812683988090208
:1055680089B20A431A601437BD465DF8047B704758
:1055780080B483B000AF786039607B683A685A635A
:105588000C37BD465DF8047B704700BF80B483B01C
:1055980000AF786039607B683A689A630C37BD461B
:1055A8005DF8047B704700BF80B483B000AF7860BB
:1055B80039607B683A68DA630C37BD465DF8047B6E
:1055C800704700BF80B483B000AF786039607B68F3
:1055D8003A681A640C37BD465DF8047B704700BF13
:1055E80080B485B000AF78600B467B800023FB81D8
:1055F8007B681B8BFB81FB8923F07003FB81FA8995
:105608007B881343FB817B68FA891A831437BD466C
:105618005DF8047B704700BF80B485B000AF786048
:105628000B467B800023FB817B681B8BFB81FB89FE
:1056380023F4E043FB817B881B029AB2FB89134366
:10564800FB817B68FA891A831437BD465DF8047BB1
:10565800704700BF80B485B000AF78600B467B8090
:105668000023FB817B689B8BFB81FB8923F0700304
:10567800FB81FA897B881343FB817B68FA899A83CB
:105688001437BD465DF8047B704700BF80B485B011
:1056980000AF78600B467B800023FB817B689B8B87
:1056A800FB81FB8923F4E043FB817B881B029AB2D0
:1056B800FB891343FB817B68FA899A831437BD46BB
:1056C8005DF8047B704700BF80B485B000AF786098
:1056D8000B467B800023FB817B681B8BFB81FB894E
:1056E80023F00803FB81FA897B881343FB817B68DD
:1056F800FA891A831437BD465DF8047B704700BFEA
:1057080080B485B000AF78600B467B800023FB81B6
:105718007B681B8BFB81FB8923F40063FB817B88FF
:105728001B029AB2FB891343FB817B68FA891A83AF
:105738001437BD465DF8047B704700BF80B485B060
:1057480000AF78600B467B800023FB817B689B8BD6
:10575800FB81FB8923F00803FB81FA897B881343CB
:10576800FB817B68FA899A831437BD465DF8047B10
:10577800704700BF80B485B000AF78600B467B806F
:105788000023FB817B689B8BFB81FB8923F40063EF
:10579800FB817B881B029AB2FB891343FB817B68E0
:1057A800FA899A831437BD465DF8047B704700BFB9
:1057B80080B485B000AF78600B467B800023FB8106
:1057C8007B681B8BFB81FB8923F00403FB81FA892F
:1057D8007B881343FB817B68FA891A831437BD469B
:1057E8005DF8047B704700BF80B485B000AF786077
:1057F8000B467B800023FB817B681B8BFB81FB892D
:1058080023F48063FB817B881B029AB2FB891343D4
:10581800FB817B68FA891A831437BD465DF8047BDF
:10582800704700BF80B485B000AF78600B467B80BE
:105838000023FB817B689B8BFB81FB8923F004039E
:10584800FB81FA897B881343FB817B68FA899A83F9
:105858001437BD465DF8047B704700BF80B485B03F
:1058680000AF78600B467B800023FB817B689B8BB5
:10587800FB81FB8923F48063FB817B881B029AB23E
:10588800FB891343FB817B68FA899A831437BD46E9
:105898005DF8047B704700BF80B485B000AF7860C6
:1058A8000B467B800023FB817B681B8BFB81FB897C
:1058B80023F08003FB81FA897B881343FB817B6893
:1058C800FA891A831437BD465DF8047B704700BF18
:1058D80080B485B000AF78600B467B800023FB81E5
:1058E8007B681B8BFB81FB89C3F30E03FB817B88E1
:1058F8001B029AB2FB891343FB817B68FA891A83DE
:105908001437BD465DF8047B704700BF80B485B08E
:1059180000AF78600B467B800023FB817B689B8B04
:10592800FB81FB8923F08003FB81FA897B88134381
:10593800FB817B68FA899A831437BD465DF8047B3E
:10594800704700BF80B485B000AF78600B467B809D
:105958000023FB817B689B8BFB81FB89C3F30E03D0
:10596800FB817B881B029AB2FB891343FB817B680E
:10597800FA899A831437BD465DF8047B704700BFE7
:1059880080B485B000AF78600B467B800023FB8134
:105998007B681B8CFB81FB8923F00203FB81FA895E
:1059A8007B881343FB817B68FA891A841437BD46C8
:1059B8005DF8047B704700BF80B485B000AF7860A5
:1059C8000B467B800023FB817B681B8CFB81FB895A
:1059D80023F00803FB81FA897B881343FB817B68EA
:1059E800FA891A841437BD465DF8047B704700BFF6
:1059F80080B485B000AF78600B467B800023FB81C4
:105A08007B681B8CFB81FB8923F02003FB817B884F
:105A18001B019AB2FB891343FB817B68FA891A84BC
:105A28001437BD465DF8047B704700BF80B485B06D
:105A380000AF78600B467B800023FB817B681B8C62
:105A4800FB81FB8923F08003FB817B881B019AB2D1
:105A5800FB891343FB817B68FA891A841437BD4696
:105A68005DF8047B704700BF80B485B000AF7860F4
:105A78000B467B800023FB817B681B8CFB81FB89A9
:105A880023F40073FB817B881B029AB2FB891343C2
:105A9800FB817B68FA891A841437BD465DF8047B5C
:105AA800704700BF80B485B000AF78600B467B803C
:105AB8000023FB817B681B8CFB81FB8923F400633B
:105AC800FB817B881B029AB2FB891343FB817B68AD
