:020000040800F2
:100000000C0D0020390100088D0100088D01000849
:100010008D0100088D0100088D010008000000001E
:100020000000000000000000000000008D0100083A
:100030008D010008000000008D0100088D010008FE
:100040008D0100088D0100088D0100088D01000858
:100050008D0100088D0100083D0300088D01000896
:1000600081030008C5030008090400088D01000889
:100070008D0100088D0100088D0100088D01000828
:100080008D0100088D0100088D0100088D01000818
:100090008D0100088D0100088D0100088D01000808
:1000A0008D0100088D0100088D0100088D010008F8
:1000B0008D010008110300088D0100088D01000862
:1000C0008D0100088D0100088D0100088D010008D8
:1000D0008D010008D51B00088D0100088D01000866
:1000E0008D0100088D0100088D0100088D010008B8
:1000F0008D0100088D0100088D0100088D010008A8
:100100008D0100088D0100084D0400088D010008D4
:100110008D0100088D0100088D0100088D01000887
:100120008D0100088D0100088D0100088D01000877
:040130005FF808F17B
:1001380080B582B000AF104B7B60104B3B6007E08E
:100148003B681A1D3A607A68111D796012681A6056
:100158003B680B4A9342F3D30C480D494FF0000219
:100168008842B8BF40F8042BFADB00F017FA00F019
:1001780011F80837BD4680BD981F0108000000200F
:100188000C09002080B400AFFEE700000C0D002031
:10019800F40D0020B0B598B002AF78603960002344
:1001A800A7F8563040F21633A7F8543000F08AFB0F
:1001B8000320182101F0A4F804204FF4784101F03D
:1001C8009FF805204FF6E07101F09AF8062000210B
:1001D80001F096F80220062101F092F84FF47A70A7
:1001E80000F012FC224BDB6921489847B7F85630DB
:1001F8000133A7F85630B7F85430013BA7F854300C
:10020800B7F8563007F1480210461A491A460AF05C
:1002180013FC07F14803142014211A4601F0DAF8F8
:100228004FF4C870F021144A01F0D4F806200121D7
:1002380001F066F807F10803184601F0B3FABB7A33
:100248001D467B7A1C463B7A1A4607F1200300922A
:1002580018460A492A4623460AF0EEFB07F120030E
:1002680014204FF4C8711A4601F0B4F8B6E700BF7D
:10027800B00D0020500501085C050108680501085B
:1002880080B582B000AF0346FB71FB79032B2FD8F2
:1002980001A252F823F000BFB1020008C902000809
:1002A800E1020008F1020008134BDB691248984785
:1002B800124B1B880A339BB2184601F0BBF917E0B2
:1002C8000D4BDB690C4898470C4B1B880A3B9BB2CB
:1002D800184601F0AFF90BE0094B1B8832339BB28B
:1002E800184601F091F903E0064B9B69984700BF57
:1002F8000837BD4680BD00BFD00D0020000000209B
:1003080002000020940D002080B500AF07480121AD
:1003180008F04CF80346012B03D1054BDB69044870
:1003280098470248012108F06BF880BD000400409E
:10033800B00D002080B500AF0A2000F065FB032057
:1003480000F0F6FC0346012B0ED1094BDB69084887
:100358009847084B1B880A339AB2064B1A80054BFC
:100368001B88184601F066F9012003F02DFB80BDBB
:10037800D00D00200000002080B500AF0A2000F05A
:1003880043FB022000F0D4FC0346002B0ED1094B9E
:10039800DB6908489847084B1B880A3B9AB2064B0A
:1003A8001A80054B1B88184601F044F9042003F015
:1003B8000BFB80BDD00D00200000002080B500AFF1
:1003C8000A2000F021FB012000F0B2FC0346002BBC
:1003D8000ED1094BDB6908489847084B1B88323314
:1003E8009AB2064B1A80054B1B88184601F00CF987
:1003F800082003F0E9FA80BDD00D0020020000209B
:1004080080B500AF0A2000F0FFFA002000F090FC51
:100418000346002B0ED1094BDB6908489847084B67
:100428001B88323B9AB2064B1A80054B1B8818462C
:1004380001F0EAF8102003F0C7FA80BDD00D0020C3
:100448000200002080B582B000AF384B1B78032B28
:1004580063D801A252F823F02305000871040008AC
:10046800A3040008230500083148022107F09EFF75
:100478000346012B10D12E48002106F0A1FE2C487E
:10048800022107F0FBFB2B4B00221A60274B0222AC
:100498001A7000F0F1FB41E040E02548022107F026
:1004A80085FF0346012B12D100F0FEFB78607868C7
:1004B80000F008FC0246204B1A601D48002107F096
:1004C800DDFB1A4B00221A701A4B00221A601848DA
:1004D800012107F06BFF0346012B1DD1154B1B684B
:1004E800142B13D900F0E0FB0346184600F0EAFB92
:1004F8000246114B1A600E48002107F0BFFB0B4B58
:1005080003221A700B4B00221A6005E0094B1B6886
:100518000133084A136001E000E000BF04480321EA
:1005280007F06EFF0837BD4680BD00BF0C0D0020E8
:10053800000C0040140D0020100D002080B500AF05
:100548004FF4807006F038FB0346012B06D14FF4B8
:10055800807006F053FB04480AF066FA4FF4003046
:1005680003F032FA80BD00BF7C05010880B500AFFA
:100578004FF4806006F020FB0346012B07D14FF4AF
:10058800806006F03BFB044BDB69034898474FF457
:10059800800003F019FA80BDB00D002080B500AFCF
:1005A800114A114B1B6843F0010313600E4B0022E4
:1005B8009A600D4A0C4B1B6823F0847323F4803334
:1005C8001360094B094A5A60074A074B1B6823F412
:1005D80080231360044B0022DA6000F087F8044B94
:1005E8004FF000629A6080BD00380240103000244D
:1005F80000ED00E080B487B000AF00233B6100232A
:100608007B610223FB600023BB6002237B60324BCB
:100618009B6803F00C033B613B69042B07D0082B54
:1006280009D0002B3FD12D4B2D4A1A603FE02B4BB0
:100638002C4A1A603BE0284B5B6803F480039B0D4F
:10064800BB60254B5B6803F03F037B60BB68002BF6
:100658000DD0244A7B68B2FBF3F21F4B596847F66A
:10066800C0730B409B0903FB02F37B610CE01C4A3F
:100678007B68B2FBF3F2184B596847F6C0730B401E
:100688009B0903FB02F37B61134B5B6803F4403364
:100698001B0C01335B00FB607A69FB68B2FBF3F368
:1006A8000E4A136003E00D4B0D4A1A6000BF0A4B57
:1006B8009B6803F0F0031B090B4AD35CDBB23B6178
:1006C800064B1A683B6922FA03F3044A13601C3785
:1006D800BD465DF8047B70470038024004000020E6
:1006E8000024F40000127A000800002080B483B0CF
:1006F80000AF00237B6000233B60354A344B1B6806
:1007080043F480331360324B1B6803F400333B60BF
:100718007B6801337B603B68002B03D17B68B3F5B2
:10072800A04FF0D12A4B1B6803F40033002B02D0F2
:1007380001233B6001E000233B603B68012B42D171
:10074800234A234B1B6C43F080531364214A214BEB
:100758001B6843F4404313601D4A1D4B9B6893601C
:100768001B4A1B4B9B6843F400439360184A184B81
:100778009B6843F4A0539360154B174A5A60144A78
:10078800134B1B6843F08073136000BF104B1B684A
:1007980003F00073002BF9D0104B40F205721A6079
:1007A8000B4A0B4B9B6823F003039360084A084BE2
:1007B8009B6843F00203936000BF054B9B6803F0FE
:1007C8000C03082BF9D10C37BD465DF8047B704744
:1007D800003802400070004008544007003C0240C6
:1007E80080B500AF1D4B4FF400721A801B4B1C4A9A
:1007F8005A601A4B1B4A9A60184B1B4ADA60174B0F
:100808001A4A1A61154B1A4A5A61144B194A9A61C5
:10081800124B194ADA61114B5B6810489847174B1D
:100828004FF480621A80154B0D4A5A60134B0D4ADB
:100838009A60124B0C4ADA60104B0C4A1A610F4B43
:100848000B4A5A610D4B0B4A9A610C4B0A4ADA6102
:100858000A4B5B680948984780BD00BFB00D00206F
:1008680011140008B9140008D1140008591400081C
:1008780095140008E91400081D150008D00D002083
:1008880080B500AF094B0A4A9A60084B094ADA60FA
:10089800064B094A1A61054B084A5A61034B084A34
:1008A8009A61024B9B68984780BD00BF940D002059
:1008B8006D0A0008B10A0008C50A0008D90A00082C
:1008C800450B000880B500AF4FF4A06002F0C2FEEF
:1008D800A82000F00FF84FF4E13001F01BF9FFF702
:1008E8007FFFFFF7CDFF00F0FBF900F079FC00F087
:1008F80031FF80BD80B582B000AF0346FB716FF059
:10090800040002F04FFFFB79DB08DAB2084B1A70DB
:10091800074B1B789BB21A465201D21A9200134415
:10092800DB009AB2034B1A800837BD4680BD00BF72
:10093800240D0020260D002080B485B000AF78601B
:10094800154A164B1B7819467B6803FB01F3536065
:10095800114B00229A60104A0F4B1B6843F00103A9
:1009680013600D4B1B68FB60FB6803F00103002B51
:1009780004D0FB6803F48033002BF2D0064A064B00
:100988001B6823F001031360034B00229A6014379D
:10099800BD465DF8047B704710E000E0240D0020A0
:1009A80080B485B000AF0346FB80154AFB88154923
:1009B800098801FB03F35360114B00229A60104A27
:1009C8000F4B1B6843F0010313600D4B1B68FB6062
:1009D800FB6803F00103002B04D0FB6803F48033A9
:1009E800002BF2D0064A064B1B6823F00103136064
:1009F800034B00229A601437BD465DF8047B7047AC
:100A080010E000E0260D002080B584B000AF03465A
:100A1800FB80FB88124AA2FB03235B0A9BB2FB7391
:100A2800FB880F4AA2FB0312520A4FF4077101FB1D
:100A380002F29B1ABB8106E04FF40770FFF7B0FF84
:100A4800FB7B013BFB73FB7B002BF5D1BB89002BA8
:100A580003D0BB891846FFF7A3FF1037BD4680BDFA
:100A680049D6B9F280B582B000AF2020012104F048
:100A78006BFC4FF480733B6001233B710023BB7117
:100A880003237B710123FB713B460648194603F09B
:100A980065FD04484FF4807103F088FE0837BD46B1
:100AA80080BD00BF0014024080B500AF02484FF47B
:100AB800807103F06DFE80BD0014024080B500AF68
:100AC80002484FF4807103F071FE80BD00140240AB
:100AD80080B584B000AF03463960FB80FB883A6874
:100AE80002FB03F3144AA2FB03239B09FB601BE0F0
:100AF800FFF7DAFFFB884CF2503292FBF3F2134611
:100B08009B0013445B001846FFF716FFFFF7D6FF5C
:100B1800FB884CF2503292FBF3F213469B001344CD
:100B28005B001846FFF708FFFB685A1EFA60002BA7
:100B3800DED11037BD4680BDD34D621080B582B07E
:100B480000AF0023FB800FE0FB880E4AD35C99B20C
:100B5800FB880D4AD35C1A4613469B0013449B003E
:100B680008461946FFF7B4FFFB88064AD35C002BFA
:100B7800EAD1FB88044AD35C002BE5D10837BD468F
:100B880080BD00BF180000203400002080B582B06E
:100B980000AF0120012104F0D7FB01233B600223B1
:100BA8003B7103237B710023BB710223FB713B461E
:100BB8000548194603F0D2FC03480021022203F03D
:100BC8003BFE0837BD4680BD0000024080B586B0B8
:100BD80000AF78600820012104F010FC5323BB818A
:100BE8000023FB817B68013B3B610023BB8207F14B
:100BF8000C030348194606F02FFA1837BD4680BD86
:100C0800000C004080B582B000AF0A4803210122E1
:100C180007F06EFB32233B7102237B710023BB710B
:100C28000123FB713B1D184602F026FD0837BD461F
:100C380080BD00BF000C004080B584B000AFFFF756
:100C4800A5FF4FF0FF30FFF7C1FF0023BB80002353
:100C5800FB8001233B8100237B810023BB813B1D5B
:100C68000448194607F02CF9FFF7CCFF1037BD46AA
:100C780080BD00BF000C004080B500AF02480121D4
:100C880006F06CFB80BD00BF000C004080B500AFD3
:100C98000348002106F062FB024B00221A7080BD57
:100CA800000C00400C0D002080B582B000AF044855
:100CB80007F0CEF978607B6818460837BD4680BDD6
:100CC800000C004080B485B000AF78607B68FB60A2
:100CD800FB6818461437BD465DF8047B704700BFB3
:100CE80080B582B000AF1120012104F02DFB1C2338
:100CF8003B6000233B7103237B710123FB713B465F
:100D08000948194603F02AFC01233B6000233B7184
:100D180003237B710223FB713B460448194603F009
:100D28001DFC0837BD4680BD00100240000002408F
:100D380080B582B000AF0346FB71FB79032B27D83F
:100D480001A252F823F000BF610D00086F0D0008E2
:100D58007D0D00088B0D00081048102103F0C8FC19
:100D68000346DBB215E00D48082103F0C1FC034639
:100D7800DBB20EE00948042103F0BAFC0346DBB2FB
:100D880007E00748012103F0B3FC0346DBB200E0AB
:100D9800FF235BB218460837BD4680BD00100240ED
:100DA8000000024080B500AF0020FFF7C1FF0346F6
:100DB800002B0AD16420FFF727FE0020FFF7B8FFB9
:100DC8000346002B01D1002333E00120FFF7B0FFD9
:100DD8000346002B0AD16420FFF716FE0120FFF717
:100DE800A7FF0346002B01D1012322E00220FFF7D1
:100DF8009FFF0346002B0AD16420FFF705FE02205F
:100E0800FFF796FF0346002B01D1022311E00320D0
:100E1800FFF78EFF0346012B0AD16420FFF7F4FD8C
:100E28000320FFF785FF0346012B01D1032300E0D0
:100E3800BAE7184680BD00BF80B584B000AF7860BF
:100E48007B68FB60FFF7AEFF03461A46FB68104657
:100E580098471037BD4680BD80B584B000AFFFF716
:100E68003FFF4FF48040012104F0E6FA04200221FC
:100E780005F09AFF0420032105F096FF04200421C1
:100E880005F092FF0020002105F08EFF01237B6012
:100E980000233B7208237B720123BB723B1D18465B
:100EA80002F0B6FC1C237B6000233B720C237B7290
:100EB8000123BB723B1D184602F0AAFC06233B73B4
:100EC80000237B730223BB730123FB7307F10C031D
:100ED800184602F0D1FB08233B7303237B730223DC
:100EE800BB730123FB7307F10C03184602F0C4FB24
:100EF80009233B7302237B730223BB730123FB7318
:100F080007F10C03184602F0B7FB0A233B730123D1
:100F18007B730223BB730123FB7307F10C03184691
:100F280002F0AAFB1037BD4680BD00BF80B582B075
:100F380000AF7A20012104F007FA4FF400433B6028
:100F480001233B710023BB7102237B710123FB71D9
:100F58003B465548194603F001FB4CF233733B609E
:100F680002233B710023BB7103237B710123FB71B7
:100F78003B464E48194603F0F1FA4FF680733B6042
:100F880002233B710023BB7103237B710123FB7197
:100F98003B464748194603F0E1FA4FF480533B605B
:100FA80002233B710023BB7103237B710123FB7177
:100FB8003B464048194603F0D1FA4FF480533B6052
:100FC80002233B710023BB7103237B710123FB7157
:100FD8003B463948194603F0C1FA344800210C222F
:100FE80003F02AFC314801210C2203F025FC2F488C
:100FF80004210C2203F020FC2C4805210C2203F0CC
:101008001BFC2A4808210C2203F016FC274809215A
:101018000C2203F011FC25480A210C2203F00CFCD9
:1010280022480E210C2203F007FC20480F210C2235
:1010380003F002FC1E4807210C2203F0FDFB1C48AC
:1010480008210C2203F0F8FB194809210C2203F0AF
:10105800F3FB17480A210C2203F0EEFB14480B217E
:101068000C2203F0E9FB12480C210C2203F0E4FBEC
:101078000F480D210C2203F0DFFB0D480E210C2236
:1010880003F0DAFB0A480F210C2203F0D5FB0948CC
:101098000C210C2203F0D0FB07480C210C2203F092
:1010A800CBFB0837BD4680BD00040240000C02405F
:1010B80000100240001402400018024080B59EB0A3
:1010C80000AF0120012104F07BF90F233B620023CC
:1010D8007B623C23BB620023FB6200233B6300234B
:1010E8007B630023BB6309237B600023BB60082369
:1010F800FB6000233B6100237B610023BB6100236D
:10110800FB610623FB6300233B6400237B641023FD
:10111800BB640023FB6400237B6500233B6500233D
:10112800BB650023FB654FF480533B6600237B6659
:101138004FF48043BB660023FB6607F120033B673F
:101148003B1D7B6707F13C03184602F077FC06203D
:10115800012102F079FD7837BD4680BD80B500AF2A
:1011680002484FF4004103F013FB80BD0004024025
:1011780080B500AF02484FF4004103F017FB80BD73
:101188000004024080B582B000AF0023FB7118E074
:10119800FB79104A52F823301B68984738603B683F
:1011A800002B0BD0FB790B4A52F823300A4A136004
:1011B8000A48396809F0F2FB002306E0FB7901339D
:1011C800FB71FB79002BE3D0FF235BB2184608378D
:1011D800BD4680BD50000020280D0020880501086C
:1011E80080B500AFFFF7A2FEFFF768FFFFF7CAFF61
:1011F8000346002B0BD1064B1B685B689847FFF72B
:10120800ADFF034B1B685B694FF6FF70984780BDC5
:10121800280D002080B582B000AF0346FB800B4646
:10122800BB8013467B80074B1B68002B06D0054B01
:101238001B689B68F888B9887A8898470837BD463C
:1012480080BD00BF280D0020B0B584B002AF0446B1
:10125800084611461A462346FB800346BB800B46C8
:101268007B8013463B80094B1B68002B0AD0074B39
:101278001B68DC68F888B9887A883D883B8B0093BE
:101288002B46A0470837BD46B0BD00BF280D00203B
:10129800B0B584B002AF0446084611461A46234644
:1012A800FB800346BB800B467B8013463B80094B83
:1012B8001B68002B0AD0074B1B681C69F888B98883
:1012C8007A883D88BB6900932B46A0470837BD46FE
:1012D800B0BD00BF280D002080B582B000AF034626
:1012E800FB80064B1B68002B05D0044B1B685B6911
:1012F800FA88104698470837BD4680BD280D00205B
:1013080080B582B000AF78603960074B1B68002B4E
:1013180005D0054B1B689B6978683968984718465B
:101328000837BD4680BD00BF280D002080B582B0BB
:1013380000AF03460A46FB801346BB80074B1B6879
:10134800002B07D0054B1B68DB69F988BA8808466B
:101358001146984718460837BD4680BD280D00201D
:1013680090B583B000AF0446084611461A46234696
:10137800FB800346BB800B467B8013463B80074BB4
:101388001B68002B07D0054B1B681C6AF888B988B6
:101398007A883B88A0470C37BD4690BD280D0020B1
:1013A80080B582B000AF0346FB800B46BB80134676
:1013B800FB70074B1B68002B06D0054B1B685B6A4C
:1013C800F888B988FA7898470837BD4680BD00BFC5
:1013D800280D002080B582B000AF03463A60FB803C
:1013E8000B46BB80074B1B68002B08D0054B1B68BE
:1013F8009B6AF988BA88084611463A6898470837B8
:10140800BD4680BD280D002080B584B000AF78604F
:101418002020012103F098FF7B681B88BB60012313
:101428003B730023BB7303237B730123FB7307F117
:1014380008030648194603F091F87B681B8803489F
:10144800194603F0A5F91037BD4680BD00140240C7
:1014580080B582B000AF78600B46FB70FB78002B3C
:1014680006D17B681B880848194603F09FF908E0F5
:10147800FB78012B05D17B681B880348194603F0CC
:1014880087F90837BD4680BD0014024080B582B098
:1014980000AF78607B681B880448194603F050F950
:1014A800034618460837BD4680BD00BF00140240F9
:1014B80080B582B000AF78607B681B6978680021CE
:1014C80098470837BD4680BD80B582B000AF7860C8
:1014D8007B681B697868012198470837BD4680BD3D
:1014E80080B582B000AF78600B467B807B689B68D4
:1014F800786898477B881846FFF786FA7B68DB6828
:10150800786898477B881846FFF77EFA0837BD4603
:1015180080BD00BF80B582B000AF78607B685B6932
:10152800786898470346002B04D17B68DB687868A5
:10153800984703E07B689B68786898470837BD46FA
:1015480080BD00BF80B582B000AF2020012103F02C
:10155800FBFE4FF400733B6002233B7103237B7156
:101568000023BB710123FB713B460648194602F074
:10157800F5FF04480921092203F05EF90837BD4642
:1015880080BD00BF0014024080B586B000AF03469E
:10159800FB804FF48070012103F030FF5323BB819F
:1015A8000023FB81FB88013B3B610023BB8207F1E1
:1015B8000C030348194605F04FFD1837BD4680BD9A
:1015C8000020004080B586B000AFFFF7BBFF4FF4A6
:1015D800FA70FFF7D9FF6023BB800123FB80022349
:1015E8003B823B1D0748194605F0D8FE05480821EF
:1015F80006F0E8F90348012105F058FE1837BD4602
:1016080080BD00BF0020004080B582B000AF034617
:10161800FB80FB884FF6FF72934206D0FB88184682
:10162800FFF7B2FF024AFB8813800837BD4680BD2A
:101638005400002080B582B000AF0346FB80064B03
:101648001B88FA889A4204D2FB880448194606F097
:101658000DF90837BD4680BD540000200020004029
:1016680080B500AF0248012105F078FE80BD00BFBB
:101678000020004080B500AF0248002105F06EFE52
:1016880080BD00BF0020004080B584B000AF41F6A7
:10169800FF73FB814FF08050012103F0AFFE012062
:1016A80003F020F9002005F09DF9024645F25003A9
:1016B8009A422AD0012003F025FB05E0FB8901337B
:1016C800FB810A20FFF7A0F9412004F041F8034606
:1016D800002BF3D0FB89002B01D1012316E04FF436
:1016E800807003F02FFD012003F05AFD7F237B60FB
:1016F800FF23BB6000233B603B46184604F016F905
:10170800002045F2500105F053F900231846103720
:10171800BD4680BD80B483B000AF0023FB710023B9
:10172800FB7108E0FB79094A52F82330084A136034
:10173800FB790133FB71FB79002BF3D000235BB2FB
:1017480018460C37BD465DF8047B704758000020EA
:101758002C0D002080B500AFFFF796FFFFF7DAFFEA
:101768000346002B03D1024B1B681B68984780BDBA
:101778002C0D002080B582B000AF03463960FB71A4
:10178800074B1B68002B06D0054B1B689B68FA7932
:1017980010463968984718460837BD4680BD00BFCF
:1017A8002C0D002080B582B000AF7860054B1B6817
:1017B800002B04D0034B1B685B6878689847083790
:1017C800BD4680BD2C0D002080B400AF114B002217
:1017D8001A70104B00225A700E4B00229A700D4B53
:1017E8001C22DA700B4B06221A710A4B40F2C372A4
:1017F800DA80084B07221A72064B0022DA60054B82
:1018080004221A61034B00229A82BD465DF8047BCC
:10181800704700BF300D002080B584B000AF7860FD
:1018280007F10C030020194604F066FA07F10803D3
:101838000020194604F068FBBA7B7B681A707A7B33
:101848007B685A703A7B7B689A70BA7A7B68DA70E0
:101858007A7A7B681A71FB7A9AB27B68DA803A7A6C
:101868007B681A721037BD4680BD00BF80B58CB04A
:1018780000AF03463960FB71FB790A2B00F2F18057
:1018880001A252F823F000BFBD180008ED180008A7
:101898001D190008CB190008D7190008711A00088B
:1018A800711A0008711A0008E31900085B1A000889
:1018B800631A00083B689B7887F82C303B685B7894
:1018C80087F82D303B681B7887F82E303B68DB683B
:1018D800DBB287F82F3007F12C030020194604F0FB
:1018E8006BF9C2E03B68DB7887F82A303B681B79E4
:1018F80087F829303B681B7A87F828303B68DB88F3
:10190800DBB287F82B3007F128030020194604F0D2
:1019180055FAAAE04FF48070002104F069FC3B6896
:101928009B7887F82C303B685B7887F82D303B68CC
:101938001B7887F82E30002387F82F303B681B7AF6
:101948003B774FF08043BB6100237B61FB6A3B61BF
:1019580007F1100300204FF480711A4604F022FBAF
:101968004FF4805005F09CF94FF4003002F02CF849
:101978004FF48050012105F0E3F84FF48070012105
:1019880004F036FC4FF400333B62002387F8243020
:10199800082387F82530012387F8263007F120032C
:1019A800184601F035FF29233B7302237B7302237A
:1019B800BB730123FB7307F10C03184601F05CFEAF
:1019C80053E04FF48070012104F012FC4DE04FF415
:1019D8008070002104F00CFC47E0002004F0E0FCDB
:1019E8003B681B69184604F097FC3B689B8A1846BD
:1019F80004F0B2FC4FF4804005F052F94FF4800037
:101A080001F0E2FF4FF48040012105F099F8012030
:101A180004F0C6FC4FF480033B62002387F82430AF
:101A2800082387F82530012387F8263007F120039B
:101A3800184601F0EDFE03233B7302237B73022358
:101A4800BB730123FB7307F10C03184601F014FE66
:101A58000BE0012004F0A4FC07E0002004F0A0FC47
:101A680003E000235BB200E000BF18463037BD46F4
:101A780080BD00BF80B586B000AFF860B9607A60FD
:101A880000237B6113E000BF0D4B1B889BB203F062
:101A98008003002BF8D07B69BA6813441B789BB28B
:101AA8000748194607F012FA7B6901337B617A69A6
:101AB8007B689A42E7DB7B6818461837BD4680BDCD
:101AC8000010014090B587B000AFF860B9607A6047
:101AD80000237B6113E000BF0D4B1B889BB203F012
:101AE8002003002BF8D07B69BA68D418084807F09F
:101AF800FFF90346DBB223707B6901337B617A69A6
:101B08007B689A42E7DB7B6818461C37BD4690BD68
:101B18000010014080B58AB000AF78600120012133
:101B280003F012FC1020012103F086FC254809214E
:101B3800072202F081FE23480A21072202F07CFED8
:101B48004FF4C0633B62022387F82430022387F8EE
:101B58002530002387F82630012387F8273007F13E
:101B680020031848194602F0F9FC7B683B61002302
:101B7800BB820023FB8200233B830023BB830C230F
:101B88007B8307F110031048194607F009F80E483F
:101B9800012107F01DF90C4840F22551012207F0F8
:101BA8003BFB25233B7303237B730323BB73012375
:101BB800FB7307F10C03184601F05EFD2837BD469C
:101BC80080BD00BF000002400010014080B582B017
:101BD80000AF0F4840F2255107F092FB0346002B57
:101BE80012D00B4807F084F90346FB71FB799BB2CE
:101BF8000748194607F06AF900BF0548402107F071
:101C080053FB0346012BF8D10837BD4680BD00BF02
:101C18000010014080B483B000AF03460A46FB8041
:101C28001346BB80054AFB881380054ABB8813808E
:101C38000C37BD465DF8047B704700BF7E00006C22
:101C48008000006C80B582B000AF0346FB80064A76
:101C5800FB8813800520FEF76FFE044B1B889BB2A0
:101C680018460837BD4680BD7E00006C8000006CB9
:101C780080B400AF034B044AD2891A80BD465DF890
:101C8800047B70477E00006C480D002080B582B050
:101C980000AF03460A46FB801346BB80154B1A8AE1
:101CA800FB881B0A9BB210461946FFF7B3FF114B7E
:101CB8001B8A01339AB2FB88DBB29BB210461946E5
:101CC800FFF7A8FF0B4B5A8ABB881B0A9BB210462A
:101CD8001946FFF79FFF074B5B8A01339AB2BB880F
:101CE800DBB29BB210461946FFF794FF0837BD4692
:101CF80080BD00BF480D002090B583B000AF0446FA
:101D0800084611461A462346FB800346BB800B460D
:101D18007B8013463B802B4B1A8AFB881B0A9BB29D
:101D280010461946FFF776FF264B1B8A01339AB2F5
:101D3800FB88DBB29BB210461946FFF76BFF214BBD
:101D48001B8A02339AB27B881B0A9BB2104619463B
:101D5800FFF760FF1B4B1B8A03339AB27B88DBB209
:101D68009BB210461946FFF755FF164B5A8ABB8897
:101D78001B0A9BB210461946FFF74CFF114B5B8AB2
:101D880001339AB2BB88DBB29BB210461946FFF703
:101D980041FF0C4B5B8A02339AB23B881B0A9BB209
:101DA80010461946FFF736FF064B5B8A03339AB293
:101DB8003B88DBB29BB210461946FFF72BFF0C3766
:101DC800BD4690BD480D002080B582B000AF0346E7
:101DD800FB800B46BB8013467B80FA88BB88104685
:101DE8001946FFF753FFFFF743FF034A7B88138029
:101DF8000837BD4680BD00BF8000006C80B584B048
:101E080000AF0346FB80124B1B88013B9AB2104B74
:101E18005B88013B9BB200200021FFF76DFFFFF7B5
:101E280027FF0023FB6005E00A4AFB881380FB6854
:101E38000133FB60064B1B881A46054B5B8803FB86
:101E480002F31A46FB689A42EED81037BD4680BDA9
:101E5800480D00208000006C80B582B000AF4FF4C0
:101E68005A40FFF7EFFE0346FB714FF45B40FFF764
:101E7800E9FE0346BB714FF45C40FFF7E3FE0346FF
:101E88007B71F979BA797B79094808F087FDFB7984
:101E9800002B07D1BB79802B04D17B79002B01D192
:101EA800044B00E0002318460837BD4680BD00BF3C
:101EB800881D01081055030080B400AF134B4FF480
:101EC800F0721A80114B4FF448725A800F4B0C2253
:101ED8009A800E4B0022DA800C4B00221A810B4BA1
:101EE80000225A81094B4FF478429A81074B4FF4EC
:101EF8003052DA81054B4FF428521A82034B4FF4C3
:101F08002C525A82BD465DF8047B7047480D00206C
:101F180080B500AF3220FEF777FD00200121FFF7E2
:101F280079FE3220FEF770FD4FF470405521FFF71F
:101F380071FE4FF20100AA21FFF76CFE4FF202007A
:101F48005221FFF767FE4FF203000821FFF762FEF8
:101F58004FF204000121FFF75DFE4FF430400D21E0
:101F6800FFF758FE4BF201000D21FFF753FE4BF22D
:101F780002000D21FFF74EFE4FF436403421FFF7E3
:101F880049FE4BF201603421FFF744FE4BF2026038
:101F98003421FFF73FFE4FF431400D21FFF73AFEA1
:101FA8004BF201100D21FFF735FE4BF202100D2107
:101FB800FFF730FE4FF437403421FFF72BFE4BF28A
:101FC80001703421FFF726FE4BF202703421FFF72F
:101FD80021FE4FF432400021FFF71CFE4BF2012096
:101FE8000021FFF717FE4BF202200021FFF712FE37
:101FF8004FF438402421FFF70DFE4BF60100242151
:10200800FFF708FE4BF602002421FFF703FE4FF40A
:102018003F400121FFF7FEFD4FF433400F21FFF74A
:10202800F9FD4BF201300F21FFF7F4FD4BF20230BE
:102038000F21FFF7EFFD4FF439403421FFF7EAFD98
:102048004BF601103421FFF7E5FD4BF60210342161
:10205800FFF7E0FD4FF435400821FFF7DBFD4BF2B9
:1020680001500821FFF7D6FD4BF202500821FFF777
:10207800D1FD4FF442400321FFF7CCFD4FF43A4025
:102088002421FFF7C7FD4BF601202421FFF7C2FDED
:102098004BF602202421FFF7BDFD4FF43C40002100
:1020A800FFF7B8FD4BF601407821FFF7B3FD4BF67B
:1020B80002400021FFF7AEFD4FF43D400021FFF73D
:1020C800A9FD4BF601507821FFF7A4FD4BF602500D
:1020D8000021FFF79FFD4FF43E400021FFF79AFDD6
:1020E8004BF601606421FFF795FD4FF45140002144
:1020F800FFF790FD4DF201103321FFF78BFD4DF2F4
:1021080002100021FFF786FD4DF203103421FFF77E
:1021180081FD4DF204100021FFF77CFD4DF2051002
:102128003A21FFF777FD4DF206100021FFF772FD07
:102138004DF207104A21FFF76DFD4DF208100021FE
:10214800FFF768FD4DF209105C21FFF763FD4DF2C2
:102158000A100021FFF75EFD4DF20B108121FFF7F9
:1021680059FD4DF20C100021FFF754FD4DF20D10F2
:10217800A621FFF74FFD4DF20E100021FFF74AFD93
:102188004DF20F10E521FFF745FD4DF2101001212A
:10219800FFF740FD4DF211101321FFF73BFD4DF203
:1021A80012100121FFF736FD4DF213105421FFF7ED
:1021B80031FD4DF214100121FFF72CFD4DF21510E1
:1021C8008221FFF727FD4DF216100121FFF722FDAE
:1021D8004DF21710CA21FFF71DFD4DF2181002210C
:1021E800FFF718FD4DF219100021FFF713FD4DF20E
:1021F8001A100221FFF70EFD4DF21B100121FFF707
:1022080009FD4DF21C100221FFF704FD4DF21D10CF
:102218003421FFF7FFFC4DF21E100221FFF7FAFCF4
:102228004DF21F106721FFF7F5FC4DF22010022137
:10223800FFF7F0FC4DF221108421FFF7EBFC4DF283
:1022480022100221FFF7E6FC4DF22310A421FFF72C
:10225800E1FC4DF224100221FFF7DCFC4DF22510C1
:10226800B721FFF7D7FC4DF226100221FFF7D2FC69
:102278004DF22710CF21FFF7CDFC4DF22810022197
:10228800FFF7C8FC4DF22910DE21FFF7C3FC4DF221
:102298002A100221FFF7BEFC4DF22B10F221FFF7A6
:1022A800B9FC4DF22C100221FFF7B4FC4DF22D10B1
:1022B800FE21FFF7AFFC4DF22E100321FFF7AAFC19
:1022C8004DF22F101021FFF7A5FC4DF2301003211D
:1022D800FFF7A0FC4DF231103321FFF79BFC4DF2C4
:1022E80032100321FFF796FC4DF233106D21FFF7F2
:1022F80091FC4FF452400021FFF78CFC4DF2012075
:102308003321FFF787FC4DF202200021FFF782FC02
:102318004DF203203421FFF77DFC4DF2042000210B
:10232800FFF778FC4DF205203A21FFF773FC4DF2D8
:1023380006200021FFF76EFC4DF207204A21FFF727
:1023480069FC4DF208200021FFF764FC4DF20920DA
:102358005C21FFF75FFC4DF20A200021FFF75AFCD1
:102368004DF20B208121FFF755FC4DF20C20002186
:10237800FFF750FC4DF20D20A621FFF74BFC4DF264
:102388000E200021FFF746FC4DF20F20E521FFF754
:1023980041FC4DF210200121FFF73CFC4DF21120C9
:1023A8001321FFF737FC4DF212200121FFF732FC11
:1023B8004DF213205421FFF72DFC4DF2142001217A
:1023C800FFF728FC4DF215208221FFF723FC4DF280
:1023D80016200121FFF71EFC4DF21720CA21FFF736
:1023E80019FC4DF218200221FFF714FC4DF21920B8
:1023F8000021FFF70FFC4DF21A200221FFF70AFC1B
:102408004DF21B200121FFF705FC4DF21C20022193
:10241800FFF700FC4DF21D203421FFF7FBFB4DF2C6
:102428001E200221FFF7F6FB4DF21F206721FFF760
:10243800F1FB4DF220200221FFF7ECFB4DF22120A9
:102448008421FFF7E7FB4DF222200221FFF7E2FB90
:102458004DF22320A421FFF7DDFB4DF224200221B9
:10246800FFF7D8FB4DF22520B721FFF7D3FB4DF23C
:1024780026200221FFF7CEFB4DF22720CF21FFF7C0
:10248800C9FB4DF228200221FFF7C4FB4DF2292099
:10249800DE21FFF7BFFB4DF22A200221FFF7BAFB2E
:1024A8004DF22B20F221FFF7B5FB4DF22C20022133
:1024B800FFF7B0FB4DF22D20FE21FFF7ABFB4DF2ED
:1024C8002E200321FFF7A6FB4DF22F201021FFF746
:1024D800A1FB4DF230200321FFF79CFB4DF2312088
:1024E8003321FFF797FB4DF232200321FFF792FBD0
:1024F8004DF233206D21FFF78DFB4FF4534000213F
:10250800FFF788FB4DF201303321FFF783FB4DF2D3
:1025180002300021FFF77EFB4DF203303421FFF734
:1025280079FB4DF204300021FFF774FB4DF20530C2
:102538003A21FFF76FFB4DF206300021FFF76AFBE7
:102548004DF207304A21FFF765FB4DF208300021B4
:10255800FFF760FB4DF209305C21FFF75BFB4DF2A2
:102568000A300021FFF756FB4DF20B308121FFF7AF
:1025780051FB4DF20C300021FFF74CFB4DF20D30B2
:10258800A621FFF747FB4DF20E300021FFF742FB73
:102598004DF20F30E521FFF73DFB4DF210300121E0
:1025A800FFF738FB4DF211301321FFF733FB4DF2E3
:1025B80012300121FFF72EFB4DF213305421FFF7A3
:1025C80029FB4DF214300121FFF724FB4DF21530A1
:1025D8008221FFF71FFB4DF216300121FFF71AFB8E
:1025E8004DF21730CA21FFF715FB4DF218300221C2
:1025F800FFF710FB4DF219300021FFF70BFB4DF2EE
:102608001A300221FFF706FB4DF21B300121FFF7BC
:1026180001FB4DF21C300221FFF7FCFA4DF21D3090
:102628003421FFF7F7FA4DF21E300221FFF7F2FAD4
:102638004DF21F306721FFF7EDFA4DF220300221ED
:10264800FFF7E8FA4DF221308421FFF7E3FA4DF263
:1026580022300221FFF7DEFA4DF22330A421FFF7E2
:10266800D9FA4DF224300221FFF7D4FA4DF2253081
:10267800B721FFF7CFFA4DF226300221FFF7CAFA49
:102688004DF22730CF21FFF7C5FA4DF2283002214D
:10269800FFF7C0FA4DF22930DE21FFF7BBFA4DF201
:1026A8002A300221FFF7B6FA4DF22B30F221FFF75C
:1026B800B1FA4DF22C300221FFF7ACFA4DF22D3071
:1026C800FE21FFF7A7FA4DF22E300321FFF7A2FAF9
:1026D8004DF22F301021FFF79DFA4DF230300321D3
:1026E800FFF798FA4DF231303321FFF793FA4DF2A4
:1026F80032300321FFF78EFA4DF233306D21FFF7A8
:1027080089FA4FF454400021FFF784FA4DF2014052
:102718003321FFF77FFA4DF202400021FFF77AFAE2
:102728004DF203403421FFF775FA4DF204400021C1
:10273800FFF770FA4DF205403A21FFF76BFA4DF2B8
:1027480006400021FFF766FA4DF207404A21FFF7DD
:1027580061FA4DF208400021FFF75CFA4DF209409A
:102768005C21FFF757FA4DF20A400021FFF752FAB1
:102778004DF20B408121FFF74DFA4DF20C4000213C
:10278800FFF748FA4DF20D40A621FFF743FA4DF244
:102798000E400021FFF73EFA4DF20F40E521FFF70A
:1027A80039FA4DF210400121FFF734FA4DF2114089
:1027B8001321FFF72FFA4DF212400121FFF72AFAF1
:1027C8004DF213405421FFF725FA4DF21440012130
:1027D800FFF720FA4DF215408221FFF71BFA4DF260
:1027E80016400121FFF716FA4DF21740CA21FFF7EC
:1027F80011FA4DF218400221FFF70CFA4DF2194078
:102808000021FFF707FA4DF21A400221FFF702FAFA
:102818004DF21B400121FFF7FDF94DF21C4002214A
:10282800FFF7F8F94DF21D403421FFF7F3F94DF2A7
:102838001E400221FFF7EEF94DF21F406721FFF716
:10284800E9F94DF220400221FFF7E4F94DF2214069
:102858008421FFF7DFF94DF222400221FFF7DAF970
:102868004DF22340A421FFF7D5F94DF2244002216F
:10287800FFF7D0F94DF22540B721FFF7CBF94DF21C
:1028880026400221FFF7C6F94DF22740CF21FFF776
:10289800C1F94DF228400221FFF7BCF94DF2294059
:1028A800DE21FFF7B7F94DF22A400221FFF7B2F90E
:1028B8004DF22B40F221FFF7ADF94DF22C400221E9
:1028C800FFF7A8F94DF22D40FE21FFF7A3F94DF2CD
:1028D8002E400321FFF79EF94DF22F401021FFF7FC
:1028E80099F94DF230400321FFF794F94DF2314048
:1028F8003321FFF78FF94DF232400321FFF78AF9B0
:102908004DF233406D21FFF785F94FF45540002112
:10291800FFF780F94DF201503321FFF77BF94DF2B3
:1029280002500021FFF776F94DF203503421FFF7EA
:1029380071F94DF204500021FFF76CF94DF2055082
:102948003A21FFF767F94DF206500021FFF762F9C7
:102958004DF207504A21FFF75DF94DF2085000216A
:10296800FFF758F94DF209505C21FFF753F94DF282
:102978000A500021FFF74EF94DF20B508121FFF765
:1029880049F94DF20C500021FFF744F94DF20D5072
:10299800A621FFF73FF94DF20E500021FFF73AF953
:1029A8004DF20F50E521FFF735F94DF21050012196
:1029B800FFF730F94DF211501321FFF72BF94DF2C3
:1029C80012500121FFF726F94DF213505421FFF759
:1029D80021F94DF214500121FFF71CF94DF2155061
:1029E8008221FFF717F94DF216500121FFF712F96E
:1029F8004DF21750CA21FFF70DF94DF21850022178
:102A0800FFF708F94DF219500021FFF703F94DF2CD
:102A18001A500221FFF7FEF84DF21B500121FFF773
:102A2800F9F84DF21C500221FFF7F4F84DF21D5051
:102A38003421FFF7EFF84DF21E500221FFF7EAF8B4
:102A48004DF21F506721FFF7E5F84DF220500221A3
:102A5800FFF7E0F84DF221508421FFF7DBF84DF243
:102A680022500221FFF7D6F84DF22350A421FFF798
:102A7800D1F84DF224500221FFF7CCF84DF2255041
:102A8800B721FFF7C7F84DF226500221FFF7C2F829
:102A98004DF22750CF21FFF7BDF84DF22850022103
:102AA800FFF7B8F84DF22950DE21FFF7B3F84DF2E1
:102AB8002A500221FFF7AEF84DF22B50F221FFF712
:102AC800A9F84DF22C500221FFF7A4F84DF22D5031
:102AD800FE21FFF79FF84DF22E500321FFF79AF8D9
:102AE8004DF22F501021FFF795F84DF23050032189
:102AF800FFF790F84DF231503321FFF78BF84DF284
:102B080032500321FFF786F84DF233506D21FFF75D
:102B180081F84FF456400021FFF77CF84DF2016030
:102B28003321FFF777F84DF202600021FFF772F8C2
:102B38004DF203603421FFF76DF84DF20460002177
:102B4800FFF768F84DF205603A21FFF763F84DF298
:102B580006600021FFF75EF84DF207604A21FFF793
:102B680059F84DF208600021FFF754F84DF209605A
:102B78005C21FFF74FF84DF20A600021FFF74AF891
:102B88004DF20B608121FFF745F84DF20C600021F2
:102B9800FFF740F84DF20D60A621FFF73BF84DF224
:102BA8000E600021FFF736F84DF20F60E521FFF7C0
:102BB80031F84DF210600121FFF72CF84DF2116049
:102BC8001321FFF727F84DF212600121FFF722F8D1
:102BD8004DF213605421FFF71DF84DF214600121E6
:102BE800FFF718F84DF215608221FFF713F84DF240
:102BF80016600121FFF70EF84DF21760CA21FFF7A2
:102C080009F84DF218600221FFF704F84DF2196037
:102C18000021FEF7FFFF4DF21A600221FEF7FAFFCE
:102C28004DF21B600121FEF7F5FF4DF21C600221F9
:102C3800FEF7F0FF4DF21D603421FEF7EBFF4DF279
:102C48001E600221FEF7E6FF4DF21F606721FEF7C6
:102C5800E1FF4DF220600221FEF7DCFF4DF221601A
:102C68008421FEF7D7FF4DF222600221FEF7D2FF42
:102C78004DF22360A421FEF7CDFF4DF2246002211E
:102C8800FEF7C8FF4DF22560B721FEF7C3FF4DF2EE
:102C980026600221FEF7BEFF4DF22760CF21FEF726
:102CA800B9FF4DF228600221FEF7B4FF4DF229600A
:102CB800DE21FEF7AFFF4DF22A600221FEF7AAFFE0
:102CC8004DF22B60F221FEF7A5FF4DF22C60022198
:102CD800FEF7A0FF4DF22D60FE21FEF79BFF4DF29F
:102CE8002E600321FEF796FF4DF22F601021FEF7AC
:102CF80091FF4DF230600321FEF78CFF4DF23160F9
:102D08003321FEF787FF4DF232600321FEF782FF81
:102D18004DF233606D21FEF77DFF4FF47040552171
:102D2800FEF778FF4FF20100AA21FEF773FF4FF27A
:102D380002005221FEF76EFF4FF203000821FEF752
:102D480069FF4FF204000021FEF764FF4FF43140A1
:102D5800CC21FEF75FFF4BF201100021FEF75AFF6E
:102D68004FF436400521FEF755FF4FF437407021E8
:102D7800FEF750FF4BF201707021FEF74BFF4FF446
:102D880038400121FEF746FF4BF601000321FEF70C
:102D980041FF4BF602000321FEF73CFF4BF6030010
:102DA8000321FEF737FF4FF43C400221FEF732FFC4
:102DB8004BF601400021FEF72DFF4BF602400021A3
:102DC800FEF728FF4FF44940D021FEF723FF4CF6C9
:102DD80001100221FEF71EFF4CF602105021FEF7EB
:102DE80019FF4CF603105021FEF714FF4CF604109F
:102DF8005021FEF70FFF4FF454500021FEF70AFF51
:102E08004FF468505521FEF705FF00239BB24FF49D
:102E180058501946FEF7FEFE064B4FF488521A80AA
:102E28007820FDF789FD034B4FF424521A80FFF7F1
:102E380043F880BD7E00006C90B585B000AF0446B5
:102E4800084611461A462346FB800346BB800B46BC
:102E58007B8013463B80194B1B887A889A4229D27B
:102E6800164B5B883A889A4224D27A88FB88D31A10
:102E78009BB201337B813A88BB88D31A9BB201335A
:102E88003B81F888B9887A883B88FEF735FFFEF7DA
:102E9800EFFE0023FB6005E0094A3B8C1380FB68CA
:102EA8000133FB607B893A8902FB03F31A46FB680E
:102EB8009A42F1D81437BD4690BD00BF480D002096
:102EC8008000006C90B585B000AF044608461146F6
:102ED8001A462346FB800346BB800B467B8013467D
:102EE8003B80FA887B8813449BB2013B7B81BA887C
:102EF8003B8813449BB2013B3B81154B1B887A8965
:102F08009A4221D2124B5B883A899A421CD2F8889D
:102F1800B9887A893B89FEF7EFFEFEF7A9FE002300
:102F2800FB6009E00B49FB685B003A6A13441B88A5
:102F38000B80FB680133FB607B883A8802FB03F354
:102F48001A46FB689A42EDD81437BD4690BD00BFBB
:102F5800480D00208000006C80B584B000AF786018
:102F680039607B68062B47D801A252F823F000BFCE
:102F78000130000801300008952F0008D92F0008FB
:102F8800E32F0008ED2F0008F72F00081E4A3B68C2
:102F980052F823309BB24FF458501946FEF73AFEC8
:102FA8003B68032B13D9194B1A88184B5B889A4234
:102FB8000DD2164B01221A81144B1B88FB81134B2F
:102FC8005A88124B1A80114AFB89538015E014E085
:102FD8003B689AB20D4B9A800FE03B689AB20B4B54
:102FE8005A810AE03B689AB2084B9A8105E03B682F
:102FF8009AB2064BDA8000E000BF00235BB21846A5
:103008001037BD4680BD00BF681D0108480D00206F
:1030180080B485B000AF03460A46FB801346BB80E8
:103028000023FB810023BB8100237B81FB88DBB26B
:103038009B10BB81FB88DB0AFB81BB88DB0A7B8199
:10304800FB89DB029AB2BB895B019BB213439AB23C
:103058007B8913439BB29BB218461437BD465DF873
:10306800047B704780B584B000AF03460A46FB80F6
:103078001346BB800023FB810023BB81174B1B88B1
:10308800FA889A4225D2154B5B88BA889A4220D290
:10309800FA88BB8810461946FEF7F8FD104B4FF426
:1030A80038521A800F4B1B88FB810220FDF744FC25
:1030B8000C4B1B88FB810220FDF73EFC094B1B884B
:1030C800BB81FA89BB8910461946FFF7A1FF034661
:1030D80000E0002318461037BD4680BD480D00208B
:1030E8007E00006C8000006CB0B586B000AF04466E
:1030F800084611461A462346FB800346BB800B460A
:103108007B8013463B804FF000033B614FF0000388
:10311800FB604FF000037B614FF00003BB603A880F
:10312800BB88D31A184606F01DFA04467A88FB882D
:10313800D31A184606F016FA03462046194606F032
:1031480019FB03463B613B88184606F00BFA044618
:103158007B88184606F006FA03461846396906F0D1
:1031680055FA03462046194606F046F90346FB6021
:10317800FA887B889A426AD26B4B1A88FB889342FA
:1031880028BF13469BB2184606F0ECF903467B614C
:1031980044E0786906F000FC03469CB23869796916
:1031A80006F034FA03461846F96806F027F903468C
:1031B8001D465D4B5B88184606F0D4F90346284641
:1031C800194606F0C1FB0346002B0FD03869796910
:1031D80006F01CFA03461846F96806F00FF903468C
:1031E800184606F0D9FB03469BB20AE04E4B5B88B3
:1031F800184606F0B7F90346184606F0CDFB034615
:103208009BB2494A528920461946FEF7DDFD786986
:103218004FF07E5106F0F2F803467B61424B1B8863
:103228007A889A4205D27B88184606F09BF90346AD
:1032380005E03D4B1B88184606F094F903461846EE
:10324800796906F09FFB0346002BA2D169E0364B53
:103258001A88FB88934228BF13469BB2184606F08B
:1032680081F903467B6144E0786906F095FB0346E3
:103278009CB23869796906F0C9F903461846F968B5
:1032880006F0BCF803461D46274B5B88184606F037
:1032980069F903462846194606F056FB0346002BF3
:1032A8000FD03869796906F0B1F903461846F9680C
:1032B80006F0A4F80346184606F06EFB03469BB2D8
:1032C8000AE0194B5B88184606F04CF90346184685
:1032D80006F062FB03469BB2134A52892046194600
:1032E800FEF772FD78694FF07E5106F085F80346C7
:1032F8007B610D4B1B887A889A4205D27B881846D9
:1033080006F030F9034605E0074B1B88184606F01F
:1033180029F903461846796906F016FB0346002B7F
:10332800A2D11837BD46B0BD480D002080B58AB07F
:1033380000AF0346FB800B46BB801346FB7000239F
:103348003B77AB4B9B88DB089BB21A46A84B9B8804
:1033580003F007039BB2002B14BF01230023DBB249
:103368001344DAB2A24B9B885B089BB2DBB212FB18
:1033780003F33B77FB78203BFB769D4B9B88102B18
:1033880067D0182B00F0C1800C2B00D02DE1002352
:1033980087F8273057E0FA7E97F8271095481346A4
:1033A8005B0013449B000B4403441B787B61FA7E4B
:1033B80097F82730591C8F4813465B0013449B002D
:1033C8000B4403441B783B617B699BB21B029AB296
:1033D8003B699BB21344BB840023FB7728E0BB8C7A
:1033E8001BB2002B0DDAFB7F9AB2BB8813449AB24A
:1033F8007F4B5B89F988084611461A46FEF7E4FCBC
:1034080010E07B4BDB88012B0CD1FB7F9AB2BB8889
:1034180013449AB2764B9B89F988084611461A4696
:10342800FEF7D2FCBB8C5B00BB84FB7F0133FB77D0
:10343800FB7F0B2BD3D9FB880133FB8097F8273010
:10344800023387F8273097F827203B7F9A42A2D388
:10345800CBE0002387F8273051E0FA7E97F8273031
:103468006549120113440B441B787B61FA7E97F877
:10347800273001336049120113440B441B783B6128
:103488007B699BB21B029AB23B699BB21344BB8413
:103498000023BB7728E0BB8C1BB2002B0DDABB7F67
:1034A8009AB2BB8813449AB2514B5B89F988084693
:1034B80011461A46FEF788FC10E04D4BDB88012BBD
:1034C8000CD1BB7F9AB2BB8813449AB2484B9B89F4
:1034D800F988084611461A46FEF776FCBB8C5B0055
:1034E800BB84BB7F0133BB77BB7F0F2BD3D9FB8852
:1034F8000133FB8097F82730023387F8273097F895
:1035080027203B7F9A42A8D36FE0002387F8273013
:1035180065E0FA7E97F8271038481346DB00134415
:103528009B000B4403441B787B61FA7E97F8273095
:10353800591C32481346DB0013449B000B440344D8
:103548001B783B61FA7E97F82730991C2B48134665
:10355800DB0013449B000B4403441B78FB607B692E
:103568001A043B691B021A44FB6813443B6200239C
:103578007B7729E03B6A03F40003002B0DD07B7FA7
:103588009AB2BB8813449AB2194B5B89F9880846EA
:1035980011461A46FEF718FC10E0154BDB88012B84
:1035A8000CD17B7F9AB2BB8813449AB2104B9B898B
:1035B800F988084611461A46FEF706FC3B6A5B0086
:1035C8003B627B7F01337B777B7F172BD2D9FB88CC
:1035D8000133FB8097F82730033387F8273097F8B3
:1035E80027203B7F9A4294D300BF2837BD4680BD31
:1035F800480D0020A80501081C0A01080C10010844
:1036080080B582B000AF03463A60FB800B46BB80B2
:1036180012E03B681B78F988BA88084611461A46B2
:10362800FFF784FE3B6801333B60094B9B885B08CE
:103638009AB2FB881344FB803B681B787E2B03D827
:103648003B681B781F2BE4D80837BD4680BD00BFF8
:10365800480D002080B483B000AF7860054A7B68CD
:1036680043F0BF6343F40033D3600C37BD465DF8C5
:10367800047B704700ED00E080B485B000AF78604F
:103688000023FB730023BB730F237B737B68DB78FA
:10369800002B38D0264BDB68DB4303F4E0631B0ABE
:1036A800FB73FB7BC3F10403BB737A7BFB7B42FA9E
:1036B80003F37B737B685B781A46BB7B02FA03F3E0
:1036C800FB737B689A787B7B1340DAB2FB7B1343EE
:1036D800FB73FB7B1B01FB73164A7B681B78134447
:1036E800FA7B83F80023134A7B681B785B09DBB2FB
:1036F80018467B681B7803F01F03012101FA03F3C6
:1037080042F820300FE00B497B681B785B09DBB27D
:1037180018467B681B7803F01F0301229A4000F1CA
:10372800200341F823201437BD465DF8047B704719
:1037380000ED00E000E100E080B483B000AF786005
:10374800396007493B6823F0604323F07F037A68B8
:1037580013438B600C37BD465DF8047B704700BF90
:1037680000ED00E080B483B000AF03460A46FB7169
:103778001346BB71BB79002B06D00949084B1A695F
:10378800FB7913430B6106E00549054B1A69FB7980
:10379800DB4313400B610C37BD465DF8047B704773
:1037A80000ED00E080B483B000AF78607B68042B44
:1037B80006D1094A084B1B6843F00403136005E06F
:1037C800054A054B1B6823F0040313600C37BD46FC
:1037D8005DF8047B704700BF10E000E080B400AFE4
:1037E800094B00221A60084B00225A60064B00223F
:1037F8009A60054B0022DA60034B044A5A61BD46C1
:103808005DF8047B704700BF003C0140FFFF7F006C
:1038180080B485B000AF78600023FB60344BFB6058
:103828007B689B79002B4FD03149314B1A687B68F4
:103838001B68DB4313400B602D492D4B5A687B688E
:103848001B68DB4313404B607B681B791A46FB6897
:103858001344FB60FB68FA6811687A6812680A43C7
:103868001A602349224B9A687B681B68DB43134024
:103878008B601F491E4BDA687B681B68DB4313406B
:10388800CB607B685B79102B0ED11949184B9A686D
:103898007B681B6813438B601549154BDA687B6896
:1038A8001B681343CB601DE0114BFB607B685B79A1
:1038B8001A46FB681344FB60FB68FA6811687A686B
:1038C80012680A431A600DE07B681B791A46FB6888
:1038D8001344FB60FB68FA6811687A681268D2437F
:1038E8000A401A601437BD465DF8047B704700BF74
:1038F800003C014080B483B000AF78607B68002250
:103908001A607B6800221A717B680C225A717B68E6
:1039180000229A710C37BD465DF8047B704700BFE2
:1039280080B483B000AF78600549054B1A697B689D
:1039380013430B610C37BD465DF8047B704700BF2D
:10394800003C014080B485B000AF78600023FB7371
:10395800084B5A697B681340002B02D00123FB7384
:1039680001E00023FB73FB7B18461437BD465DF866
:10397800047B7047003C014080B483B000AF78609E
:10398800034A7B6853610C37BD465DF8047B70477A
:10399800003C014080B485B000AF78600023FB7321
:1039A800084B5A697B681340002B02D00123FB7334
:1039B80001E00023FB73FB7B18461437BD465DF816
:1039C800047B7047003C014080B483B000AF78604E
:1039D800034A7B6853610C37BD465DF8047B70472A
:1039E800003C014080B483B000AF78607B68002B56
:1039F80007D14FF020427B6843F2DB0142F82310E5
:103A080006E04FF020427B6843F2D20142F82310CF
:103A18004FF020427B6801336FF0704142F8231069
:103A2800054A7B686FF0704142F823100C37BD4699
:103A38005DF8047B704700BF040100A080B487B024
:103A480000AF786000237B6100233B610023FB60AB
:103A58004FF020427B681B6852F823307B617A69FB
:103A6800594B13407B617B685A687B689B681A4393
:103A78007B68DB681A437B681B691A437B685B6950
:103A88001A437B689B691A437B68DB691A437B6826
:103A98001B6A1A437B685B6A1A437B689B6A1A43F2
:103AA8007B68DB6A1A437B681B6B13437A69134391
:103AB8007B614FF020417B681B687A6941F82320BD
:103AC8007B689B68082B0DD14FF020417B681B68F1
:103AD8004FF020407A68126850F8222042F04002E5
:103AE80041F823204FF020427B681B68013352F8CD
:103AF80023303B613B6903F040433B617B685B6B70
:103B08001A687B685B6B5B681B011A437B685B6B9D
:103B18009B681B021A437B685B6BDB681B041A43B8
:103B28007B685B6B1B691B051A437B685B6B5B6976
:103B38001B061A437B685B6B9B6913433A69134303
:103B48003B614FF020417B681B6801333A6941F8BB
:103B580023207B68DB6AB3F5804F29D11B4A7B6839
:103B68001B6852F82330FB60FA68194B1340FB605E
:103B78007B689B6B1A687B689B6B5B681B011A43AD
:103B88007B689B6B9B681B021A437B689B6BDB689B
:103B98001B041A437B689B6B9B691343FA681343A6
:103BA800FB600A497B681B68FA6841F8232006E035
:103BB800064A7B681B686FF0704142F823101C3777
:103BC800BD465DF8047B70478000F7FF040100A044
:103BD8000000F0CF80B483B000AF78607B6800222B
:103BE8001A607B6802225A607B6800229A607B68B0
:103BF8000022DA607B6800221A617B6800225A6121
:103C08007B6800229A617B680022DA617B68002267
:103C18001A627B684FF480525A627B684FF40052F4
:103C28009A627B680022DA627B6800221A637B68EA
:103C3800044A5A637B68034A9A630C37BD465DF8A9
:103C4800047B7047CC1D010880B483B000AF786056
:103C58000B46FB70FB78002B0CD04FF020414FF047
:103C680020427B6852F8233043F001027B6841F818
:103C780023200BE04FF020414FF020427B6852F8A0
:103C88002320054B13407A6841F822300C37BD4693
:103C98005DF8047B704700BFFEFF0F0080B483B05F
:103CA80000AF78607B68102B0ED1114B18221A6078
:103CB8000F4B40225A600E4B4FF0FC329A600C4B6F
:103CC8004FF0FC32DA600DE00A4B18221A60094BFB
:103CD80040225A60074B4FF0FC329A60054B4FF078
:103CE800FC32DA600C37BD465DF8047B704700BFD4
:103CF800600000A0800000A080B487B000AF7860AA
:103D080000237B6100233B610023FB607B681B6809
:103D1800102B03D1414B1B687B6102E0404B1B68B1
:103D28007B617A693F4B13407B617B685A687B688B
:103D38009B681A437B68DB681A437B681B691A43D4
:103D48007B685B695B021A437B689B695B031A4368
:103D58007B69134343F008037B617B681B68102B66
:103D680003D12E4B9B683B6102E02D4B9B683B6166
:103D780000233B617B68DB691A687B68DB695B68E9
:103D88001B021A437B68DB699B681B041A437B6828
:103D9800DB69DB681B0613433A6913433B617B68A5
:103DA8001B68102B03D11D4BDB68FB6002E01B4B2B
:103DB800DB68FB600023FB607B681B6A1A687B6812
:103DC8001B6A5B681B021A437B681B6A9B681B049F
:103DD8001A437B681B6ADB681B061343FA681343A4
:103DE800FB607B681B68102B09D10C4A7B69136048
:103DF8000A4A3B699360094AFB68D36008E0084AAD
:103E08007B691360064A3B699360054AFB68D36087
:103E18001C37BD465DF8047B704700BF600000A0FA
:103E2800800000A08101F0FF80B483B000AF78600B
:103E38007B6810221A607B6800225A607B68002227
:103E48009A607B680022DA607B6800221A617B68CE
:103E580000225A617B6800229A617B68DB69FC2238
:103E68001A607B68DB69FC225A607B68DB69FC228C
:103E78009A607B68DB69FC22DA607B681B6AFC223B
:103E88001A607B681B6AFC225A607B681B6AFC22EA
:103E98009A607B681B6AFC22DA600C37BD465DF8C5
:103EA800047B704780B483B000AF78600B46FB702A
:103EB800FB78002B10D07B68102B06D1114A114BD0
:103EC8001B6843F00403136016E00F4A0E4B1B688F
:103ED80043F0040313600FE07B68102B06D10949F7
:103EE800084B1A68094B13400B6005E00649064B5E
:103EF8001A68064B13400B600C37BD465DF8047B0F
:103F0800704700BF600000A0800000A0FBFF0F000A
:103F180080B483B000AF78600B46FB70FB78002B51
:103F280010D07B68102B06D1114A114B1B6843F047
:103F38004003136016E00F4A0E4B1B6843F0400322
:103F480013600FE07B68102B06D10949084B1A68EB
:103F5800094B13400B6005E00649064B1A68064BEF
:103F680013400B600C37BD465DF8047B704700BFFB
:103F7800600000A0800000A0BFFF0F0080B485B0E3
:103F880000AF78600023FB607B68102B03D1074BE0
:103F98005B69FB6002E0064B5B69FB60FB681846E7
:103FA8001437BD465DF8047B704700BF600000A071
:103FB800800000A080B400AF0A4B18221A60094B99
:103FC80000225A60074B4FF0FC329A60054B4FF0C5
:103FD800FC32DA60034B4FF0FC321A61BD465DF8E3
:103FE800047B7047A00000A080B487B000AF786061
:103FF80000237B6100233B610023FB600023BB603F
:104008003B4B1B687B617B6923F4FF3323F032034E
:104018007B617B681A687B685B685B021A437B6814
:104028009B685B031A437B69134343F010037B616E
:104038002F4A7B6913602E4B9B683B6100233B61D1
:104048007B68DB681A687B68DB685B681B021A435D
:104058007B68DB689B681B041A437B68DB68DB684A
:104068001B0613433A6913433B61214A3B6993603A
:104078001F4BDB68FB600023FB607B681B691A68C9
:104088007B681B695B681B021A437B681B699B681A
:104098001B041A437B681B69DB681B061343FA6819
:1040A8001343FB60124AFB68D360114B1B69BB606A
:1040B8000023BB607B685B691A687B685B695B6827
:1040C8001B021A437B685B699B681B041A437B6865
:1040D8005B69DB681B061343BA681343BB60044A79
:1040E800BB6813611C37BD465DF8047B704700BF91
:1040F800A00000A080B483B000AF78607B68002285
:104108001A607B6800225A607B6800229A607B688C
:10411800DB68FC221A607B68DB68FC225A607B68DB
:10412800DB68FC229A607B68DB68FC22DA607B68CB
:104138001B69FC221A607B681B69FC225A607B6839
:104148001B69FC229A607B681B69FC22DA607B6829
:104158005B69FC221A607B685B69FC225A607B6899
:104168005B69FC229A607B685B69FC22DA600C3729
:10417800BD465DF8047B704780B483B000AF03464A
:10418800FB71FB79002B06D0084A084B1B6843F0EB
:104198000403136005E00549044B1A68044B1340F7
:1041A8000B600C37BD465DF8047B7047A00000A08B
:1041B800FBFF0F0080B485B000AFF860B96013460C
:1041C800FB71FB79002B1BD0FB68102B06D11E4915
:1041D8001D4B5A68BB6813434B602FE0FB68B3F56F
:1041E800807F06D11949194B5A68BB6813434B6045
:1041F80024E01749164B5A68BB6813434B601DE00F
:10420800FB68102B07D110490F4B5A68BB68DB437A
:1042180013404B6012E0FB68B3F5807F07D10B4970
:104228000A4B5A68BB68DB4313404B6006E00849F9
:10423800074B5A68BB68DB4313404B601437BD46D5
:104248005DF8047B704700BF600000A0800000A0FC
:10425800A00000A080B485B000AF7860396000236A
:10426800FB730023BB607B68102B03D10F4B5B688B
:10427800BB600AE07B68B3F5807F03D10C4B5B68B9
:10428800BB6002E00B4B5B68BB60BA683B681340DD
:10429800002B02D00123FB7301E00023FB73FB7B9F
:1042A80018461437BD465DF8047B7047600000A0CF
:1042B800800000A0A00000A080B483B000AF7860A8
:1042C80039607B68102B07D10F490F4B5A683B6840
:1042D800DB4313404B6012E07B68B3F5807F07D166
:1042E8000A490A4B5A683B68DB4313404B6006E0B7
:1042F8000749074B5A683B68DB4313404B600C3750
:10430800BD465DF8047B7047600000A0800000A0F7
:10431800A00000A080B487B000AF786039600023A7
:10432800FB7500233B610023FB600023BB607B68B7
:10433800102B03D1144B5B683B610AE07B68B3F533
:10434800807F03D1114B5B683B6102E0104B5B68D7
:104358003B613A693B681340FB603B68DA083B699C
:104368001340BB60FB68002B05D0BB68002B02D054
:104378000123FB7501E00023FB75FB7D18461C3704
:10438800BD465DF8047B7047600000A0800000A077
:10439800A00000A080B483B000AF786039607B686B
:1043A800102B08D11149114B5A683B68DB08DB43D5
:1043B80013404B6014E07B68B3F5807F08D10C494B
:1043C8000B4B5A683B68DB08DB4313404B6007E044
:1043D8000849084B5A683B68DB08DB4313404B60CD
:1043E8000C37BD465DF8047B704700BF600000A035
:1043F800800000A0A00000A080B582B000AF786067
:104408007B684B4A934208D10120012101F032F820
:104418000120002101F02EF886E07B68454A93428E
:1044280008D10220012101F025F80220002101F025
:1044380021F879E07B68404A934208D104200121A1
:1044480001F018F80420002101F014F86CE07B68F2
:104458003A4A934208D10820012101F00BF80820BC
:10446800002101F007F85FE07B68354A934208D1E4
:104478001020012100F0FEFF1020002100F0FAFFBB
:1044880052E07B682F4A934208D12020012100F096
:10449800F1FF2020002100F0EDFF45E07B682A4A6B
:1044A800934208D14020012100F0E4FF4020002180
:1044B80000F0E0FF38E07B68244A934208D180206E
:1044C800012100F0D7FF8020002100F0D3FF2BE06E
:1044D8007B681F4A93420AD14FF48070012100F093
:1044E800C9FF4FF48070002100F0C4FF1CE07B6816
:1044F800184A93420AD14FF40070012100F0BAFF24
:104508004FF40070002100F0B5FF0DE07B68124AFF
:10451800934209D14FF48060012100F0ABFF4FF4C2
:104528008060002100F0A6FF0837BD4680BD00BFAF
:10453800000002400004024000080240000C024053
:10454800001002400014024000180240001C024003
:1045580000200240002402400028024080B487B0B6
:1045680000AF7860396000237B6100233B61002342
:10457800FB6000237B6176E07B69012202FA03F38A
:104588003B613B681A683B691340FB60FA683B690A
:104598009A4265D17B681A687B695B0019460323D8
:1045A8008B40DB431A407B681A607B681A683B685B
:1045B8001B7919467B695B0001FA03F31A437B6890
:1045C8001A603B681B79012B03D03B681B79022BCF
:1045D8002ED17B689A687B695B00194603238B4060
:1045E800DB431A407B689A607B689A683B685B7912
:1045F80019467B695B0001FA03F31A437B689A60EA
:104608007B685A687B699BB2194601238B40DB4360
:104618001A407B685A607B685B683A6892791146F1
:104628007A6992B201FA02F292B21A437B685A602E
:104638007B68DA687B699BB25B00032101FA03F3AC
:10464800DB431A407B68DA607B68DA683B68DB79B1
:1046580019467B695B0001FA03F31A437B68DA6049
:104668007B6901337B617B690F2B85D91C37BD467C
:104678005DF8047B704700BF80B483B000AF7860FA
:104688007B684FF6FF721A607B6800221A717B689C
:1046980000225A717B6800229A717B680022DA71C5
:1046A8000C37BD465DF8047B704700BF80B485B009
:1046B80000AF78600B467B804FF48033FB607A88CC
:1046C800FB681343FB60FA687B68DA617A887B6869
:1046D800DA61FA687B68DA617B68DB69FB607B68B2
:1046E800DB69FB601437BD465DF8047B704700BF8B
:1046F80080B485B000AF78600B467B800023FB73E5
:104708007B681A697B881340002B02D00123FB7356
:1047180001E00023FB73FB7B18461437BD465DF8A8
:10472800047B704780B483B000AF78607B681B69F6
:104738009BB218460C37BD465DF8047B704700BF36
:1047480080B485B000AF78600B467B800023FB7394
:104758007B685A697B881340002B02D00123FB73C6
:1047680001E00023FB73FB7B18461437BD465DF858
:10477800047B704780B483B000AF78607B685B6966
:104788009BB218460C37BD465DF8047B704700BFE6
:1047980080B483B000AF78600B467B807B687A88F2
:1047A8001A830C37BD465DF8047B704780B483B02C
:1047B80000AF78600B467B807B687A885A830C3719
:1047C800BD465DF8047B704780B483B000AF786065
:1047D8000B467B8013467B707B78002B03D07B686D
:1047E8007A881A8302E07B687A885A830C37BD4638
:1047F8005DF8047B704700BF80B483B000AF786079
:104808000B467B807A887B685A610C37BD465DF819
:10481800047B704780B483B000AF78600B467B8020
:104828007B685A697B885A407B685A610C37BD4659
:104838005DF8047B704700BF80B485B000AF786036
:104848000B467B8013467B700023FB600023BB6014
:104858007B787A8802F0070292009340FB607B889D
:10486800DB089BB218467B88DB089BB21A467B683C
:10487800083253F822207B8803F007039B0019466F
:104888000F238B40DB4302EA03017B6800F1080237
:1048980043F822107B88DB089BB21A467B680832F3
:1048A80053F82220FB681343BB607B88DB089BB26C
:1048B8001A467B680832B96843F822101437BD4697
:1048C8005DF8047B704700BF80B500AF4FF08050A3
:1048D800012100F029FE4FF08050002100F024FE55
:1048E80080BD00BF80B483B000AF0346FB71044AAB
:1048F800FB7913600C37BD465DF8047B704700BF39
:1049080020000E4280B485B000AF78600023FB60C1
:10491800094B1B68FB60FB6823F0E003FB60FA6847
:104928007B681343FB60044AFB6813601437BD4679
:104938005DF8047B704700BF0070004080B483B00E
:1049480000AF0346FB71044AFB7913600C37BD4680
:104958005DF8047B704700BF10000E4280B483B03E
:1049680000AF0346FB71044AFB7913600C37BD4660
:104978005DF8047B704700BFA0000E4280B483B08E
:1049880000AF0346FB71044AFB7913600C37BD4640
:104998005DF8047B704700BFA4000E4280B485B068
:1049A80000AF78600023FB60094B1B68FB60FB6865
:1049B80023F44043FB60FA687B681343FB60044AB6
:1049C800FB6813601437BD465DF8047B704700BF71
:1049D8000070004080B483B000AF0346FB71044A06
:1049E800FB7913600C37BD465DF8047B704700BF48
:1049F80040000E4280B483B000AF0346FB71044A06
:104A0800FB7913600C37BD465DF8047B704700BF27
:104A180044000E4280B483B000AF0346FB71FB79BB
:104A2800002B06D0084A084B1B6843F44023136048
:104A380005E0054A044B1B6823F4402313600C3738
:104A4800BD465DF8047B70470070004080B483B0B9
:104A580000AF0346FB71044AFB7913600C37BD466F
:104A68005DF8047B704700BF24000E4280B485B017
:104A780000AF78600B46FB700023FB60134B1B688C
:104A8800FB60FB6823F4406323F00303FB60FA68D0
:104A98007B681343FB600D4AFB6813600C4A0C4BA0
:104AA8001B6943F004031361FB78012B01D130BF6C
:104AB80000E020BF064A064B1B6923F0040313617C
:104AC8001437BD465DF8047B704700BF0070004096
:104AD80000ED00E080B485B000AF78600B46FB7055
:104AE8000023FB60134B1B68FB60FB6823F44063E7
:104AF80023F00303FB60FA687B681343FB600D4AED
:104B0800FB6813600C4A0C4B1B6943F004031361E8
:104B1800FB78012B01D130BF00E020BF064A064BCD
:104B28001B6923F0040313611437BD465DF8047B49
:104B3800704700BF0070004000ED00E080B400AF97
:104B4800084A084B1B6843F002031360064A064BE9
:104B58001B6943F00403136130BFBD465DF8047B55
:104B6800704700BF0070004000ED00E080B485B0E1
:104B780000AF78600023FB73084B5A687B681340CA
:104B8800002B02D00123FB7301E00023FB73FB7BA6
:104B980018461437BD465DF8047B70470070004026
:104BA80080B483B000AF78600549054B1A687B680C
:104BB8009B0013430B600C37BD465DF8047B7047C0
:104BC8000070004080B400AF164A164B1B6843F0D3
:104BD80001031360134B00229A60124A114B1B68A1
:104BE80023F0A85323F4102313600E4B0E4A5A6087
:104BF8000C4B0E4AC3F884200A4B0D4AC3F8882090
:104C0800084A084B1B6823F480231360054B0022D5
:104C1800DA60044B0022C3F88C20BD465DF8047BA3
:104C2800704700BF003802401030002400300020D8
:104C38000030002480B483B000AF0346FB71054BFD
:104C480000221A70034AFB7913700C37BD465DF8D1
:104C5800047B70470238024080B582B000AF002361
:104C68003B600023FB710023BB71312000F070FD15
:104C78000346BB713B6801333B603B68B3F5A04F0B
:104C880002D0BB79002BF0D0312000F061FD034643
:104C9800002B02D00123FB7101E00023FB71FB799B
:104CA80018460837BD4680BD80B485B000AF0346BE
:104CB800FB710023FB600A4B1B68FB60FB6823F059
:104CC800F803FB60FB79DB00FA681343FB60044AD6
:104CD800FB6813601437BD465DF8047B704700BF5E
:104CE8000038024080B483B000AF0346FB71044A29
:104CF800FB7913600C37BD465DF8047B704700BF35
:104D08000000474280B483B000AF0346FB710C4BF0
:104D180000221A700A4B00221A70FB79012B02D06C
:104D2800042B04D007E0064B01221A7003E0044B61
:104D380005221A7000BF0C37BD465DF8047B70472A
:104D48007038024080B483B000AF0346FB71044A58
:104D5800FB7913600C37BD465DF8047B704700BFD4
:104D6800800E474280B485B000AFF860B9607A60C1
:104D78003B600A497B689A01BB681A433B685B0839
:104D8800013B1B041A43FB681A43BB691B06134308
:104D98004B601437BD465DF8047B7047003802400D
:104DA80080B483B000AF0346FB71044AFB791360FB
:104DB8000C37BD465DF8047B704700BF6000474272
:104DC80080B483B000AF7860396006497B689A0187
:104DD8003B681B071343C1F884300C37BD465DF8A8
:104DE800047B70470038024080B483B000AF0346AC
:104DF800FB71044AFB7913600C37BD465DF8047BF0
:104E0800704700BF6800474280B485B000AFF860C3
:104E1800B9607A600749FB689A01BB681B061A43A8
:104E28007B681B071343C1F888301437BD465DF80B
:104E3800047B70470038024080B483B000AF03465B
:104E4800FB71044AFB7913600C37BD465DF8047B9F
:104E5800704700BF7000474280B483B000AF03467C
:104E6800FB71044AFB7913600C37BD465DF8047B7F
:104E7800704700BF4C00474280B485B000AF7860EF
:104E880039600023FB600A4B9B68FB60FB6823F0DA
:104E9800EC63FB607A683B681343FA681343FB6072
:104EA800034AFB6893601437BD465DF8047B70477E
:104EB8000038024080B485B000AF786039600023C4
:104EC800FB600A4B9B68FB60FB6823F07843FB6040
:104ED8007A683B681343FA681343FB60034AFB682C
:104EE80093601437BD465DF8047B70470038024074
:104EF80080B485B000AF78600023FB60094B9B68E5
:104F0800FB60FB6823F00303FB60FA687B681343CC
:104F1800FB60044AFB6893601437BD465DF8047B68
:104F2800704700BF0038024080B400AF054B9B6853
:104F3800DBB203F00C03DBB21846BD465DF8047B18
:104F4800704700BF0038024080B485B000AF786079
:104F58000023FB60094B9B68FB60FB6823F0F003B0
:104F6800FB60FA687B681343FB60044AFB68936044
:104F78001437BD465DF8047B704700BF0038024017
:104F880080B485B000AF78600023FB60094B9B6854
:104F9800FB60FB6823F4E053FB60FA687B6813430B
:104FA800FB60044AFB6893601437BD465DF8047BD8
:104FB800704700BF0038024080B485B000AF786009
:104FC8000023FB60094B9B68FB60FB6823F460438C
:104FD800FB607B68DB00FA681343FB60034AFB68ED
:104FE80093601437BD465DF8047B70470038024073
:104FF80080B489B000AF78600023BB6100237B6177
:105008000023FB6102233B610023FB600223BB609A
:10501800484B9B6803F00C03BB61BB69042B07D0AA
:10502800082B09D0002B3FD17B68434A1A603FE028
:105038007B68424A1A603BE03E4B5B6803F480039E
:105048009B0DFB603B4B5B6803F03F03BB60FB6859
:10505800002B0DD0394ABB68B2FBF3F2354B5968C7
:1050680047F6C0730B409B0903FB02F3FB610CE09E
:10507800314ABB68B2FBF3F22E4B596847F6C0734E
:105088000B409B0903FB02F3FB612A4B5B6803F4AB
:1050980040331B0C01335B003B61FA693B69B2FB8F
:1050A800F3F27B681A6003E07B68234A1A6000BF4A
:1050B800204B9B6803F0F003BB61BB691B09BB6114
:1050C8001F4ABB6913441B78DBB27B617B681A6893
:1050D8007B69DA407B685A60164B9B6803F4E0539F
:1050E800BB61BB699B0ABB61154ABB6913441B784A
:1050F800DBB27B617B685A687B69DA407B689A60BF
:105108000C4B9B6803F46043BB61BB695B0BBB61E1
:105118000B4ABB6913441B78DBB27B617B685A6816
:105128007B69DA407B68DA602437BD465DF8047B2A
:10513800704700BF003802400024F40000127A00D3
:105148005C00002080B485B000AF78600023FB606D
:105158007B6803F44073B3F5407F11D10F4B9B6814
:10516800FB60FB6823F4F813FB607B6823F0704353
:1051780023F44073FA681343FB60084AFB689360A2
:105188000649064B1A6F7B68C3F30B0313430B677F
:105198001437BD465DF8047B704700BF00380240F5
:1051A80080B483B000AF0346FB71044AFB791360F7
:1051B8000C37BD465DF8047B704700BF3C0E474284
:1051C80080B483B000AF0346FB71044AFB791360D7
:1051D8000C37BD465DF8047B704700BF400E474260
:1051E80080B483B000AF7860034A7B6813600C37E3
:1051F800BD465DF8047B70475C01474280B485B0CA
:1052080000AF78600023FB600A4BD3F88C30FB605A
:10521800FB6823F44013FB60FA687B681343FB6068
:10522800044AFB68C2F88C301437BD465DF8047B2D
:10523800704700BF0038024080B485B000AF786086
:105248000023FB600A4BD3F88C30FB60FB6823F427
:105258004003FB60FA687B681343FB60044AFB6801
:10526800C2F88C301437BD465DF8047B704700BF28
:105278000038024080B485B000AF78600023FB603E
:105288000A4BD3F88C30FB60FB6823F01F03FB60EC
:105298007B68013BFA681343FB60044AFB68C2F869
:1052A8008C301437BD465DF8047B704700380240E7
:1052B80080B485B000AF78600023FB600B4BD3F857
:1052C8008C30FB60FB6823F4F853FB607B68013B80
:1052D8001B02FA681343FB60044AFB68C2F88C306F
:1052E8001437BD465DF8047B704700BF00380240A4
:1052F80080B485B000AF78600023FB600A4BD3F818
:105308008C30FB60FB6823F44033FB60FA687B68F1
:105318001343FB60044AFB68C2F88C301437BD465F
:105328005DF8047B704700BF0038024080B483B04A
:1053380000AF7860034A7B6813600C37BD465DF8A0
:10534800047B7047E011474280B483B000AF7860B7
:105358000B46FB70FB78002B06D00949084B1A6BEB
:105368007B6813430B6306E00549054B1A6B7B68A2
:10537800DB4313400B630C37BD465DF8047B704775
:105388000038024080B483B000AF78600B46FB70F1
:10539800FB78002B06D00949084B5A6B7B681343EE
:1053A8004B6306E00549054B5A6B7B68DB431340AA
:1053B8004B630C37BD465DF8047B704700380240EC
:1053C80080B483B000AF78600B46FB70FB78002B8D
:1053D80006D00949084B9A6B7B6813438B6306E038
:1053E8000549054B9A6B7B68DB4313408B630C378D
:1053F800BD465DF8047B70470038024080B483B036
:1054080000AF78600B46FB70FB78002B06D009498B
:10541800084B1A6C7B6813430B6406E00549054B7F
:105428001A6C7B68DB4313400B640C37BD465DF890
:10543800047B70470038024080B483B000AF7860C6
:105448000B46FB70FB78002B06D00949084B5A6CB9
:105458007B6813434B6406E00549054B5A6C7B682F
:10546800DB4313404B640C37BD465DF8047B704743
:105478000038024080B483B000AF78600B46FB7000
:10548800FB78002B06D00949084B1A697B6813433F
:105498000B6106E00549054B1A697B68DB4313403D
:1054A8000B610C37BD465DF8047B7047003802403D
:1054B80080B483B000AF78600B46FB70FB78002B9C
:1054C80006D00949084B5A697B6813434B6106E0CB
:1054D8000549054B5A697B68DB4313404B610C3720
:1054E800BD465DF8047B70470038024080B483B045
:1054F80000AF78600B46FB70FB78002B06D009499B
:10550800084B9A697B6813438B6106E00549054B94
:105518009A697B68DB4313408B610C37BD465DF8A5
:10552800047B70470038024080B483B000AF7860D5
:105538000B46FB70FB78002B06D00949084B1A6A0A
:105548007B6813430B6206E00549054B1A6A7B68C2
:10555800DB4313400B620C37BD465DF8047B704794
:105568000038024080B483B000AF78600B46FB700F
:10557800FB78002B06D00949084B5A6A7B6813430D
:105588004B6206E00549054B5A6A7B68DB431340CA
:105598004B620C37BD465DF8047B7047003802400B
:1055A80080B483B000AF78600B46FB70FB78002BAB
:1055B80006D00949084B1A6D7B6813430B6506E052
:1055C8000549054B1A6D7B68DB4313400B650C37A7
:1055D800BD465DF8047B70470038024080B483B054
:1055E80000AF78600B46FB70FB78002B06D00949AA
:1055F800084B5A6D7B6813434B6506E00549054B1C
:105608005A6D7B68DB4313404B650C37BD465DF82C
:10561800047B70470038024080B483B000AF7860E4
:105628000B46FB70FB78002B06D00949084B9A6D96
:105638007B6813438B6506E00549054B9A6D7B68CB
:10564800DB4313408B650C37BD465DF8047B704720
:105658000038024080B483B000AF78600B46FB701E
:10566800FB78002B06D00949084B1A6E7B68134358
:105678000B6606E00549054B1A6E7B68DB43134051
:105688000B660C37BD465DF8047B70470038024056
:1056980080B483B000AF78600B46FB70FB78002BBA
:1056A80006D00949084B5A6E7B6813434B6606E0DF
:1056B8000549054B5A6E7B68DB4313404B660C3734
:1056C800BD465DF8047B70470038024080B483B063
:1056D80000AF0346FB71FB79012B06D1084A084B42
:1056E8001B6F43F00803136705E0054A044B1B6F63
:1056F80023F0080313670C37BD465DF8047B704739
:105708000038024080B483B000AF03460A46FB71FC
:105718001346BB71BB79002B08D00C490B4B1B7887
:10572800DAB2FB791343DBB20B7009E00749074B88
:105738001B78DAB2FB79DB43DBB21340DBB20B70C8
:105748000C37BD465DF8047B704700BF0D3802403A
:1057580080B487B000AF0346FB710023FB600023D1
:105768007B610023FB74FB795B09DBB2FB60FB68A0
:10577800012B03D1124B1B687B6109E0FB68022BEC
:1057880003D10F4B1B6F7B6102E00D4B5B6F7B619D
:10579800FB7903F01F03FB60FB687A6922FA03F3C5
:1057A80003F00103002B02D00123FB7401E0002366
:1057B800FB74FB7C18461C37BD465DF8047B7047BC
:1057C8000038024080B400AF044A044B5B6F43F0DA
:1057D80080735367BD465DF8047B7047003802400C
:1057E80080B485B000AF0346FB710023FB73094BFF
:1057F800DA68FB791340002B02D00123FB7301E028
:105808000023FB73FB7B18461437BD465DF8047B09
:10581800704700BF0038024080B483B000AF034631
:10582800FB71044AFB7913700C37BD465DF8047BA5
:10583800704700BF0E38024080B584B000AF002327
:105848007B600023BB600023FB73364BCA225A627D
:10585800344B53225A6200F0D1F80346002B02D190
:105868000023FB7355E02F4B00221A602D4B42F2A8
:1058780001125A602B4A2B4B9B6803F00703936075
:10588800284BDB6803F00403BB607B6801337B6053
:105898007B68B3F5803F02D0BB68002BF0D0214B6A
:1058A800DB6803F00403002B02D10023FB7330E014
:1058B8001C4B9B681B4B00229A601A4B4FF6FF72D9
:1058C8005A61184B184A1A61164B00229A61154BF7
:1058D8000022DA61134B00221A62124B0022DA62AC
:1058E800104B0022DA630F4B00225A640D4B002242
:1058F8009A640C4B0022DA600A4B00221A6400F00A
:10590800C5F80346002B02D10023FB7301E00123F5
:10591800FB73044BFF225A62FB7B18461037BD46C7
:1059280080BD00BF00280040FF007F0080B584B024
:1059380000AF78600023FB73194BCA225A62184BD8
:1059480053225A6200F05AF80346002B02D1002372
:10595800FB731CE0124A124B9B6823F040039360D0
:105968000F490F4B9A687B681B6813438B600C4A7E
:105978007B689B6813610A49094B1A697B685B68F5
:105988001B0413430B6100F073F80123FB73044BF2
:10599800FF225A62FB7B18461037BD4680BD00BF08
:1059A8000028004080B483B000AF78607B68002294
:1059B8001A607B687F225A607B68FF229A600C37E6
:1059C800BD465DF8047B704780B483B000AF0346E2
:1059D800FB71FB79002B03D0074BFF225A6205E0CD
:1059E800054BCA225A62044B53225A620C37BD46F1
:1059F8005DF8047B704700BF0028004080B485B084
:105A080000AF00237B600023FB730023BB60174BB0
:105A1800DB6803F04003002B1ED1144B4FF0FF321C
:105A2800DA60124BDB6803F04003BB607B6801332C
:105A38007B607B68B3F5803F02D0BB68002BF0D059
:105A48000A4BDB6803F04003002B02D00123FB73F1
:105A580004E00023FB7301E00123FB73FB7B184682
:105A68001437BD465DF8047B704700BF002800402E
:105A780080B400AF044A044BDB6823F08003D36092
:105A8800BD465DF8047B70470028004080B485B0AF
:105A980000AF00237B600023FB730023BB60184B1F
:105AA800CA225A62164B53225A62154A144BDB68B3
:105AB80023F0A003D360124BDB6803F02003BB6024
:105AC8007B6801337B607B68B3F5003F02D0BB681D
